:1000000000100020C501000075010000350B000044
:100010007501000075010000750100007501000008
:1000200075010000750100004C31000075010000F1
:100030007501000094310000750100007501000099
:1000400075010000750100007501000075010000D8
:1000500075010000750100007501000075010000C8
:1000600075010000750100007501000075010000B8
:1000700075010000750100007501000075010000A8
:100080007501000075010000750100007501000098
:100090007501000075010000750100007501000088
:1000A0007501000075010000750100007501000078
:1000B0007501000075010000750100007501000068
:1000C0007501000075010000750100007501000058
:1000D0007501000075010000750100007501000048
:1000E0007501000075010000750100007501000038
:1000F0007501000075010000750100007501000028
:100100007501000075010000750100007501000017
:100110007501000075010000750100007501000007
:1001200075010000750100007501000075010000F7
:100130007501000010B5054C237833B9044B13B199
:10014000044800E000BF0123237010BD68100020A8
:1001500000000000CC32000008B5034B1BB103497E
:10016000034800E000BF08BD000000006C10002044
:10017000CC320000FEE70000064B0748DA1C121ADA
:10018000C11E22F00302994288BF0022034902F0F7
:10019000E9BE00BF6810002008100020D83200001F
:1001A000064B0748DA1C121AC11E22F003029942BC
:1001B00088BF0022002102F0E2BE00BF40130020F1
:1001C0006810002008B5084B83F30A88074B084ADB
:1001D000C3E9002200F00EF800F04AFDFFF7CCFF63
:1001E000FFF7DEFF00F0AAFC000000200010002056
:1001F000A5EDF5FE044B054A9A60D3F8882042F439
:100200007002C3F88820704700ED00E00000000095
:100210000023024A1370024A1370704784100020B2
:100220008510002038B503780546042B0C4650D0C5
:1002300008D8012B0AD0032B50D0182340F6031006
:1002400023700DE0182B49D0432BF5E7264B42785D
:100250001978D9B9012A04D0152340F60410237067
:1002600038BD1A70AB781A44FF2AF5D100228021DC
:10027000E81C01F058FE95F88320C0F30F239A4242
:1002800016D0152340F602102370E9E7174B1B78B0
:10029000934204D1062340F606102370E0E70133B1
:1002A000DBB29342DED0152340F605102370D7E76A
:1002B00095F88430C0B2834204D0152340F6011073
:1002C0002370CDE76A78094B00201A70062323704B
:1002D000C6E7062340F607100B70C1E7182340F667
:1002E00008102370BCE700BF851000208410002098
:1002F00000F01AB800F01AB80149024800F060B8DE
:10030000A82F000088100020704710B5044600F0A8
:100310004DFF182C07D1204600F048FF2046BDE8CD
:10032000104000F043BF10BD00F058BE10B5B4B08F
:100330005F22204901A802F015FE6C221E4919A86F
:1003400002F010FE00F0A0FB0A22C0F30363092BA9
:100350008CBF373330338DF82630C0F30343B3FB03
:10036000F2F102FB113300F00F0030338DF8293029
:10037000B0FBF2F302FB130001F13004303003F163
:1003800030018DF82B108DF82C00012236210B48FE
:100390008DF8284000F0D2FE01225F2101A800F074
:1003A000CDFE01226C2119A800F0C8FE002034B057
:1003B00010BD00BFB82F00001730000099300000BA
:1003C0002DE9F04F0024ADF5277D4FF494720646D9
:1003D00088465CA821468DF8134002F0D0FD2146E6
:1003E000682206A802F0CBFD2146682220A802F070
:1003F000C6FD3C2700F092FD01244FF0FF35DFF8E9
:100400003893DFF838A3DFF838B3062CFDD8DFE8DF
:1004100014F00B000F00200043005D005D01BF00E1
:100420000424F2E70446F0E7FFF780FF0124ECE73D
:100430004FF47A7105A800F043FF40B99DF81430DD
:10044000313BDBB2022B8EBF0446B54AD45C3C275D
:10045000DBE701221121B34800F070FE2C220021BD
:10046000304602F08CFD202320AA06A95CA801F0EA
:10047000EBF80024FF23012105207370748000F045
:100480006DFD00F0A7FE18B10121204600F022FF0B
:10049000FFF7BEFE0324B8E74320FFF736FF002135
:1004A0004FF47A7000F05AFD00F094FE18B900F095
:1004B0007BFD0028F8D000F08DFE0028B0D1013F70
:1004C000A3D11820FFF721FF00249EE700218522F9
:1004D0000DF1E90002F053FD002140F6B83000F0C4
:1004E0003DFD00F077FE78B34FF47A73009301235B
:1004F00005AA19460DF1E90000F090FE9DF8E930DB
:10050000012B0DD140F6B832842100920DF1EA00A2
:1005100005AA00F083FE059B0546842B18D1C8B9B7
:100520000DF113010DF1E900FFF77CFE40F6071312
:100530009842054614D1B3780BB1F37813B9182358
:100540008DF8133006241DE000F02EFD0028C8D0E1
:1005500040F2047515208DF81300FFF7D6FE54E71E
:1005600080B99DF8E930012B0CD180233146CDF8BC
:1005700000803BAA5CA801F0A3F8054610B118233F
:100580008DF813309DF81300182808BF0624E4E7FF
:100590000121002000F09EFE01210A2000F0DEFC77
:1005A0009DF813300122062B13D140F607139D420C
:1005B0000FD103215C4800F0C1FD01221B215B48E3
:1005C00000F0BCFD01223621594800F0B7FD05249A
:1005D0001BE71A21504600F0B1FDA5F51063B3F5F5
:1005E000E06F4FF0010222D21121524800F0A6FD27
:1005F00040F606139D4222DD9DF813309F2B4FEAF3
:1006000013108CBF3730303000F0D0FD9DF8130050
:1006100000F00F0009288CBF3730303000F0C6FDE5
:100620000D2000F0C3FD0A2000F0C0FD4CE71021B2
:10063000584600F083FD40F606139D420BDCB5F5ED
:10064000106FD9DDA5F60213042B2BD8DFE803F0D9
:100650002C24282E3000A5F58053013B092BCBD844
:10066000A5F58053013B092BC6D801A252F823F00F
:10067000C5060000F9050000F9050000C9060000E4
:10068000B9060000C1060000C5060000BD06000056
:10069000B5060000C506000021238DF81330ABE736
:1006A0002223FAE72323F8E72423F6E72523F4E7B8
:1006B0002723F2E74123F0E74323EEE74423ECE767
:1006C0004523EAE74F23E8E75023E6E7B378002B1A
:1006D0003DD0F378002B3AD0337813F004040AD0DD
:1006E000B06A00F0F7F900283FF49CAE4FF40040E8
:1006F00000F09AF9E8E69B0724D57368039300F0AD
:10070000C3F9039B834204D94FF40040716A00F09F
:1007100049F901221321484600F010FD75E600BF9B
:100720008330000017310000DF300000FC30000093
:10073000993000002831000086300000E2300000CF
:10074000CF30000040F2012000F0A0FBE1E740F2D2
:10075000032000F09BFBB7E64FF098435A6CD2029F
:10076000FCD5586D00F470207047C0F30C032DE9E0
:10077000F04105460F4616460BB900F0B0FB05F5F3
:10078000005424F4FF5424F01F0405EB0608A04590
:1007900007D8324639462846BDE8F041022300F02A
:1007A000A5BB204600F09BFB04F50054EFE770B4B6
:1007B0000025AD6A03462E69864206D86C6913444B
:1007C0009C4202D370BCFFF7D0BF70BC70471FB50E
:1007D00010F5004F00F50043144603931AD2039B13
:1007E000B3F53E2F16D2039BC3F53E23934211D39C
:1007F00048B9836A5A69B2F5004F04D91869019162
:1008000000F06DFB01992246039804B0BDE810404A
:10081000FFF7ABBF04B010BDF0B5421ED11C0346BC
:1008200085B019D86E460D4C04F110073546206886
:100830006168083403C5BC422E46F7D10DF10F01A3
:100840000F3311F8010912F8014F844204D19A4282
:10085000F7D1012005B0F0BD0020FBE739310000E1
:10086000036913F0FE0F0CBF01200020704738B55C
:1008700004460D46FFF7D0FF48B16369012B09D14B
:100880002046FFF7EDFF08B1A3692B6038BD0120BA
:100890002C60FBE70020F9E72DE9F04103680446EE
:1008A00003F16043B3F5803F4FF00000A0B029D8BA
:1008B000826A636816699E4224D8B3F5402F21D816
:1008C000656B06F14003AB4268D8B5F5402F65D89B
:1008D0002846FFF7A1FF002860D02846FFF7C0FF99
:1008E00080B16B6973B1022B0FD1AB69C4F1040104
:1008F00019444FF0FF32204601F022FB284BC31A67
:100900005842584120B0BDE8F08140F204632846C7
:100910000493FFF781FF08B90020F3E72846FFF7AB
:100920009FFF0028F8D00027D7F834804046FFF713
:1009300073FF0028F0D0503EB045EDD8284605A9F9
:10094000FFF795FF0028E7D0BA6A059B12699A4223
:10095000E2D89C42E0D8B3F5402FDDD806A801F0DC
:10096000B1FB059A2146121B06A801F0B5FB06A8AB
:1009700001F0B4FB059C01F0B5FB039001F0CAFB4C
:1009800021460090039B04F1200206A801F020FB01
:1009900004900498B0FA80F04009B3E70120B1E771
:1009A000E320BBDE70B54FF0FF3290B005460C4639
:1009B00001F0C6FA194B98422DD11C22002101A842
:1009C00002F0DDFA164B29466846009302F0C3F8A0
:1009D0002146684602F0BFF8684602F0C5F8FFF706
:1009E000BBFE0646B8B940F2022000F02AFA1C22EB
:1009F000314609A802F0C3FA0A4B294608A8089311
:100A000002F0A9F808A8214602F0A5F808A802F00B
:100A1000ABF8FFF7A1FE002010B070BDE320BBDEF5
:100A2000010005430100064330B5044691B01C2285
:100A3000002101A802F0A3FA114B21466846009359
:100A400002F089F8684602F08FF8FFF785FE054648
:100A500098B940F2022000F0F4F91C22294609A8B6
:100A600002F08DFA074B08A82146089302F073F8AC
:100A700008A802F079F8FFF76FFE002011B030BD32
:100A8000000002430000034300239B6A98687047FC
:100A900010B58CB01C220446002105A802F06FFAA4
:100AA0000A4B0194049301230293094B01A904A862
:100AB000039302F046F804A802F056F8FFF74CFE44
:100AC000B0FA80F040090CB010BD00BF0000084330
:100AD000040000204FF0FF3313B5044601A8019332
:100AE000FFF7D6FF20B1019BA3422CBF00200120BD
:100AF00002B010BD4FF40040704701F08FBE01F00E
:100B0000F9BE000038B50C46054680B179B1002326
:100B10000B60074B036001F0C7FE01301EBF2B685E
:100B200043F440432B60236843F40053236038BDF3
:100B3000142400404FF4017000F0A8B913B501A8C7
:100B400002F056F89DF80530012B27D1404A936DED
:100B5000DB0313D4536B23F4FF0323F4FE4343F46A
:100B6000BC1343F4A0635363136B23F4704343F447
:100B700040431363136B43F4E06313639DF8043045
:100B800063B94FF000531B68324B1B68324B1B6834
:100B9000324B1B68324B1B68324B1B68324AD2F80F
:100BA000803043F00303C2F88030FFF7A6FF00F067
:100BB0003CF908B900F027F901F04FFC70BB00F0D8
:100BC00034F908B100F02BF940F2012000F05EF991
:100BD000FFF78EFBFFF78EFB18B14FF4017000F0AA
:100BE00055F9FFF789FB0446FFF78EFB1CB140F275
:100BF00003739C4203D140F2012000F047F9A4F2B4
:100C00000573012B03D940F205439C421CD140F2ED
:100C1000032000F03BF9002002B010BD00F005F900
:100C200008B900F0F6F800F017F9012802D900F031
:100C3000EAF8FEE700F01AF90C4B0193019B002B38
:100C4000C6DD019B013BF8E74FF40170E1E700BF0F
:100C500000C00040004000200080002000C00020B4
:100C600000000120004001200080004000350C0001
:100C700013B501244FF040238DF806408DF807404E
:100C8000D3F894305B060BD500F014F9A0F20220E3
:100C900080B2072804D804FA00F010F0C90F02D17E
:100CA00000F07AFB20B100238DF806308DF8073074
:100CB0004FF480435B68013308D14FF4027000F0B9
:100CC000C0F800238DF806308DF807309DF8073006
:100CD00063B14FF48040FFF7DFFD8DF806009DF80B
:100CE00006301BB94FF4027000F0ABF89DF80630E7
:100CF0008BB100F09AF808B100F091F84FF48043FE
:100D0000064A93601846016881F3088881F30988D0
:100D100040688746FEE702B010BD00BF00ED00E06E
:100D2000B1F50D7F10B504460FD34FF40D720021BD
:100D300002F025F904F5DE7204F5AA7104F12C0025
:100D40000023BDE8104000F07FBC40F2052010BD3C
:100D500013B50446009101462C3000F0B1FCC4F8F4
:100D6000300218B141F20703984209D1A3784BB180
:100D700040F2032040F20223E278002A08BF18461E
:100D800002B010BD40F20120FAE72DE9F04387B030
:100D90000DF1080904460E46174600211022484668
:100DA0001D46DDF8388002F0EAF800211C22C8F860
:100DB0000010284602F0E3F832463B462146CDF8C3
:100DC000009004F12C0000F07BFC23789A0744BFCC
:100DD0006268C8F80020DB0709D504F1080304F1B4
:100DE000240253F8041B934245F8041BF9D12378DD
:100DF00040F20640002B18BF002007B0BDE8F0838A
:100E00004FF40D7070474FF000534CF23C325A8053
:100E100070474FF000534AF6C0325A8070474FF087
:100E200000534FF20F025A8070474FF000534AF6BA
:100E3000C0305B8823F00F039BB21B1A5842584105
:100E400070474FF0005208B51080FFF7EEFF10B961
:100E50004FF20F03538008BD08B5FFF7E6FF20B13E
:100E60004FF00053588800F00F0008BD08B5FFF799
:100E7000DCFF50B14FF00052538803F00F010F29EF
:100E800014BF013323F00F03538008BD08B5FFF7EB
:100E9000D8FFBFF34F8F0549054BCA6802F4E062E3
:100EA0001343CB60BFF34F8F00BFFDE700ED00E0C1
:100EB0000400FA054FF000534FF20F015A888A429E
:100EC00001D1188870473AB91B8840F20220012BE3
:100ED00018BF4FF4007070474FF40070704708B5AA
:100EE00001F08EFDB0FA80F0400908BD072B10B567
:100EF000044618460FD862B142EA04039B070AD1A0
:100F000013460A46214601F09FFDB0FA80F04009E1
:100F100010BD0120FCE70020FAE700001FB500F03B
:100F2000F7F94FF47A23B0FBF3F00A4B0E22186066
:100F30000021684602F023F801238DF8003040F2CA
:100F4000FF3369460448ADF8023001F066FE05B093
:100F50005DF804FBB81000200080044030B50D4D52
:100F60000D4A2D68536A15FB00F010FA83F09CB20D
:100F700080B2A0422CBF00240124084B1880084BEB
:100F80001C7011B1536A8342FCD1012305494B61A6
:100F9000936130BDB810002000800440B4100020E0
:100FA000B610002000A00440094B0A4A5869127884
:100FB00000F001000AB108B9704738B9586A064B09
:100FC0001B88984234BF00200120704701207047E1
:100FD00000800440B6100020B41000202DE9F0413C
:100FE0000125DFF82881414BD8F80020404F02F15D
:100FF0003C01996002F124037B627B6002F580531F
:101000005D6040F6AA630024536141F20503394E46
:10101000394802F500519460D465D3601461D461FD
:10102000D4648864C6F8CC45C6F8E445C6F8DC4507
:10103000C6F8D445C6F8D845D3609368936000F0ED
:1010400067F92E4B4FF4E1121B6F2146C3F3802347
:101050002B44B0FBF3F303F5E1435B01B3FBF2F385
:10106000274A203B02EAC303D8F800202846D36170
:101070002B46042201F058FC2B462A4629462846D6
:1010800001F052FC14230422C6F8CC354FF00113B2
:101090001146C6F8E4552846C6F8DC352B4601F063
:1010A00043FC0522D8F800304FF4A0215A614FF0DC
:1010B000F053144A55609360134B54629463146464
:1010C0005465196002311466D465176759600321AD
:1010D000A3F50053C2F89040C2F88C405963022334
:1010E000956402F580521361BDE8F081481000203C
:1010F0000810002000C00340FFFF010000800040F6
:10110000F8FF7F0000000440004004405810002019
:10111000084B586B10F0020006D002229A6203F5C9
:10112000005301205A637047DB6A9B07FBD40222FD
:10113000014BF6E700000440002004407F2938B549
:101140000446154624D8FFF7E3FF20B32046134B8F
:10115000621890420DD1124B01391A8861F30E12B8
:101160001A80104AC2F8A0300223936435B90020D7
:1011700038BD10F8014B03F8014BEAE7FFF7C8FF51
:101180000028FBD0084B1A6893699B06FCD5EEE754
:1011900041F20310ECE741F20620E9E7C01200201B
:1011A000481000200000044058100020014608B5F7
:1011B000FFF7AEFF0028FBD0054B1B689A6950066D
:1011C000FCD5D9639A699206FCD5002008BD00BF02
:1011D000581000200E4BD86E40F2011398420FD0E9
:1011E00040F2022398420DD00A4BC01A0A4B1B68EA
:1011F00083420AD02ABFC3F50073C01AC0187047D3
:101200000020F3E74FF48070F0E70020704700BF44
:1012100000000440BC100020BC1200202DE9F8435F
:10122000089F04460D461646F3B9FFF7D3FFA842C0
:1012300028BF284600214FF001084FF002091D4A3F
:10124000DFF878E013681C4F04EB000C64451DD1F7
:1012500001B1136006B1306041F20423A84234BFEB
:1012600018460020BDE8F8832FB1FFF757FE002194
:101270003846FFF773FEFFF7ADFFA842D5D2002F27
:10128000F9D0FFF791FE0028F5D0CEE71EF8031045
:101290000133B3F5007F04F8011B04D10023C7F824
:1012A00010900121D2E7B3F5807F08BFC7F8108006
:1012B000F7E700BFBC12002000100440BC10002063
:1012C000012307B5002200911946FFF7A7FF03B0DD
:1012D0005DF804FB10B10222094B9A6271B1012240
:1012E0000020074B07499A624A6307491967074973
:1012F00008609A64022203F580531A610020704747
:10130000000004400020044008100020BC1200200F
:1013100030B51A4B87B001AA03F1100514461868BE
:101320005968083303C4AB422246F7D11B782370B7
:10133000134B1B6F03F00703032B1BD0114A936859
:10134000C3F30443102B17D818336B4413F8143C21
:101350000D480E4943438B4203D19268C2F30162A8
:10136000D340074A106FC0F301300130B3FBF0F0F7
:1013700007B030BD064BF4E7064BF2E7E43100005E
:10138000008000400000014040420F0000093D0085
:1013900000F04902C0EA210113B502210123042211
:1013A000084601F0C1FA00230093009B632B19DD6E
:1013B000022201231146104601F0B6FA00230193E0
:1013C000019BB3F5FA7F10DB0221094B08465C6FE5
:1013D0000022012301F0A8FA6FEA940000F0010056
:1013E00002B010BD009B0133DEE7019B0133E6E74D
:1013F00000C00340002070470020704770B5D1E95D
:101400000152AA4205D290F840302B449B1A402B3F
:1014100010D9002012E00A6890F84040D65C90F89D
:1014200041200133224402F03F02013486548B6094
:1014300080F840408B689D42EDD8012070BD2DE9B9
:10144000F8431D461746D1E901329B1A90F8402017
:10145000044613449D420E469DF820909DF824803A
:1014600056D9FFF7CBFF00285CD1142341F20200CC
:1014700084F84630BDE8F88394F84120A25CFA5421
:1014800094F841200133013202F03F0284F84120F8
:1014900094F84020013A84F8402094F840200AB1A2
:1014A0009D42E9D1D6E90121914201D29D4231D834
:1014B0009D42DAD129463846D4F8882000F040FD14
:1014C000C4F88800B9F1000F04D02A463946E06C10
:1014D00000F002FEB8F1000F08D094F843308BB151
:1014E0002B463A463946A06C00F061FD94F8433033
:1014F00043B1E36DA26D2B449342E36524BF002307
:1015000084F84330636D41F203002B446365B1E717
:101510000023C2E73268525CFA54B26801330132E8
:10152000B260BFE70020A5E77FB50023CDE9003317
:10153000082315460DEB03020446FFF780FF41F236
:1015400003039842064626D194F8433063B108223B
:10155000E06C0DEB020100F0BFFD08230DEB030270
:101560001146A06C00F023FD039A029B6A6094F878
:1015700043202B605AB9094A934208D0084A934243
:1015800005D00822E06C0DEB020100F0A5FD6B68B0
:10159000236500236365304604B070BDF70A0AF77F
:1015A000FC0404FC2DE9F743044658680E46174630
:1015B0009846002842D011F0030342D19B6A206E66
:1015C0001B6902EB000C1D1D65451CD81C3398429D
:1015D00019D28542294638BF01469C4594BFC1EBCC
:1015E0000C02C1EB0302081AC5F1680506EB0009FD
:1015F000681820444946019201F0B4FCFF21484696
:10160000019A01F0BCFC48F20403226E9A420BD806
:1016100048F20701B818884206D99B1AF258C4F854
:1016200080204FF0FF32F2503A46D8E90035206E64
:101630003146A8470020226E3A44226603B0BDE836
:10164000F08341F20200F9E72DE9F04100254FF067
:10165000FF3704468846164603F0200380F84230E0
:101660001822FF21C0E91855A0F8405080F84350D7
:10167000A0F8445080F84650C0F88870683001F0F7
:101680007EFC88222946C4E91286C4F88070C4F81A
:10169000847004F1900001F072FC40F20113A4F890
:1016A00024310123C4E9475784F8185184F82631BE
:1016B00016B1304600F006FD0020BDE8F0810000C4
:1016C0002DE9F04FA7B0CDE9132302930023044680
:1016D0000E46309DDFF8B4931593159A029B9A42FB
:1016E00001D30020C7E094F84630142BF6D8DFE889
:1016F00013F06700AE00A800520039002E0050021F
:1017000039004802390002023900480297030504F3
:1017100015008C013E033E03D00205044FF0000883
:10172000636D0F2B00F291800127102316AA20462B
:10173000CDF80480009713A9FFF781FE41F203035F
:101740000990099A9A4200F05281099B44E00127CE
:10175000D4E91432934200F25E8184F8467041F27B
:10176000030339E04FF00108D4E91437BB426CD9C8
:10177000DB1BDDE91472BF1A94F84020032B1744D9
:1017800040F20B82032F00F20B82204613A9FFF7D1
:1017900035FE002320E00127636D072BDFD80823E7
:1017A00016AA2046CDE9007713A9FFF748FE41F2BB
:1017B00003030C900C9A9A4200F0B2810C9B0BE050
:1017C00016AA204613A9FFF7AFFE41F203020690C6
:1017D000069B934202D0069B059345E0179A169903
:1017E0002265002262659E4A914240F0A481022255
:1017F00084F84620F0E7012316AA00932046082328
:10180000019713A9FFF71BFE41F203030790079A04
:101810009A4201D0079BDFE7169B03F07F43B3F1A9
:10182000407F05D0142384F8463041F20903D3E702
:10183000179BD80706D594F8423043F0010384F88B
:1018400042300027636D072BD5D901239EE1204646
:1018500016AA13A9FFF768FE41F203030890089F38
:101860009F420BD0089F059741F20303059A9A42C5
:101870003FF433AF059827B0BDE8F08F94F84420CB
:10188000169B2AB1774A934240F087800D2336E0B9
:1018900094F84220D10741D594F84320002A3DD145
:1018A00071498B4233D022D8704A934275D014D8F4
:1018B0006F4A934200F0888004D8694A93426CD002
:1018C0004B456AD0142316A884F84630FFF792FDE2
:1018D000002865D141F20807C5E7664A934279D0EE
:1018E000F0D8654A934258D0644A9342E9E75D4A8A
:1018F0009342CBD006D8624A9342E3D10F2384F8B7
:101900004630B0E75F4A934247D05F4AEDE7102385
:1019100084F84630236DC4E91632A4E7574A93424F
:101920004AD02BD8514A934244D022D84B453FD07D
:101930004F4A934244D016A8FFF75CFD00284BD0D5
:101940001323169884F84630C4F88C00FFF754FD32
:1019500094F842309A0686D5002884D04368002B3C
:1019600081D0204698470890089B002B3FF47BAF1E
:1019700016E0414A9342DED10323C0E7414A934235
:101980001CD010D83B4A934220D0364A9342D2D141
:1019900094F84330002B3FF479AF142384F8463099
:1019A00041F201075FE7384A9342C4D10823A6E712
:1019B0000A23A4E70523A2E70623A0E70C239EE75A
:1019C00094F84330002BE8D1112398E794F8433082
:1019D000002BE2D1122392E7142384F8463094F8C6
:1019E0004330002B3FF476AF41F204073BE7D4F8D5
:1019F00048A000F0A7FB80230221CDE9000317AA2D
:101A00003B46504600F0B0FA8AE6012384F84330A2
:101A100084F8463061E616AA2046CDE9007713A97E
:101A2000FFF70DFD41F203030A900A9A9A4201D092
:101A30000A9BD1E60DF1580C06F108030DF1700E6A
:101A4000624603CA724518605960944603F1080360
:101A5000F6D110681860337843F00103337077E6ED
:101A6000EB17A603FC0404FCF90707F9F40A0AF4CF
:101A7000F30B0BF3F70A0AF7F50909F5F60808F670
:101A8000FA0606FAFD0303FDFE0101FEEB17A65E52
:101A9000337843F004033370199BB36273785B07A8
:101AA00026D5EB238DF8583017238DF85930A6230F
:101AB0008DF85A305E2300208DF85B30236D606610
:101AC000C4F8843094F8453043F0020384F845307C
:101AD000EF686FB104222B6816A9B8470822606E20
:101AE0002B68EF6818A91044B847636E103363661B
:101AF0000B2384F84630636D072B3FF630AE01238D
:101B000018AACDE900332046082313A9FFF797FC54
:101B100041F203030B900B9A9A42B9D00B9B5BE600
:101B20003378179A43F002033370169B7360236D6A
:101B3000083B73622AB1142384F8463041F2010352
:101B40004AE6042384F8463094F84530626643F050
:101B5000010384F845301FE6042316AA2046CDE988
:101B6000007713A9FFF76BFC41F203030D900D9A68
:101B70009A4201D00D9B2FE6236D042B02D9169BB0
:101B800023660127636D032BE6D9092384F84630C9
:101B9000E5E50023636607233AE79F42FFF4F5ADCE
:101BA000402B28BF40239F4228BF1F46032F88BFDA
:101BB00027F003073B4616AA2046CDE9008813A963
:101BC000FFF73DFC41F203030E900E9A9A4201D0BA
:101BD0000E9B01E694F846B0BBF1070F04D1D5F88F
:101BE00008A0BAF1000F1BD1042FC7F1040A88BF67
:101BF0004FF0000A16AB5246FF21D81901F0BFF989
:101C0000BBF1090FBA4414D12B465246204616A9FF
:101C1000FFF7C8FC0E900E9B002B3FF4A5ADD7E755
:101C20003A462B68606E16A9D047626E3A446266E7
:101C30009AE5BBF1040F20D173789F077FF594AD2F
:101C4000EB68002B3FF490AD626E042A0BD80AEBD0
:101C50000203062B07D917AB9B1A1A68C4F8842015
:101C60004FF0FF321A60EF6852462B68606E16A97B
:101C7000B847676E5744676676E5BBF10B0F7FF494
:101C800073AD737858077FF56FADEF68002FEBD118
:101C90006AE594F8427017F0200707D0D4F88C005A
:101CA000FFF7AAFB074600283FF448AF4FF0010AB0
:101CB00042E04BB347B33B6933B320469847DDE975
:101CC000143294F840809B1A43448342FFF45DAD84
:101CD000D4E91421A2EB0108B8F1400F28BF4FF05E
:101CE0004008984528BF984616AA43462046CDE9A5
:101CF00000AA13A9FFF7A3FB41F203030F900F9A69
:101D00009A4203D00F9B67E50120D8E794F8423050
:101D1000990611D5002F3FF411AFD7F808B0BBF1E9
:101D2000000F3FF40BAF2B464246204616A9D8477A
:101D30000F900F9B002BE5D1D4E9142194F8423089
:101D4000914203F02003B4D3002B3FF47EAD002F6B
:101D50003FF47BADFB68002B3FF477AD294620466E
:101D600098470F900F9B002B3FF46FADCAE70021FF
:101D70008A6A496B1269503A91423FF6DFAE112BE5
:101D80000FD194F81831002B7FF45FAD41F20603B8
:101D90001093109A9A4202D1142384F84630109B73
:101DA0001AE594F84430002B7FF44FADCDE90033B1
:101DB00016AA4023204613A9FFF741FB41F2030373
:101DC0001090109A9A42EAD1E06C00F087F994F8EA
:101DD0001831A3B104F1B403E06C00931EAA04F11E
:101DE000940316A900F0F4F81090109B9BB1002307
:101DF000F370142384F8463041F20603ECE4E76CF8
:101E000000F070F9039000F085F9039B00901EAA82
:101E1000384616A9E6E70123F37084F8443014E548
:101E2000002316AACDE900332046042313A9FFF7A7
:101E300006FB41F203031190119A9A4202D0119BC2
:101E4000059317E5D4F888202E4B9A4205D0142329
:101E500084F8463041F20503F2E70123F37094F869
:101E60004530DA0707D5EF682FB104222B681046FA
:101E700004F18401B84794F845309B0707D5EF6813
:101E80002FB104222B68104604F18401B847236E59
:101E90006BB36F685FB34FF0FF3304F1800104222E
:101EA00012A81293029101F04DF828B1042248F2D1
:101EB00004002B680299B84704F1680904224946D6
:101EC00012A801F03FF890B100239B6A1422D3F8C6
:101ED000108004F16C0108F10800D5E90037B8471B
:101EE000D5E900370422494608EB0200B847012330
:101EF000B3700E2384F846300023A1E741F20700B7
:101F0000B9E400BFE320BBDE49BA89B24840C0F360
:101F10000313584003B283EA0033580100F4FF5022
:101F20009BB25840704738B5044645181046AC423D
:101F300000D138BD014614F8010BFFF7E5FFF6E7C5
:101F400030B501240025074B01445C609D601A6197
:101F5000DC60884201D1586A30BD10F8012B1A624A
:101F6000F7E700BF00800840F7B50446203016466A
:101F70001D460F46019000F0A1FEDDE90812019810
:101F800000F0A0FE002384F8587063643368C4F83E
:101F900059307368C4F85D30B368C4F861302B0CF5
:101FA0006DBA84F86530A4F8665003B0F0BD1FB573
:101FB0000C46194600F14803CDE90142009300F1B7
:101FC000440200F15803203000F0F8FE04B010BDC8
:101FD0002DE9F04399B00E4615461C460746DDF83C
:101FE0008090002861D000295FD0002A5DD0002BAE
:101FF00058D02F4B2F4AB9F1000F14BF9846904686
:102000001C22002111A800F0BAFF2B4B414610A85A
:10201000109300F0A0FD202110A800F09CFD0122EB
:10202000264B019402920393CDF8109005920693EB
:1020300054B1B9F1000F07D001A910A800F077FD45
:1020400004A910A800F073FD079701271B4C07A9EE
:1020500010A80897099400F06AFD0AA910A80A962A
:102060000B970C940D950E970F9400F060FD0DA941
:1020700010A800F05CFD10A800F076FD104B009356
:102080004FF098435A6CD202FCD55B6D40F204606D
:1020900003F470230093009B002B08BF002019B0AD
:1020A000BDE8F083DFF80C80AAE740F20160F6E7B4
:1020B0001F2400801F24FC84000001062000002053
:1020C0007856341210B5044600F0F4F82046BDE806
:1020D0001040002100F0F2B800F0F5B8014600F021
:1020E000FFB8000000B591B00023402269464FF4CC
:1020F000807000F057FDB0F5A02F07D0B0F5302F5D
:10210000034818BF002011B05DF804FB0048FAE74F
:102110004CE30B0000B591B00023402269464FF418
:10212000807000F03FFDB0F5A02F07D0B0F5302F44
:10213000034818BF002011B05DF804FB0048FAE71F
:102140006CE30B000048704786E20B002DE9F34773
:1021500099460A9B0C46196805463F29164642D8FF
:102160005A68002A41D0224A002E14BFB046904639
:1021700001F03F07091928BF5A68196024BF0132CE
:102180005A60AFB1C7F1400AA24521D8294652464C
:1021900009EB070000F0E6FE0123414600934A46A2
:1021A0003346002000F0A4F8B046403C55443C447F
:1021B0003F2C0CD9A3092A46009341463346002000
:1021C00000F096F824F03F031D4404F03F0400277C
:1021D0002CB12246294609EB070000F0C3FE00207F
:1021E00002B0BDE8F0879046C2E7DFF80480BFE7A1
:1021F000F531000030B40546084611461A46DDE9BF
:10220000023425B931B1029430BCFFF79FBF0248B8
:1022100030BC70470846FBE780AFFFFF2DE9F04177
:102220001746146886B01E46E3008DF80F30630928
:1022300052688DF80E30630B8DF80D30630D8DF8FC
:102240000C30D30003EB54738DF80B3004F03F04D3
:102250005309372C8DF80A304FEA52334FEA525265
:1022600005468DF80820884694BFC4F13802C4F1B1
:102270007802CDE900178DF809300D49034600209A
:10228000FFF7B8FF082143462A4600970DEB0100EF
:10229000FFF75CFF284605F1200350F8042B984215
:1022A00046F8042BF9D1002006B0BDE8F08100BF4C
:1022B000153200006822002100F061BE0023C0E951
:1022C00000331846704707B500F1280301900093CA
:1022D00000F108030020FFF78DFF03B05DF804FB59
:1022E00002460B4600F128010830FFF797BF0000B7
:1022F000F0B593B00E4617460446202200210AA8E6
:102300001D4600F03CFE01204FF000520197029064
:102310000392049605900692079508900992002C66
:102320002FD1189C184BA40121460AA80A9300F04B
:1023300012FC03990AA80C430394069B04A943F0DA
:1023400020030693099B43F02003099300F0EFFB61
:1023500001A90AA800F0EBFB07A90AA800F0F1FB0D
:102360000AA800F001FC4FF098435A6CD202FCD549
:102370005B6D13F4702F0CBF00206FF06F0013B073
:10238000F0BD6FF07100FAE70004010310B50024FE
:102390004A1EA1424FEA82024FF0FF0108BF2246C7
:1023A00040F8044B00F0EBFD204610BD036840F2FE
:1023B00004500133022B38BF0020704740F2025016
:1023C000704710B5ADF50E7D4FF40D72002001A9D8
:1023D00000F086F940F20124002101A800F0B8F8CD
:1023E000A042F9D040F20323984220D19DF8043056
:1023F00059070CD49DF804309A071DD4DB0716D575
:1024000004998A9800F0DEF988B1002011E00B9859
:10241000FEF760FB0028EDD08A9800F091F90028C3
:10242000E8D04FF40040FEF7FFFA0028E2D140F276
:1024300005400DF50E7D10BD0022926A029992684A
:102440009142DBD98A9800F099F90028EFD00A99D7
:102450004FF40040FEF7A6FAE9E7FFF7B2BF00002D
:1024600031B10A4B5A68824205D80023C1E90033D2
:1024700040F201407047013053F8302003EBC000B8
:1024800043680A6000204B60704700BFBC32000008
:1024900001221A707047000070B40C4611460C4AB5
:1024A000556885420DD9013002EBC0067668E51803
:1024B000B5420AD852F830001A46204470BC00F0E9
:1024C000B7B940F2014070BC704740F20240FAE7F1
:1024D000BC32000030B5CA681B4B04469A420D4618
:1024E000A3B019D1FEF706FBD4F82432174A013302
:1024F00052F83330D4F82C221344984208D3803356
:10250000984209D241F20D03C4F8303223B030BDF5
:1025100000F540409842F5D88023D4F82C1202AA46
:10252000D4F82402FFF7B8FF80232146009502AAC1
:1025300004F12C00FFF7C4F8D4F82C32C4F83002B0
:102540008033C4F82C32E1E7CF070000BC32000032
:102550001FB50023CDE90033CDE90213D0F83032A6
:10256000044693B9D0E98A329A420ED26946FFF7FF
:10257000B1FFD4F8300298B141F2070240F20123D2
:10258000904208BF184604B010BDA3785BB140F27A
:10259000022040F20323E278002A18BF1846F2E72F
:1025A00040F20120EFE740F20220ECE770B50D4663
:1025B000002186B00DF1070302931F4B0446164617
:1025C000116028461C22CDE903338DF807100593CE
:1025D00000F0D5FC94F87230132B28D0D4F83032A8
:1025E0002BBBD4E98A21914207D2204602A9FFF7EA
:1025F00071FF9DF80730002BECD02278910744BF83
:1026000061683160D20709D504F1080204F12401A0
:1026100052F8040B8A4245F8040BF9D14BB92378E0
:1026200040F20640002B18BF002006B070BD00230A
:10263000E3E70020F9E700BF9124000070B40C46E6
:1026400011460C4A556885420DD9013002EBC0068F
:102650007668E518B5420AD852F830001A46204488
:1026600070BC00F0FBB840F2014070BC704740F213
:102670000240FAE7BC320000074B5A68824207D991
:10268000013003EBC002516853F8300000F00EB97E
:1026900040F20140704700BFBC32000070B50546F3
:1026A00088B0C0B14FF4403200236C46C0E900232B
:1026B0000A4B05F114061A785B680272C36068461B
:1026C00000F09EF80FCC0FC694E80F0086E80F00CC
:1026D00005F114032B6108B070BD00BFBC320000CF
:1026E00037B50C46054611462046FEF719FB48B99A
:1026F00069462846FFF7B4FE20B9019BC4F824526E
:10270000C4F8283203B030BD38B500F5DE72044697
:102710000D46202300F5AA712C30FEF795FFD4F862
:1027200030321BB9D4E98A329A4203D3A07800B17F
:10273000E07838BD29462046FFF7CCFEEFE70000E1
:1027400000B5ADF5137D4FF40D7205A9FFF7C8FF75
:1027500078B904238DF81530074BCDE901000390BB
:1027600001A905A80493FFF7CFFF0DF5137D5DF8D0
:1027700004FB0020F9E700BFCF070000002300B5ED
:102780009B6AADF5137D9B688B4204D300200DF549
:10279000137D5DF804FB4FF40D7205A9FFF7A0FF50
:1027A0000028F3D102238DF81530054BCDE9010047
:1027B000039001A905A80493FFF7A6FFE7E700BF70
:1027C000CF07000000B5ADF5137D4FF40D7205A9DC
:1027D000FFF786FF78B901238DF81530074B01907C
:1027E000CDE90230049001A905A8FFF78DFF0DF592
:1027F000137D5DF804FB0020F9E700BFAF07000080
:1028000070B504460646044D0FCD0FC495E80F0081
:1028100084E80F00304670BD9C32000000207047F5
:10282000024BD86900F00100704700BF0000034070
:10283000B2F5402F10B51346044608460BD8B4F540
:10284000402F08D82344B3F5402F04D8214600F088
:1028500089FB002010BD40F20240FBE7B2F5402F9B
:1028600010B506D8B0F5402F03D88318B3F5402F24
:102870000ED940F2024010BDC458013411D10433C6
:102880009A42F9D812F0030404D040F20440F2E76F
:102890000023F5E70223FEF729FB0028E9D02046B4
:1028A000E9E740F20340E6E70220704738B541EA25
:1028B0000003C3F30C030446CBB9B1F5402F0FD886
:1028C000B0F5402F0CD80D18B5F5402F08D820468C
:1028D00004F50054FEF703FBAC4204D00028F6D107
:1028E00040F2024038BD0028FAD00020FAE740F25A
:1028F0000440F7E700207047EFF3108072B670478E
:1029000000B962B6704770B5054614460E46FFF72B
:10291000F3FF296881EA040202EA06044C402C60B5
:10292000BDE87040FFF7ECBFF8B504460D461F4602
:1029300016464AB101238B403021194A01FB00227F
:10294000FFB141F21001535004EB4403072D4FF047
:102950000F014FEA031317D8A80006FA00F28140CE
:1029600010481844FFF7CFFF56B9012130230C4817
:1029700001FA05F503FB040077B141F21003C550DD
:10298000F8BD42F21001DEE7A5F10800800006FA6A
:1029900000F281400448E4E742F21003EFE700BF91
:1029A00000C0034004C003400CC00340F0B5114A0E
:1029B000114C124E00F00105E3695F0713D40DB905
:1029C000334213D103EA00078F4207D10B4A1A4062
:1029D000002A14BF6FF001000020F0BD013AEBD1D6
:1029E0006FF00200F9E74FF0FF30F6E76FF00100FB
:1029F000F3E700BF8096980000000340020001004A
:102A000038B541F6713301220C4C0021E569E363CE
:102A10000B4B05F48035DA600223606121202361CD
:102A2000FFF7C4FF10B92120FFF7C0FF0122054BBB
:102A3000DA600DB10023E36338BD00BF000003403E
:102A400000100340002003402DE9F04F06464FF4EC
:102A5000502501202A4CDFF8B4C041F67137CCF87C
:102A6000040044F8265030250024DFF8A4E0DFF805
:102A7000A49005FB06E5EC652C662C67214CDFF87D
:102A800098A0D4F81C80E763E76800FA06F60743CD
:102A9000E7604BB9E26818F4803F22F00102E2607F
:102AA00000D0E363184628E001F5005000EA090071
:102AB000401A984228BF18466161D4F81CB08708B4
:102AC0001BF0040F17D1013F3F0147F060576F66BD
:102AD000AA66C5F86CA0CCF82460DEF834703E42DB
:102AE000FBD0094F01447E630427CCF828600244E0
:102AF00027611B1ACDE74FF0FF30BDE8F08F00BF14
:102B00000040044000000340002004400010044046
:102B10000000044000E0FFFF180003404FF098431E
:102B20005A6CD202FCD5586D00F47020704743688F
:102B300013B9416070475B685A68012AFBD159603C
:102B40007047836813B9816070475B685A68012ACF
:102B5000FBD159607047C369032B9FBF00EB830211
:102B60000133D160C3617047C369042B15D84FF09E
:102B70009842116CC902FCD504339B0013650168AF
:102B8000103B116041680C30116050F8041C034484
:102B900011604FF09842984200D1704750F8041BE2
:102BA0001160F8E7F0B507460F4D10488DB0002BC7
:102BB00008BF05460E46144600211C2205A800F059
:102BC000DEF9012304A801A93D4344F00054019615
:102BD000049502930394FFF7B4FFFFF7C5FFFFF7D7
:102BE0009DFF0DB0F0BD00BF01000AFF010008FF0E
:102BF000054B5B69C3F38512827003F03F021B0B28
:102C000042700370704700BF00C00740036BDA07D3
:102C100002D503695B06F9D4704710B5FFF7F6FFDC
:102C2000012200F500531A630B79044648881B0201
:102C300043EA8043487A03434878002814BF402081
:102C400000200343887A002814BF8020002003431B
:102C5000C87A002814BF202000200343087B0028E6
:102C600014BF102000200343487B002814BF082015
:102C7000002003438879002814BF4FF480300020DF
:102C80000343636004F580531A630A780AB9022388
:102C9000E36000236362C8790B7A497943EA8003D1
:102CA000002914BF102100210B43A3600AB10123A6
:102CB000E36010BD002070470020704724220021EF
:102CC00000F05DB970B515460E4624220021044679
:102CD00000F055F925F04003802B02D0B5F5807F38
:102CE00008D12046314640F8045BEA0800F03AF982
:102CF000002070BD6FF01F00FBE700002DE9F041E0
:102D000004681E4624F04003802B0546884617467B
:102D100092B002D0B4F5807F43D11C2200210BA8D1
:102D200000F02DF9224A234B0121B8F1010F18BF01
:102D300013460A932B1D0193E4081F4B44F00054E3
:102D400002910AA8039404970591069307960891A7
:102D500001A90993FFF7EBFE04A90AA8FFF7E7FE14
:102D600007A90AA8FFF7EDFE29680AA8C908FFF716
:102D7000F2FE10210AA8FFF7EEFEFFF79BFF98B9BD
:102D80000AA8FFF7F1FE4FF098435A6CD202FCD527
:102D90005C6DFFF791FF04F47024204612B0BDE88B
:102DA000F0816FF07100F9E74FF0FF30F6E700BFF8
:102DB0000001010400010004100000202DE9F04F83
:102DC0009BB00746894698461646DDF894B072B126
:102DD00015683B6823F04002802A03D0B3F5807F5A
:102DE00040F0A6800BEB0903002400930DE015468C
:102DF000EFE795B1249A1BF80430525D013553403A
:102E0000269A05F00F05135501344C45F1D3002ED9
:102E100000F091800020356067E0A9EB040ABAF168
:102E20000F0F57D91C22294613A800F0A8F8434BCE
:102E30003A6812933B1D03930123D20842F00052DB
:102E4000049305923E4A2699CDF818802AF00F0A7D
:102E500007930892CDF824800A930B920BEB04029F
:102E60000C9221444AF000520D9312A80E920F9139
:102E700003A910931192FFF75AFE06A912A8FFF7B3
:102E800056FE0CA912A8FFF752FE0FA912A8FFF7D1
:102E900058FE09A912A8FFF754FE396812A8C908FC
:102EA000FFF759FE514612A8FFF755FEFFF702FF44
:102EB000C8B912A8FFF758FE4FF098435A6CD202D7
:102EC000FCD55B6D544403F470230193FFF7F4FECB
:102ED000019B5BBB269B0BEB040A1C44009B9A45A1
:102EE00006D14C4691E74FF0FF301BB0BDE8F08FA4
:102EF0008DB9424601213846249BFFF7FFFE00288A
:102F0000F3D108F1100212F8013D0133DBB2137066
:102F10000BB99045F7D1249A1AF8013B525D01355F
:102F2000534004F8013B05F00F05D7E71846DCE7EE
:102F30006FF01F00D9E73046D7E700BF0303000456
:102F4000100000200139024410B5904201D1002048
:102F500005E0037811F8014FA34201D0181B10BD02
:102F60000130F2E70A44431E914200D1704710B588
:102F700011F8014B914203F8014FF9D110BD024401
:102F80000346934200D1704703F8011BF9E70000A4
:102F9000F8B500BFF8BC08BC9E467047F8B500BF46
:102FA000F8BC08BC9E46704700000000AF07000058
:102FB00000000000CF070000496E737472756374DF
:102FC000696F6E73206F66204765636B6F20426F79
:102FD0006F746C6F616465722076582E59592E5A41
:102FE0005A3A0D0A2020312E20466C617368206108
:102FF000206E6577206170706C69636174696F6EB3
:1030000020286F6E6C7920737570706F7274202E2B
:1030100067626C290D0A002020322E2052756E2026
:103020007468652063757272656E74206170706C6F
:1030300069636174696F6E0D0A2020332E20536816
:103040006F772074686520626F6F746C6F61646560
:103050007220696E666F0D0A0D0A506C65617365AA
:1030600020696E7075742074686520636F72726574
:1030700073706F6E64696E67206E756D6265722025
:103080003E20000205000D0A4661696C65642074EB
:103090006F20626F6F740D0A000D0A2D2D2D2D2DDE
:1030A0002D2D2D2D2D2D2D2D2D2D2D2D2D2D2D2D50
:1030B0002D2D2D2D2D2D2D2D2D2D2D2D2D2D2D2D40
:1030C0002D2D2D2D2D2D2D2D2D2D2D2D0D0A000DC0
:1030D0000A66696C65206572726F72203078000D27
:1030E0000A000D0A53657269616C2075706C6F611E
:1030F000642061626F727465640D0A000D0A536585
:103100007269616C2075706C6F616420636F6D70A3
:103110006C6574650D0A000D0A626567696E20753D
:10312000706C6F61640D0A000D0A626C6F636B2036
:103130006572726F7220307800B814B6F1E0CFF388
:10314000ADB7DD25C9FA79B71300000007B0CD5E31
:1031500002000000000001023C33000000400000BB
:1031600000000C00F0041100FB0A0000FF0A000040
:1031700099080000210D0000510D00005832000098
:103180008B0D0000010E000000000000050B000088
:10319000F50A000013B779FAC925DDB7ADF3CFE022
:1031A000F1B614B80102000000000000383300003E
:1031B00040000000000001020000000000000000CC
:1031C00000000000000000000000000000000000FF
:1031D00000000000000000000000000000000000EF
:1031E000000000000400000700000D1013001A206A
:1031F00026303840506A09E667BB67AE853C6EF3FF
:1032000072A54FF53A510E527F9B05688C1F83D9EA
:10321000AB5BE0CD19800000000000000000000062
:10322000000000000000000000000000000000009E
:10323000000000000000000000000000000000008E
:10324000000000000000000000000000000000007E
:103250000000000000000000000100009D260000AA
:1032600061240000992400003D260000792600001A
:10327000AD2300008D230000BD230000E1260000E7
:1032800051250000AD250000212800003128000054
:103290005D280000AD280000A928000001020300FD
:1032A00028000000280000000020000000000C00A2
:1032B00000000000040000000000004001000000C9
:1032C0000100000000C0050000400500D8320000E9
:1032D0000810002018000000F00F1003000000008C
:1032E000BC100020130000000900000000010000D5
:1032F0000202000013000000F00F100300000000A5
:10330000BC110020130000000900000000020000B2
:1033100001010000D3FFFFFFF07F1030C01200203A
:10332000000000000000000000C005402200000076
:08333000590100003501000005
:1040000000100020BD63000029AC00002DAC0000B2
:10401000B963000031AC000039AC0000B9630000A6
:10402000B9630000B9630000B9630000B963000020
:104030003DAC000064190400B9630000B9630000DE
:10404000B9630000B9630000B9630000CD680000E7
:10405000B9630000B9630000B9630000B9630000F0
:10406000B9630000B96300006DBF0000B9630000D0
:10407000B963000039610000B96300002D450000FC
:1040800039450000B9630000B9630000B96300005E
:10409000B9630000B9630000B9630000B9630000B0
:1040A000B9630000BD7100009D710000B96300009C
:1040B000B96300009D2A0200B96300006534020064
:1040C0000934020005340200412C02006134020070
:1040D0000D3402002534020011340200E91A0200F6
:1040E000A5340200B9630000B9630000B9630000A1
:1040F000B9630000059A0000B9630000B9630000CD
:10410000B9630000B9630000B9630000B96300003F
:10411000B9630000B9630000B9630000B96300002F
:10412000B9630000B9630000B9630000B96300001F
:10413000B963000010B5054C237833B9044B13B1B3
:10414000044800E000BF0123237010BD14180020B4
:104150000000000050BB040008B5034B1BB103492D
:10416000034800E000BF08BD000000001818002050
:1041700050BB0400A3F5803A704700BF174B002BDB
:1041800008BF134B9D46FFF7F5FF00218B460F46F6
:104190001348144A121A35F064FB0E4B002B00D062
:1041A00098470D4B002B00D09847002000210400B9
:1041B0000D000D48002802D00C4800E000BF35F08B
:1041C000E5FA2000290000F05DF835F0CBFA00BFD9
:1041D00000000800000000000000000000100020A7
:1041E00014180020F0500020000000000000000023
:1041F00013B5044600901A4B04201A4A1A490BF0D2
:1042000015F9AB2C01D0942C24D1184C0420227821
:1042100017490132D2B222700BF008F92378052B2E
:104220000FD80A22042013490BF000F9FF2112488D
:104230000AF072FA42F2107102B0BDE8104025F0A7
:10424000BFB9002304200D49237002B0BDE810401F
:104250000BF0ECB80CB9054B1C7002B010BD00BFE0
:10426000AB70040038A803003DA8030030180020FC
:1042700054A8030064A80300881C002081A8030040
:1042800023F002BD08B507F08EFE07F099FE07F097
:1042900081F8FAE730B50A4C0A4B22680A4D1A60D9
:1042A0000A4B85B02B600A4B019305F0B9FB2B68D4
:1042B000029001A92068039304F058FA05B030BDBC
:1042C000A41000202C2C0020282C00209810002066
:1042D00040FA0300014B186804F05CBAA4100020F7
:1042E00038B505F09DFB0446064D2B68D3F8B002A7
:1042F00005F08AFB286804F060FA2046BDE83840E3
:1043000005F082BBA410002008B50421002003F0B2
:1043100055FB0421062003F051FB0821072003F080
:104320004DFB0821084603F049FB08211C2003F03F
:1043300045FB0821242003F041FB0821252003F040
:104340003DFB002008BD000007B501A803F01CFFDD
:104350009DF80530012B27D1224A936DDB0313D43E
:10436000536B23F4FF0323F4FE4343F4BC1343F4E1
:10437000A0635363136B23F4704343F4404313630C
:10438000136B43F4E06313639DF8043063B94FF09B
:1043900000531B68144B1B68144B1B68144B1B68A1
:1043A000144B1B68144B1B68144AD2F8803043F03E
:1043B0000303C2F8803005F049FA05F009FA05F068
:1043C00063FA05F00DFAFFF79FFF05F0EFF902F031
:1043D0004BFA05F093FF02F001FF03B05DF804EB28
:1043E00006F002BF00C00050004000200080002006
:1043F00000C000200000012000400120008000508B
:1044000008B502F079FD02F073FE00F0F7F800F055
:1044100003F9BDE8084013F0ADBF08B504F0DCF8BF
:1044200004F0ECF804F0FCF80AF020F90AF0A8F91E
:10443000BDE808400AF0DEB970477047FFF750BF8B
:1044400008B50AF021F9BDE808400AF0ABB9704799
:1044500008B505F04FFBBDE8084000F059B808B5B5
:1044600007F0A4FA05F012FA15F07EF8FFF7F0FF56
:10447000BDE80840FFF70EBF70B5114E92B035464B
:104480000BAC0FCD0FC495E807000E4B84E8070076
:104490000D4A0121CDE903234FF4007307ACCDE9A8
:1044A000051306F11C030FCB84E80F00074B2146D0
:1044B00000930BAA03AB064805F006FE12B070BDD0
:1044C00080FA03002303000300000650F01A0020C6
:1044D000581B0020831E012B0BD8012909D8042268
:1044E0000A4BD3F8A03003F001030021032003F0AE
:1044F00035BD0239012908D8012806D8034B00220E
:10450000D3F8A03003F00103EFE7704700C0035079
:1045100008B50449044806F01BFFBDE80840FFF752
:10452000ABBF00BFA8100020301B0020014B186853
:1045300005F088BE581B0020FFF7F8BF014B1A6A30
:1045400018681047581B0020012070470120704751
:1045500010B5FFF7BFFE044605F0BFFE002808BFF8
:1045600000240AF0F3F9002808BF0024FFF7ECFF4D
:10457000002814BF2046002010BD38B506F0FAFF11
:104580000446FFF7DBFF04281ED002284FF0000589
:1045900008BF012405F0A3FE042817D0022808BF95
:1045A00001240AF0F7F9042812D0022808BF0124D8
:1045B000FFF7CCFF04280DD0022808BF0124002DEE
:1045C00018BF0024204638BD0125E3E70125E8E7B0
:1045D0000125EDE70024F5E708B519F091F900226F
:1045E000014B1A7008BD00BF7C1B0020FF207047E4
:1045F00008B5FFF7FBFF002008BD000008B5044820
:1046000002F0D0FBBDE80840024802F0CBBB00BF7F
:10461000ACFA0300C4FA030008B5044802F0EAFC4F
:10462000BDE80840024802F0E5BC00BFDCFA030028
:10463000F4FA030007B50022034611460120009258
:1046400009F05EF903B05DF804FB08B500200FF037
:1046500083FE002012F0B8F800200BF0A9FD002026
:104660000EF068FB00200EF001FE00200EF006FFA9
:10467000BDE8084000200EF0F3BF08B501200AF0A5
:1046800069FDBDE8084001200AF0ACBE08B5022073
:104690000FF0D8FE02200FF073F8022012F034FB66
:1046A000022014F003F902200BF0C0FA02200EF0F1
:1046B00051F8BDE8084002200FF0FABB70470FF038
:1046C0005DBF10B49DF8044001945DF8044B0FF0F9
:1046D00079BF70470BF0FABC70477047704770475E
:1046E000704710B504460FF011FA20460AF040FD5D
:1046F00020460BF0A3FA20460CF03EF82046BDE819
:1047000010400CF093BE0EF0B9BD0EF0C3BD0EF01C
:10471000CDBD7047704770477047704770470AF0CB
:1047200025BD7047704770477047704738B50446DD
:104730000D460BF09DFA29462046BDE838400EF0A4
:1047400051BE7047704770477047704782B06B46E4
:1047500083E8060093E8060002B00AF0C1BD704786
:1047600070477047704711F0B1B911F0B3B9704795
:104770000020704711F0B0B911F0BCB9A0F13003BE
:10478000DBB2092B05D9A0F16103052B03D85738FB
:10479000C3B218467047A0F14103052B01D8373842
:1047A000F6E7FF23F5E710B5F1B1441814F8010C52
:1047B000FFF7E4FF0129024614D014F8020CFFF7BA
:1047C000DDFF00B200EB800002EB40020229D2B212
:1047D00008D014F8030CFFF7D1FF642300FB03207B
:1047E00000F0FF02104610BD0A46FBE710B549B3C2
:1047F000441814F8010CFFF7C1FF012982B21FD041
:1048000014F8020CFFF7BAFF00B200EB800002EBD5
:104810004002022992B213D014F8030CFFF7AEFF46
:10482000642300B200FB0322032992B208D014F8DB
:10483000040CFFF7A3FF4FF47A7303FB002082B24E
:10484000104610BD0A46FBE710B519B3441814F81A
:10485000010CFFF793FF0129024601D190B210BD70
:1048600014F8020CFFF78AFF022942EA001212B282
:10487000F4D014F8030CFFF781FF032942EA002269
:1048800012B2EBD014F8040CFFF778FF42EA0030C4
:1048900080B2E4E70846E2E710B5B1B3441814F873
:1048A000010CFFF76BFF012902462CD014F8020C13
:1048B000FFF764FF0A23022913FB002223D014F818
:1048C000030CFFF75BFF6423032913FB00221AD0BC
:1048D00014F8040CFFF752FF4FF47A73042903FB1A
:1048E000002210D014F8050CFFF748FF42F21073B5
:1048F000052903FB002206D014F8060CFFF73EFF43
:10490000034B03FB0022104610BD0A46FBE700BF25
:10491000A08601007FB50378094905934378049385
:1049200083780393C37802930379019343790093C7
:104930008379C27904200AF079FD07B05DF804FBA1
:104940008CFC030070B53B4994B008237F22098892
:1049500007A806F006FA384904200AF067FD07A800
:10496000FFF7D8FF354904200AF060FD09A80FF0D1
:104970002DFF9DF82430042005939DF825309DF8E7
:104980002B2004939DF826302D4903939DF8273062
:10499000102402939DF828302A4E01939DF8293067
:1049A0000BAD00939DF82A300AF040FD26491023F4
:1049B0007F2209880BA806F0D4F9042023490AF0C5
:1049C00035FD3146042015F8012B013C0AF02EFD7F
:1049D00014F0FF04F5D1042018490AF027FD1C4902
:1049E00014237F2209880FA806F0BBF90420BDF824
:1049F0003C2018490AF01AFD042017490AF016FD58
:104A00001024104E0DF13E053146042015F8012BFF
:104A1000013C0AF00BFD14F0FF04F5D10420074916
:104A20000AF004FD0420BDF84E200C490AF0FEFCFB
:104A300014B070BD5A420400ADFC030043100400E2
:104A4000B9FC0300A8FC030064420400E7FC030077
:104A50005E420400F4FC030013FD030026FD030086
:104A600010B54FF4825486B0ADF80E30089B8DF827
:104A700010108DF811200146009303AABDF82430D0
:104A80000020ADF812400FF03BF906B010BD1FB585
:104A90004FF482548DF808108DF80920ADF80630D7
:104AA000BDF81C20069B01A9ADF80A400FF0FEF8E6
:104AB00004B010BD13B5134C206801F059FB04235A
:104AC00022467F21222006F048F9042022680E4960
:104AD0000AF0ACFC0D4B187888B91323012201931E
:104AE0000B4B114600934FF6FF73FFF7B9FF0246D9
:104AF0000420084902B0BDE810400AF097BC02B09B
:104B000010BD00BF541D002043FD0300A01B00206A
:104B100074FD030088FD0300224B2DE9F7431B7849
:104B200004460F461BB101461F4801F06DFB237878
:104B3000412B02D16378542B07D01C4B19681C48B9
:104B400003B0BDE8F04301F05FBBE31913F8022C9A
:104B50000D2AF2D113F8013C0A2BEED10025154B9A
:104B6000DFF85480B3F80090EBB24B4502D30F4B03
:104B70005968E4E71A0158F8021008EB03160846D2
:104B8000019134F094FF01990246204634F097FFDA
:104B900001350028E8D139462046B36803B0BDE8A6
:104BA000F0431847E6100020C6710400E81000200A
:104BB000A4FD0300E41000207CFF0300FF2310B5D8
:104BC0001A460649064809F067FDBDE81040012372
:104BD0007F222121034806F0B7B800BFB54A000084
:104BE000801B0020E61000202DE9F0470026DFF8AA
:104BF000E880334F86B0B8F80020F5B2954205D36F
:104C0000304806B0BDE8F04701F0FEBA002110229E
:104C100002A82D01019134F024FE7C592A49204636
:104C200034F061FF00283DD0204634F040FF821E62
:104C3000214601A834F0EEFD244801A901F0E4FA70
:104C40007B19D3F80490B9F1000F03D049462048EE
:104C500001F0DAFA20461C4934F045FF824620462E
:104C600034F025FFC4B2BAF1000F20D0C4F12A04F9
:104C7000E4B2B9F1000F06D0484634F018FF013C09
:104C8000241A04F0FF044FF00009DFF850A05FFA87
:104C900089F3A3420ED33D44E9680E4801F0B4FA0B
:104CA0000136A8E7204634F002FF0246C0E7C4F10F
:104CB0002804DDE7504601F0A7FA09F10109E6E70B
:104CC0007CFF03001000040043100400C6710400C0
:104CD0000C0004005C000400E41000201C6C0400C4
:104CE000014801F091BA00BF1000040000B53B4933
:104CF0008DB03B4801F088FA3A4A3B493B4801F005
:104D000083FA3B4908237F22098808A806F029F87E
:104D10009DF820309DF8262004939DF821309DF8C1
:104D2000271003939DF82230324802939DF82330D8
:104D300001939DF8243000939DF8253001F064FA2A
:104D40000AA80FF043FD9DF828309DF82E2004930B
:104D50009DF829309DF82F1003939DF82A3026489E
:104D600002939DF82B3001939DF82C3000939DF811
:104D70002D3001F049FA0FF065FC01461F4801F0A3
:104D800043FA01237F2223210DF11F0005F0DCFFF0
:104D90009DF91F101A4801F037FA2AF077F80146FA
:104DA000184801F031FA2AF06BF80146164801F074
:104DB0002BFA0FF049FC0146144801F025FA0FF0D8
:104DC00045FC08B10FF044FC0146114801F01CFA03
:104DD000104801F019FA0DB05DF804FB1900040049
:104DE0002000040037000400430004004C000400CD
:104DF0005A4204006100040091000400C100040054
:104E0000D3000400E6000400FA00040010010400CE
:104E1000210104001000040037B53A21054634F0A2
:104E20002FFE044638B9174B1968174803B0BDE880
:104E3000304001F0E9B92846144934F054FE031B10
:104E4000013B13F0FF0302D10E4B9968EDE7012BF4
:104E500002D00C4BD968E8E71946601C0193FFF7B4
:104E6000A2FC0128019BF4D8094A00F0010010704F
:104E70007F21212005F071FF064803B0BDE83040D6
:104E800001F0C2B9E8100020A4FD030043100400A3
:104E9000E61000201000040008B5FF21054809F0C5
:104EA0003BFCC82124F08CFBBDE80840024801F01F
:104EB000ABB900BFE81C00201000040008B500F0EA
:104EC0001BFE0FF0C3FB30B128F0D9F808490246A9
:104ED00004200AF0ABFAFF21064809F01DFC40F659
:104EE000B83124F06DFBBDE80840034801F08CB9EF
:104EF0002F010400E81C00201000040008B5FF2169
:104F0000054809F009FCC82124F05AFBBDE8084017
:104F1000024801F079B900BF241C002010000400F1
:104F200008B5FF21054809F0F7FB002124F048FBF4
:104F3000BDE80840024801F067B900BF881C0020A6
:104F40001000040073B53A21044634F099FD05467B
:104F500038B9284B1968284802B0BDE8704001F004
:104F600053B92046254934F0BEFD441B063C14F0DD
:104F7000FF0402D11F4B9968EDE7042C02D81D4BAA
:104F80001969E8E7502C02D91A4B5969E3E7042163
:104F9000681CFFF759FC4FF6FE739842064602D193
:104FA000144BD968D7E70FF051FB4FF6FE7310B9D9
:104FB000104B9969CFE74FF6FF7296424FF001020E
:104FC00005F10605A4B211463046CDE900540CD1D6
:104FD000FFF75DFD02460A4904200AF027FA094856
:104FE00002B0BDE8704001F00FB9FFF739FD064986
:104FF0000246F1E7E8100020A4FD0300431004007E
:10500000450104001000040088FD030010B500F005
:10501000FFFC02237F2224212B4805F095FEFFF799
:10502000CDFDFF2329491A46294809F035FBFF2306
:1050300028491A46284809F02FFBFF2327491A461A
:10504000274809F029FBFF2326491A46264809F07C
:1050500023FBFF2325491A46254809F01DFBFF23A2
:1050600024491A46244809F017FBFF2323491A460E
:10507000234809F011FBFF2322481A46224909F070
:105080000BFBFF211F4809F047FB4FF47A7124F016
:1050900097FAFF231D491A461D4809F0FDFA002022
:1050A0000BF0A0FC04201B490AF0C0F900F046FAFE
:1050B000BDE810400022184B4FF6FF711A70062011
:1050C000164B10F031BF00BF641C0020C15B000014
:1050D000041C0020DD5B0000A81C0020F55B000024
:1050E000E41B00200D5C0000881C0020255C0000F3
:1050F000681C00203D5C0000241C0020415C000076
:10510000E81C0020C81C0020455C0000655C000015
:10511000441C002043100400C01200205D5B00000E
:10512000912813B549D09B285BD090285BD10123EF
:105130007F2223210DF1060005F006FE9DF90600F1
:1051400023F0E8FC23F0FFFC2849024604200AF083
:105150006DF901237F2220210DF1070005F0F4FDF8
:105160009DF8073033B300237F218DF807302020CE
:1051700001230DF1070205F0F0FD1D4C238873B1EA
:10518000FF211C4809F0C8FA4FF47A71238859436B
:1051900024F016FA0420228817490AF047F9174824
:1051A00001F02BFF00F06AFF154802B0BDE8104087
:1051B00001F02AB82DF070F9DFE7104801F020FF68
:1051C00000F05CFF0A4B1B884BB1FF21094809F036
:1051D000A3FA24F06FFA04200A490AF027F90A48D2
:1051E000E3E70A48E1E702B010BD00BF6301040035
:1051F000641C0020441C00208D010400DCFA030024
:10520000B4010400C3010400E6010400F701040036
:1052100070B5436804465B88ACB0192B06D090F992
:105220001130027CA44904200AF000F90122A34BAA
:10523000FF21A3481A7009F06FFA002124F0C0F989
:1052400063685B88A3F57F43F83B072B00F231814D
:10525000DFE813F01401C5002F018B006A0036004F
:1052600018000800237CA289E189964800F0CCFF51
:10527000A068A18900F0B8FF934800F0C5FF0120A5
:105280002CB070BD237CA289E1898E4800F0BCFF60
:10529000A189A06800F0A8FF8B4800F0B5FF0C239F
:1052A00001938A4B0122009311464FF6FF73E08968
:1052B000FFF7D6FB8649024604200AF0B7F8DEE77E
:1052C000A6683A21304634F0DBFB837905462D2B66
:1052D0001DD1C379C3F130038DF850309DF95000D2
:1052E00023F018FC01237F21232014AA05F035FDAB
:1052F00004209DF9502077490AF098F89DF9501044
:10530000754800F081FF12230193744BCAE774497A
:10531000304634F0E8FB401B811FC9B2A81DFFF7DF
:1053200042FA8DF85000D9E7A5683A21284634F0B2
:10533000A7FB6B490446284634F0D5FB011B063910
:10534000C9B2A01DFFF7A8FA664B0146186066486F
:1053500000F05AFF0022654BFF2165481A7009F0E2
:10536000DBF9642124F02CF989E7A6683A2130465C
:1053700034F086FB5A490546304634F0B4FB411BF5
:105380000639C9B2A81DFFF731FA5A4D02237F2111
:1053900028802A46242005F0E0FC2B88FF2156486F
:1053A000A3B109F0B9F94FF47A712B88594324F06D
:1053B00007F904202A8851490AF038F8298850480A
:1053C00000F022FF142301934E4B6BE709F0A4F980
:1053D00024F070F904204C490AF028F8EEE7002583
:1053E0002E22294608A8079534F03BFA0122474BA4
:1053F000474907A815F0C6FB07A834F058FB01225F
:1054000080B207AB009301904FF6FF731146E0891D
:10541000FFF726FB2E49024604200AF007F829462A
:10542000322207A834F01DFA03A80DF0C9F914A917
:1054300003A80DF0E3F920B1364907A815F0A2FB47
:105440000AE035490DF1620034F04DFB58B1179A6E
:10545000324907A815F096FB07A834F028FB80B264
:10546000019007AB1EE72E490DF1620034F03BFBC3
:1054700010B1179A2B49ECE72B49DEE72B4B1B7831
:1054800013B92B4B1A787AB1122301220193294BBD
:1054900011460093E0894FF6FF73FFF7E1FA04200D
:1054A000254909F0C3FFEAE601241C700CF0E0FC7A
:1054B000E5E60020E4E600BF0B0204001011002026
:1054C000341D002034020400411004004502040091
:1054D00088FD030063010400520204006502040019
:1054E00043100400541D002078020400A01B00207B
:1054F000801B0020641C0020441C00208D0104003F
:105500008C020400A8020400C30104001900040076
:10551000BD020400DA020400EC02040008030400E7
:10552000220304003B03040052030400741F002004
:10553000A11B0020670304007A030400024B034907
:10554000186803F02BBC00BFA41000200411002039
:105550000420014909F06ABFE4030400FFF7F2B92F
:1055600010B5294C86B022880420284909F05EFF36
:10557000E2780420264909F059FF94F9022004201A
:10558000244909F053FF2379E27A059363790420D3
:105590000493A37920490393E3790293237A019337
:1055A000637A0093A37A09F041FF1C49042009F0B3
:1055B0003DFF04F10C0010F09DFB0420184909F098
:1055C00035FF1849042009F031FF04F1140010F0F0
:1055D000E9FB626A0420144909F028FF13490420FA
:1055E00009F024FF04F1280010F0DCFBA26B04207A
:1055F0000F4909F01BFF042094F83C200D4906B028
:10560000BDE8104009F012BFA41B0020D004040024
:10561000E1040400F504040007050400D945040072
:10562000431004003B0504004D050400750504000B
:1056300083050400A705040000B59BB00AA90DF17D
:105640001F000FF0C9F80246002864D10420BDF8FD
:105650003020334909F0EAFE04209DF83320314917
:1056600009F0E4FE04209DF932202F4909F0DEFE06
:105670009DF82830042005939DF829309DF82F20AF
:1056800004939DF82A30294903939DF82B30029307
:105690009DF82C3001939DF82D3000939DF82E300D
:1056A00009F0C4FE08A80FF091F82149042009F080
:1056B000BDFE08A810F01EFB04201E4909F0B6FE2E
:1056C00010A9012031F0D6F81B49042009F0AEFEE4
:1056D0000DF1430010F066FB159A0420174909F0FC
:1056E000A5FE10A9032031F0C5F81549042009F0E2
:1056F0009DFE0DF1430010F055FB159A0420114951
:1057000009F094FE04209DF85C200F4909F08EFEFC
:105710001BB05DF804FB04200C4909F087FEC1E7CB
:10572000D0040400E1040400F504040007050400AB
:10573000D9450400431004003B0504004D05040056
:105740007505040083050400A7050400CD050400C9
:1057500070B592B00EF07AFF30B104203A4912B021
:10576000BDE8704009F062BE384C0420384909F0A9
:105770005DFE04F110050DF12E02234603CBAB4272
:10578000106051601C4602F10802F6D1314C0DF157
:105790001E0294F83C3004F114058DF83E3004F1FB
:1057A00024062B4603CBB342106051601D4602F124
:1057B0000802F6D141F6843304202749ADF81C30A5
:1057C00009F034FE254B01AD93E80300236885E81A
:1057D000030003930023042021498DF8103009F0C1
:1057E00025FE07A81EF0E0FB024610BB04201D4961
:1057F00009F01CFE1C4B082218881C4905F0BAFA57
:1058000004237F2118461A4A05F0A7FA194A0423EF
:105810007F21012005F0A1FA28460EF0D1FA0246B8
:1058200060B90420144909F001FE04F093FD12B0A0
:1058300070BD0420114909F0F9FDDBE7042010498F
:1058400009F0F4FDF1E700BF0B060400CC1B0020BB
:1058500038060400A41B002058060400A81B0020E2
:105860008B060400AE06040058420400B01B002062
:10587000DC1B0020C81B002014070400E106040004
:1058800045070400D0E9023253F8223004201A6898
:10589000034B044983F83C20D2B209F0C7BD00BFD6
:1058A000A41B002084080400D0E9023253F82230FF
:1058B00004201A68024B03499A6309F0B7BD00BF80
:1058C000A41B0020D3080400D0E9023253F8223090
:1058D00004201A68024B03495A6209F0A7BD00BFB1
:1058E000A41B00201C090400D0E9023253F8223026
:1058F00004201A68024B0349DA70D2B209F096BD4F
:10590000A41B002064090400D0E9023253F82230BD
:10591000042093F90020024B02499A7009F086BDD9
:10592000A41B0020A0090400D0E9023253F8223061
:1059300004201A68024B03491A8092B209F076BD1E
:10594000A41B0020DA090400012313B5084C0093BE
:1059500022461023002111F06BFE0420054909F0B6
:1059600065FD204602B0BDE8104010F01BBA00BF34
:10597000CC1B0020130A0400012313B5084C00932C
:1059800022461023002111F053FE0420054909F09E
:105990004DFD204602B0BDE8104010F003BA00BF34
:1059A000B81B0020490A040010B5094C0123224607
:1059B000002111F05CFE0749042009F037FD204664
:1059C00010F098F9BDE810400420034909F02EBDFD
:1059D000B01B00207E0A04004310040010B5094CDF
:1059E00001232246002111F042FE0749042009F05C
:1059F0001DFD204610F07EF9BDE81040042003494B
:105A000009F014BDA81B0020AE0A040043100400D6
:105A1000FF2310B51A462449244808F03DFEFF2311
:105A2000234C1A462349244808F036FE04237F22DB
:105A30002221204605F088F9206800F099FB2268B1
:105A400004201E4909F0F2FC04201D4909F0EEFC77
:105A5000FF231C491A461C4808F01EFE1B4800F094
:105A6000D3FB1B4800F0D0FB1A4800F0CDFB1A49CD
:105A70001A4800F0C9FB1A4A1A491B4800F0C4FB37
:105A80001A4800F0C1FB1A4800F0BEFB00F0C4FA4F
:105A900000F0DCFA002110230846164A00F0E8FA6C
:105AA000BDE8104000F0EABAE15D0000341D0020BE
:105AB000541D0020115E0000101D0020FC0E04008B
:105AC0004310040015610000581D0020220F04003F
:105AD000580F0400890F040019000400B10F0400DE
:105AE00037000400C80F0400D10F0400EF0F0400BA
:105AF00010100400461004001FB501240DF1070228
:105B000023467F2120208DF8074005F026F9234603
:105B100002AA7F2121208DF8084005F01EF94FF4DC
:105B2000E13303AA03937F210423222005F015F912
:105B300014230DF109028DF809307F21234623201B
:105B400005F00BF93C237F21ADF80A302420022315
:105B50000DF10A0205F001F904B010BD38B50C468C
:105B600018B15B21124804F05DFF2568EC880EF047
:105B700069FD844213D02B685B88062B15D1EC7C21
:105B8000012C04D0022C0ED05CB1812038BD094913
:105B9000042009F04BFC0021284611F066FA002091
:105BA000F4E70549F4E70549F2E7C320EEE700BF53
:105BB000571004007310040090100400AE1004008D
:105BC00008B5012009F0B4FDBDE8084002460249CD
:105BD000042009F02BBC00BFCF10040008B50AF068
:105BE000C9F8BDE8084002460149042009F01EBC7E
:105BF0000311040008B50AF003F9BDE808400246A5
:105C00000149042009F012BC1A11040008B50AF079
:105C10005FFCBDE8084002460149042009F006BCCB
:105C20003211040008B527F02AFABDE80840024600
:105C30000149042009F0FABB4F11040000F0EABC4E
:105C400004F088BB08B50649042009F0EFFB0020EA
:105C50000CF012FABDE808400420014909F0E6BB47
:105C6000431004001FB5124902AC204608237F22CE
:105C7000098805F076F8012208231146CDE9004392
:105C800000204FF6FA73FEF7EBFE0A4902460420A5
:105C900009F0CCFBFF21084808F03EFD4FF47A7173
:105CA000064B1B88594323F08BFC04B010BD00BF8A
:105CB0005A42040088FD0300441C0020641C00209C
:105CC0003A4B10B5984204465FD101F070F80128B4
:105CD0000CD104F0F6FAFF21354B1860354808F076
:105CE0001BFD0021BDE8104023F06ABC204601F0F6
:105CF0005EF8002858D1FF212E4808F00DFD23F052
:105D0000D9FC2D4801F07CF904F0DBFA284B2B4933
:105D10001C68041B2246042009F088FB43F69823E4
:105D20009C4205D926490420BDE8104009F07EBBFD
:105D300042F210739C4201D92249F4E741F28833C0
:105D40009C4216D90420204909F070FB0EF07EFC1D
:105D500010B9FF211D48C2E7022825D1FFF7CCFE6C
:105D600027F08DF9FF21194808F0D6FC4FF4FA61AD
:105D7000B8E70420164909F059FB0EF067FC022829
:105D800012D1BDE810402CF087BB124B98420BD1CA
:105D900001F00DF8012801D10F49C4E7204601F0B8
:105DA00006F808B90D49BEE710BD00BFACFA030004
:105DB0000C1D0020101D0020F4FA030067110400E0
:105DC00084110400A2110400B9110400881C0020F1
:105DD000CF110400C4FA0300E4110400F61104001A
:105DE00010B5084C084801F00EF9237843B1FF21A3
:105DF000064808F091FC322123F0E2FB00232370D7
:105E000010BD00BF10110020DCFA0300341D00207B
:105E100010B504F056FA154B154C1B68C01A154BFB
:105E2000186043F6972398420FD9134801F0E8F819
:105E30004FF47A73FF211148236008F06DFC21684C
:105E4000BDE81040490823F0BBBB42F20F739842F3
:105E500003D9094801F0D7F8EAE741F287339842BD
:105E6000E3D9054801F0CFF8C823E3E70C1D002073
:105E7000301D0020081D0020F4FA0300101D002032
:105E80002DE9F041044608261025DFF86080164F02
:105E9000202314F0800FC8F870504FF001000CBFA1
:105EA000C8F870303B6706F093FB013E01203D6768
:105EB00006F08EFB640016F0FF06E4B2E8D10B4C4E
:105EC0000120256706F084FB202301203B6706F0B4
:105ED0007FFB01203D6706F07BFB25670120BDE8C5
:105EE000F04106F075BB00BF00D0035000E0035046
:105EF000F8B5202610250B4C012004F580573E678D
:105F000006F066FB04F5005401203D6706F060FBD7
:105F10000320266706F05CFB25677820BDE8F84083
:105F2000FFF7AEBF00C0035038B52025074C012055
:105F300004F500531D6706F04BFB102304F5805455
:105F40000320236706F044FB256738BD00C00350DB
:105F500010B50446FFF7CCFF0020FFF791FF204665
:105F6000FFF78EFFBDE81040FFF7DEBF10B50C460F
:105F70005038C0B2FFF7ECFF200940F01000FFF7E7
:105F8000E7FF04F00F00BDE81040FFF7E1BF10B5D8
:105F90000446FFF7ADFF4020FFF772FF2046FFF7F2
:105FA0006FFFBDE81040FFF7BFBF00002DE9F84FBD
:105FB00080460C46164600F1010A02EB03095FFA1F
:105FC0008AFA4E4501D1BDE8F88F782CFBD816F837
:105FD000015B21464046FFF7C9FF203D0D4BEDB266
:105FE00003EB0515AB4608271BF8010B013FFFF734
:105FF000CEFF17F0FF07F7D121465046FFF7B6FF57
:106000000827E85D0137FFF7C2FF102FF9D10834E8
:10601000E4B2D6E777120400042238B51146012312
:10602000022001F09BFF012304220521022001F040
:1060300095FF1924044D15F8010B013CFFF788FF6B
:1060400014F0FF04F7D138BD5E12040038B5002506
:106050000021E8B2FFF78AFF80240020013CFFF70F
:1060600096FF14F0FF04F8D10135082DF0D138BDAA
:10607000062801D8FFF79ABF704700007FB50021BE
:106080000D2202A8019133F0ECFB0EF0DBFA4FF683
:10609000FE7398424FF0000127D11023184A0220C6
:1060A000FFF784FF0EF0D0FA1649024601A814F05B
:1060B00069FD01A833F0FBFC01AAC3B20021042052
:1060C000FFF774FF0EF0BEFA0F49024601A814F064
:1060D00059FD01A833F0EBFC0021C3B201AA062050
:1060E000FFF764FF07B05DF804FB0EF0ABFA002188
:1060F000102310B90146054AD1E7054ACFE700BF92
:10610000091204003C1204004D1204001A1204008B
:106110002B12040010B5064C0648218800F096F8B2
:1061200000212288034833F09CFB0023238010BD0C
:106130006C1F0020781D0020094B10B51C880948F1
:10614000621C1A8002F048F9074BFF2118550748D6
:1061500008F0E2FABDE810400A2123F031BA00BF8E
:106160006C1F002000C00550781D0020581D002025
:10617000002370B5194688B006460422012001F0BC
:10618000EDFE012200231146104601F0E7FE012238
:10619000114B124DC3F8E4254FF00112C3F8DC2572
:1061A000142201ACC3F8CC250FCD0FC495E807002D
:1061B00084E807000A4C01A92046039602F08AF8F9
:1061C0004FF40052074BC3F880211A60E36C43F090
:1061D0000403E36408B070BD00C0035068180400F5
:1061E00000C0055000E100E070B50446054E4518BA
:1061F000AC4200D170BD304614F8011B02F0F2F839
:10620000F6E700BF00C005500FB4002130B5CDB097
:1062100050AC54F8045B4FF4947202A8019133F02F
:1062200020FB2246294601A8009433F031FE0446A3
:1062300001A833F03CFC81B201A8FFF7D5FF20464E
:106240004DB0BDE8304004B070470000034A1278FA
:1062500012B1C9B20DF00CBAFEF75EBC741F00207B
:1062600013B500240C4B0D481C700D4B1C70FFF730
:10627000CBFF1723012201930A4B114600932046BE
:106280004FF6FF73FEF7ECFB02460420064902B00E
:10629000BDE8104009F0CAB8A11B00208418040012
:1062A000741F0020A018040088FD03002DE9F043AE
:1062B00016461D4641F2490202234FF0000887B0FE
:1062C000CDE9022304460A4633460146009502A85A
:1062D000CDE90488DDF838900CF0ACFA0E4B074697
:1062E0001A68101B802811D80123C2F180021A21DC
:1062F00089F800302244304433F0B3FA4FB928789B
:10630000B0FA80F0400907B0BDE8F08389F800805A
:10631000F4E70120F7E700BF701F002008B5FFF782
:1063200063FF002008BD000030B59FB002A80CF04C
:1063300047FA06A902A80CF061FA08BB0125139AD6
:10634000134B042013491A6009F070F8124A1349DC
:106350008023134800950DF0D7F9044602461149F1
:10636000042009F063F88CB90F4B10481D70FFF73B
:106370004BFF04200E4909F059F820461FB030BDEC
:1063800004200C4909F052F80124F6E72C46F4E702
:10639000701F0020B818040061620000AD620000A8
:1063A0001D630000DE180400741F0020071904009C
:1063B000221904004F190400FEE7000008B500F0A0
:1063C0002DF8124B12498B4212D30020114B124967
:1063D0008B4218D3FDF7D2FE186850F82240586857
:1063E00040F82240013298688242F5D30C33EAE744
:1063F0000022F8E71C6844F8220001325C68A242DF
:10640000F8D30833E4E70022F8E700BF58BB0400E4
:1064100064BB040064BB040064BB04006FF00100B3
:10642000104B114A10B59A60D3F888200F4942F4F6
:106430007002C3F8882001F50052106641F2FF7027
:1064400050660220C3F8D000BFF34F8FBFF36F8FA9
:1064500008244FF440330648C0F88041D3600460FC
:106460000B6110BD00ED00E0004000000080004422
:1064700000E100E0014B1868704700BF18110020D0
:10648000014B1860704700BF18110020084B1B6FAC
:1064900003F00703022B04D0032B05D0012B05D0FA
:1064A000FEE7044B18687047034BFBE7034870474F
:1064B00000800050181100201C110020002D310117
:1064C00008B5FFF7E3FF054B1B6FC3F3013301333F
:1064D000B0FBF3F0024B186008BD00BF0080005015
:1064E000141100200048704700B4C404014B186820
:1064F000704700BF1C110020054B1860054B1B6F37
:1065000003F00703032B01D1FFF7DABF704700BF89
:106510001C11002000800050002070470048704788
:10652000002D3101174B9868C0F304400C2822D885
:10653000DFE800F0092121212121071719211B1D66
:106540001F00114870479B6803F04073B3F1807FD0
:1065500013D0B3F1007F12D00C4A002B08BF1046B5
:1065600070470B4870470B4870470B4870470B4803
:1065700070470B487047002070470A4870470A4828
:10658000704700BF0040015A405DC60000093D0051
:106590000024F400C0EA210180BA8C010048E8011F
:1065A000005A620280841E0040420F004FF40040F7
:1065B00070474FF47A707047014B1868704700BFFE
:1065C00020110020BFF34F8F0549064BCA6802F423
:1065D000E0621343CB60BFF34F8F00BFFDE700BF06
:1065E00000ED00E00400FA0500239B6AB3F5804F3C
:1065F00003D21968064A914203D0002303708360D6
:106600007047012202709A689B694260F7E700BFF9
:1066100007B0CD5E08B54FF00053024A1A60FFF78D
:10662000D1FF00BF02020FF030B50024A36A87B08B
:10663000B3F5804F054601910FD2012303A88DF8D1
:106640000C30CDE90444FFF7CFFF059B5B0504D573
:10665000A36A28461B6C0199984707B030BD00001B
:1066600073B5464B04461A781AB102221A7002B06A
:1066700070BDCDE900220028F9D001261E7001F07E
:10668000C6FB3F4D3F4B18601BF0EAF82B785BB917
:1066900000F0A4FD40B93C4808233C4A3C4900684E
:1066A00015F0F8FF00B92E703A4B5A68A2603A4ACA
:1066B0009A601A6E22605A6E62601B6E5C043DD551
:1066C000364AD368D807FCD4354B1A68531C3AD0E5
:1066D0004FF480139340334A13660423314C2366EE
:1066E0004FF48063236600F0A5FA01300BD000F070
:1066F000A1FA40F2011398421FBF4FF48043236672
:106700004FF4004323661023264C4FF0804223664B
:106710004FF400536846236601A922666366FFF7BB
:1067200083FF009B2366019B63662B78002B9ED022
:10673000164B1A6822665B68636698E71A4AD36844
:10674000D907FCD4C0E7194B1B78002BC5D1184BD7
:106750005A68144B12B94FF480121A66154A5268DF
:1067600012B94FF400121A66134B5B68002BB4D1B8
:106770004FF480020B4B1A66AFE700BF8E1F00205C
:106780008C1F0020901F00202C110020841F00204F
:10679000007108000080004455CEAC0000000440A9
