:1000000000100020C501000075010000350B000044
:100010007501000075010000750100007501000008
:1000200075010000750100004C31000075010000F1
:100030007501000094310000750100007501000099
:1000400075010000750100007501000075010000D8
:1000500075010000750100007501000075010000C8
:1000600075010000750100007501000075010000B8
:1000700075010000750100007501000075010000A8
:100080007501000075010000750100007501000098
:100090007501000075010000750100007501000088
:1000A0007501000075010000750100007501000078
:1000B0007501000075010000750100007501000068
:1000C0007501000075010000750100007501000058
:1000D0007501000075010000750100007501000048
:1000E0007501000075010000750100007501000038
:1000F0007501000075010000750100007501000028
:100100007501000075010000750100007501000017
:100110007501000075010000750100007501000007
:1001200075010000750100007501000075010000F7
:100130007501000010B5054C237833B9044B13B199
:10014000044800E000BF0123237010BD68100020A8
:1001500000000000CC32000008B5034B1BB103497E
:10016000034800E000BF08BD000000006C10002044
:10017000CC320000FEE70000064B0748DA1C121ADA
:10018000C11E22F00302994288BF0022034902F0F7
:10019000E9BE00BF6810002008100020D83200001F
:1001A000064B0748DA1C121AC11E22F003029942BC
:1001B00088BF0022002102F0E2BE00BF40130020F1
:1001C0006810002008B5084B83F30A88074B084ADB
:1001D000C3E9002200F00EF800F04AFDFFF7CCFF63
:1001E000FFF7DEFF00F0AAFC000000200010002056
:1001F000A5EDF5FE044B054A9A60D3F8882042F439
:100200007002C3F88820704700ED00E00000000095
:100210000023024A1370024A1370704784100020B2
:100220008510002038B503780546042B0C4650D0C5
:1002300008D8012B0AD0032B50D0182340F6031006
:1002400023700DE0182B49D0432BF5E7264B42785D
:100250001978D9B9012A04D0152340F60410237067
:1002600038BD1A70AB781A44FF2AF5D100228021DC
:10027000E81C01F058FE95F88320C0F30F239A4242
:1002800016D0152340F602102370E9E7174B1B78B0
:10029000934204D1062340F606102370E0E70133B1
:1002A000DBB29342DED0152340F605102370D7E76A
:1002B00095F88430C0B2834204D0152340F6011073
:1002C0002370CDE76A78094B00201A70062323704B
:1002D000C6E7062340F607100B70C1E7182340F667
:1002E00008102370BCE700BF851000208410002098
:1002F00000F01AB800F01AB80149024800F060B8DE
:10030000A82F000088100020704710B5044600F0A8
:100310004DFF182C07D1204600F048FF2046BDE8CD
:10032000104000F043BF10BD00F058BE10B5B4B08F
:100330005F22204901A802F015FE6C221E4919A86F
:1003400002F010FE00F0A0FB0A22C0F30363092BA9
:100350008CBF373330338DF82630C0F30343B3FB03
:10036000F2F102FB113300F00F0030338DF8293029
:10037000B0FBF2F302FB130001F13004303003F163
:1003800030018DF82B108DF82C00012236210B48FE
:100390008DF8284000F0D2FE01225F2101A800F074
:1003A000CDFE01226C2119A800F0C8FE002034B057
:1003B00010BD00BFB82F00001730000099300000BA
:1003C0002DE9F04F0024ADF5277D4FF494720646D9
:1003D00088465CA821468DF8134002F0D0FD2146E6
:1003E000682206A802F0CBFD2146682220A802F070
:1003F000C6FD3C2700F092FD01244FF0FF35DFF8E9
:100400003893DFF838A3DFF838B3062CFDD8DFE8DF
:1004100014F00B000F00200043005D005D01BF00E1
:100420000424F2E70446F0E7FFF780FF0124ECE73D
:100430004FF47A7105A800F043FF40B99DF81430DD
:10044000313BDBB2022B8EBF0446B54AD45C3C275D
:10045000DBE701221121B34800F070FE2C220021BD
:10046000304602F08CFD202320AA06A95CA801F0EA
:10047000EBF80024FF23012105207370748000F045
:100480006DFD00F0A7FE18B10121204600F022FF0B
:10049000FFF7BEFE0324B8E74320FFF736FF002135
:1004A0004FF47A7000F05AFD00F094FE18B900F095
:1004B0007BFD0028F8D000F08DFE0028B0D1013F70
:1004C000A3D11820FFF721FF00249EE700218522F9
:1004D0000DF1E90002F053FD002140F6B83000F0C4
:1004E0003DFD00F077FE78B34FF47A73009301235B
:1004F00005AA19460DF1E90000F090FE9DF8E930DB
:10050000012B0DD140F6B832842100920DF1EA00A2
:1005100005AA00F083FE059B0546842B18D1C8B9B7
:100520000DF113010DF1E900FFF77CFE40F6071312
:100530009842054614D1B3780BB1F37813B9182358
:100540008DF8133006241DE000F02EFD0028C8D0E1
:1005500040F2047515208DF81300FFF7D6FE54E71E
:1005600080B99DF8E930012B0CD180233146CDF8BC
:1005700000803BAA5CA801F0A3F8054610B118233F
:100580008DF813309DF81300182808BF0624E4E7FF
:100590000121002000F09EFE01210A2000F0DEFC77
:1005A0009DF813300122062B13D140F607139D420C
:1005B0000FD103215C4800F0C1FD01221B215B48E3
:1005C00000F0BCFD01223621594800F0B7FD05249A
:1005D0001BE71A21504600F0B1FDA5F51063B3F5F5
:1005E000E06F4FF0010222D21121524800F0A6FD27
:1005F00040F606139D4222DD9DF813309F2B4FEAF3
:1006000013108CBF3730303000F0D0FD9DF8130050
:1006100000F00F0009288CBF3730303000F0C6FDE5
:100620000D2000F0C3FD0A2000F0C0FD4CE71021B2
:10063000584600F083FD40F606139D420BDCB5F5ED
:10064000106FD9DDA5F60213042B2BD8DFE803F0D9
:100650002C24282E3000A5F58053013B092BCBD844
:10066000A5F58053013B092BC6D801A252F823F00F
:10067000C5060000F9050000F9050000C9060000E4
:10068000B9060000C1060000C5060000BD06000056
:10069000B5060000C506000021238DF81330ABE736
:1006A0002223FAE72323F8E72423F6E72523F4E7B8
:1006B0002723F2E74123F0E74323EEE74423ECE767
:1006C0004523EAE74F23E8E75023E6E7B378002B1A
:1006D0003DD0F378002B3AD0337813F004040AD0DD
:1006E000B06A00F0F7F900283FF49CAE4FF40040E8
:1006F00000F09AF9E8E69B0724D57368039300F0AD
:10070000C3F9039B834204D94FF40040716A00F09F
:1007100049F901221321484600F010FD75E600BF9B
:100720008330000017310000DF300000FC30000093
:10073000993000002831000086300000E2300000CF
:10074000CF30000040F2012000F0A0FBE1E740F2D2
:10075000032000F09BFBB7E64FF098435A6CD2029F
:10076000FCD5586D00F470207047C0F30C032DE9E0
:10077000F04105460F4616460BB900F0B0FB05F5F3
:10078000005424F4FF5424F01F0405EB0608A04590
:1007900007D8324639462846BDE8F041022300F02A
:1007A000A5BB204600F09BFB04F50054EFE770B4B6
:1007B0000025AD6A03462E69864206D86C6913444B
:1007C0009C4202D370BCFFF7D0BF70BC70471FB50E
:1007D00010F5004F00F50043144603931AD2039B13
:1007E000B3F53E2F16D2039BC3F53E23934211D39C
:1007F00048B9836A5A69B2F5004F04D91869019162
:1008000000F06DFB01992246039804B0BDE810404A
:10081000FFF7ABBF04B010BDF0B5421ED11C0346BC
:1008200085B019D86E460D4C04F110073546206886
:100830006168083403C5BC422E46F7D10DF10F01A3
:100840000F3311F8010912F8014F844204D19A4282
:10085000F7D1012005B0F0BD0020FBE739310000E1
:10086000036913F0FE0F0CBF01200020704738B55C
:1008700004460D46FFF7D0FF48B16369012B09D14B
:100880002046FFF7EDFF08B1A3692B6038BD0120BA
:100890002C60FBE70020F9E72DE9F04103680446EE
:1008A00003F16043B3F5803F4FF00000A0B029D8BA
:1008B000826A636816699E4224D8B3F5402F21D816
:1008C000656B06F14003AB4268D8B5F5402F65D89B
:1008D0002846FFF7A1FF002860D02846FFF7C0FF99
:1008E00080B16B6973B1022B0FD1AB69C4F1040104
:1008F00019444FF0FF32204601F022FB284BC31A67
:100900005842584120B0BDE8F08140F204632846C7
:100910000493FFF781FF08B90020F3E72846FFF7AB
:100920009FFF0028F8D00027D7F834804046FFF713
:1009300073FF0028F0D0503EB045EDD8284605A9F9
:10094000FFF795FF0028E7D0BA6A059B12699A4223
:10095000E2D89C42E0D8B3F5402FDDD806A801F0DC
:10096000B1FB059A2146121B06A801F0B5FB06A8AB
:1009700001F0B4FB059C01F0B5FB039001F0CAFB4C
:1009800021460090039B04F1200206A801F020FB01
:1009900004900498B0FA80F04009B3E70120B1E771
:1009A000E320BBDE70B54FF0FF3290B005460C4639
:1009B00001F0C6FA194B98422DD11C22002101A842
:1009C00002F0DDFA164B29466846009302F0C3F8A0
:1009D0002146684602F0BFF8684602F0C5F8FFF706
:1009E000BBFE0646B8B940F2022000F02AFA1C22EB
:1009F000314609A802F0C3FA0A4B294608A8089311
:100A000002F0A9F808A8214602F0A5F808A802F00B
:100A1000ABF8FFF7A1FE002010B070BDE320BBDEF5
:100A2000010005430100064330B5044691B01C2285
:100A3000002101A802F0A3FA114B21466846009359
:100A400002F089F8684602F08FF8FFF785FE054648
:100A500098B940F2022000F0F4F91C22294609A8B6
:100A600002F08DFA074B08A82146089302F073F8AC
:100A700008A802F079F8FFF76FFE002011B030BD32
:100A8000000002430000034300239B6A98687047FC
:100A900010B58CB01C220446002105A802F06FFAA4
:100AA0000A4B0194049301230293094B01A904A862
:100AB000039302F046F804A802F056F8FFF74CFE44
:100AC000B0FA80F040090CB010BD00BF0000084330
:100AD000040000204FF0FF3313B5044601A8019332
:100AE000FFF7D6FF20B1019BA3422CBF00200120BD
:100AF00002B010BD4FF40040704701F08FBE01F00E
:100B0000F9BE000038B50C46054680B179B1002326
:100B10000B60074B036001F0C7FE01301EBF2B685E
:100B200043F440432B60236843F40053236038BDF3
:100B3000142400404FF4017000F0A8B913B501A8C7
:100B400002F056F89DF80530012B27D1404A936DED
:100B5000DB0313D4536B23F4FF0323F4FE4343F46A
:100B6000BC1343F4A0635363136B23F4704343F447
:100B700040431363136B43F4E06313639DF8043045
:100B800063B94FF000531B68324B1B68324B1B6834
:100B9000324B1B68324B1B68324B1B68324AD2F80F
:100BA000803043F00303C2F88030FFF7A6FF00F067
:100BB0003CF908B900F027F901F04FFC70BB00F0D8
:100BC00034F908B100F02BF940F2012000F05EF991
:100BD000FFF78EFBFFF78EFB18B14FF4017000F0AA
:100BE00055F9FFF789FB0446FFF78EFB1CB140F275
:100BF00003739C4203D140F2012000F047F9A4F2B4
:100C00000573012B03D940F205439C421CD140F2ED
:100C1000032000F03BF9002002B010BD00F005F900
:100C200008B900F0F6F800F017F9012802D900F031
:100C3000EAF8FEE700F01AF90C4B0193019B002B38
:100C4000C6DD019B013BF8E74FF40170E1E700BF0F
:100C500000C00040004000200080002000C00020B4
:100C600000000120004001200080004000350C0001
:100C700013B501244FF040238DF806408DF807404E
:100C8000D3F894305B060BD500F014F9A0F20220E3
:100C900080B2072804D804FA00F010F0C90F02D17E
:100CA00000F07AFB20B100238DF806308DF8073074
:100CB0004FF480435B68013308D14FF4027000F0B9
:100CC000C0F800238DF806308DF807309DF8073006
:100CD00063B14FF48040FFF7DFFD8DF806009DF80B
:100CE00006301BB94FF4027000F0ABF89DF80630E7
:100CF0008BB100F09AF808B100F091F84FF48043FE
:100D0000064A93601846016881F3088881F30988D0
:100D100040688746FEE702B010BD00BF00ED00E06E
:100D2000B1F50D7F10B504460FD34FF40D720021BD
:100D300002F025F904F5DE7204F5AA7104F12C0025
:100D40000023BDE8104000F07FBC40F2052010BD3C
:100D500013B50446009101462C3000F0B1FCC4F8F4
:100D6000300218B141F20703984209D1A3784BB180
:100D700040F2032040F20223E278002A08BF18461E
:100D800002B010BD40F20120FAE72DE9F04387B030
:100D90000DF1080904460E46174600211022484668
:100DA0001D46DDF8388002F0EAF800211C22C8F860
:100DB0000010284602F0E3F832463B462146CDF8C3
:100DC000009004F12C0000F07BFC23789A0744BFCC
:100DD0006268C8F80020DB0709D504F1080304F1B4
:100DE000240253F8041B934245F8041BF9D12378DD
:100DF00040F20640002B18BF002007B0BDE8F0838A
:100E00004FF40D7070474FF000534CF23C325A8053
:100E100070474FF000534AF6C0325A8070474FF087
:100E200000534FF20F025A8070474FF000534AF6BA
:100E3000C0305B8823F00F039BB21B1A5842584105
:100E400070474FF0005208B51080FFF7EEFF10B961
:100E50004FF20F03538008BD08B5FFF7E6FF20B13E
:100E60004FF00053588800F00F0008BD08B5FFF799
:100E7000DCFF50B14FF00052538803F00F010F29EF
:100E800014BF013323F00F03538008BD08B5FFF7EB
:100E9000D8FFBFF34F8F0549054BCA6802F4E062E3
:100EA0001343CB60BFF34F8F00BFFDE700ED00E0C1
:100EB0000400FA054FF000534FF20F015A888A429E
:100EC00001D1188870473AB91B8840F20220012BE3
:100ED00018BF4FF4007070474FF40070704708B5AA
:100EE00001F08EFDB0FA80F0400908BD072B10B567
:100EF000044618460FD862B142EA04039B070AD1A0
:100F000013460A46214601F09FFDB0FA80F04009E1
:100F100010BD0120FCE70020FAE700001FB500F03B
:100F2000F7F94FF47A23B0FBF3F00A4B0E22186066
:100F30000021684602F023F801238DF8003040F2CA
:100F4000FF3369460448ADF8023001F066FE05B093
:100F50005DF804FBB81000200080044030B50D4D52
:100F60000D4A2D68536A15FB00F010FA83F09CB20D
:100F700080B2A0422CBF00240124084B1880084BEB
:100F80001C7011B1536A8342FCD1012305494B61A6
:100F9000936130BDB810002000800440B4100020E0
:100FA000B610002000A00440094B0A4A5869127884
:100FB00000F001000AB108B9704738B9586A064B09
:100FC0001B88984234BF00200120704701207047E1
:100FD00000800440B6100020B41000202DE9F0413C
:100FE0000125DFF82881414BD8F80020404F02F15D
:100FF0003C01996002F124037B627B6002F580531F
:101000005D6040F6AA630024536141F20503394E46
:10101000394802F500519460D465D3601461D461FD
:10102000D4648864C6F8CC45C6F8E445C6F8DC4507
:10103000C6F8D445C6F8D845D3609368936000F0ED
:1010400067F92E4B4FF4E1121B6F2146C3F3802347
:101050002B44B0FBF3F303F5E1435B01B3FBF2F385
:10106000274A203B02EAC303D8F800202846D36170
:101070002B46042201F058FC2B462A4629462846D6
:1010800001F052FC14230422C6F8CC354FF00113B2
:101090001146C6F8E4552846C6F8DC352B4601F063
:1010A00043FC0522D8F800304FF4A0215A614FF0DC
:1010B000F053144A55609360134B54629463146464
:1010C0005465196002311466D465176759600321AD
:1010D000A3F50053C2F89040C2F88C405963022334
:1010E000956402F580521361BDE8F081481000203C
:1010F0000810002000C00340FFFF010000800040F6
:10110000F8FF7F0000000440004004405810002019
:10111000084B586B10F0020006D002229A6203F5C9
:10112000005301205A637047DB6A9B07FBD40222FD
:10113000014BF6E700000440002004407F2938B549
:101140000446154624D8FFF7E3FF20B32046134B8F
:10115000621890420DD1124B01391A8861F30E12B8
:101160001A80104AC2F8A0300223936435B90020D7
:1011700038BD10F8014B03F8014BEAE7FFF7C8FF51
:101180000028FBD0084B1A6893699B06FCD5EEE754
:1011900041F20310ECE741F20620E9E7C01200201B
:1011A000481000200000044058100020014608B5F7
:1011B000FFF7AEFF0028FBD0054B1B689A6950066D
:1011C000FCD5D9639A699206FCD5002008BD00BF02
:1011D000581000200E4BD86E40F2011398420FD0E9
:1011E00040F2022398420DD00A4BC01A0A4B1B68EA
:1011F00083420AD02ABFC3F50073C01AC0187047D3
:101200000020F3E74FF48070F0E70020704700BF44
:1012100000000440BC100020BC1200202DE9F8435F
:10122000089F04460D461646F3B9FFF7D3FFA842C0
:1012300028BF284600214FF001084FF002091D4A3F
:10124000DFF878E013681C4F04EB000C64451DD1F7
:1012500001B1136006B1306041F20423A84234BFEB
:1012600018460020BDE8F8832FB1FFF757FE002194
:101270003846FFF773FEFFF7ADFFA842D5D2002F27
:10128000F9D0FFF791FE0028F5D0CEE71EF8031045
:101290000133B3F5007F04F8011B04D10023C7F824
:1012A00010900121D2E7B3F5807F08BFC7F8108006
:1012B000F7E700BFBC12002000100440BC10002063
:1012C000012307B5002200911946FFF7A7FF03B0DD
:1012D0005DF804FB10B10222094B9A6271B1012240
:1012E0000020074B07499A624A6307491967074973
:1012F00008609A64022203F580531A610020704747
:10130000000004400020044008100020BC1200200F
:1013100030B51A4B87B001AA03F1100514461868BE
:101320005968083303C4AB422246F7D11B782370B7
:10133000134B1B6F03F00703032B1BD0114A936859
:10134000C3F30443102B17D818336B4413F8143C21
:101350000D480E4943438B4203D19268C2F30162A8
:10136000D340074A106FC0F301300130B3FBF0F0F7
:1013700007B030BD064BF4E7064BF2E7E43100005E
:10138000008000400000014040420F0000093D0085
:1013900000F04902C0EA210113B502210123042211
:1013A000084601F0C1FA00230093009B632B19DD6E
:1013B000022201231146104601F0B6FA00230193E0
:1013C000019BB3F5FA7F10DB0221094B08465C6FE5
:1013D0000022012301F0A8FA6FEA940000F0010056
:1013E00002B010BD009B0133DEE7019B0133E6E74D
:1013F00000C00340002070470020704770B5D1E95D
:101400000152AA4205D290F840302B449B1A402B3F
:1014100010D9002012E00A6890F84040D65C90F89D
:1014200041200133224402F03F02013486548B6094
:1014300080F840408B689D42EDD8012070BD2DE9B9
:10144000F8431D461746D1E901329B1A90F8402017
:10145000044613449D420E469DF820909DF824803A
:1014600056D9FFF7CBFF00285CD1142341F20200CC
:1014700084F84630BDE8F88394F84120A25CFA5421
:1014800094F841200133013202F03F0284F84120F8
:1014900094F84020013A84F8402094F840200AB1A2
:1014A0009D42E9D1D6E90121914201D29D4231D834
:1014B0009D42DAD129463846D4F8882000F040FD14
:1014C000C4F88800B9F1000F04D02A463946E06C10
:1014D00000F002FEB8F1000F08D094F843308BB151
:1014E0002B463A463946A06C00F061FD94F8433033
:1014F00043B1E36DA26D2B449342E36524BF002307
:1015000084F84330636D41F203002B446365B1E717
:101510000023C2E73268525CFA54B26801330132E8
:10152000B260BFE70020A5E77FB50023CDE9003317
:10153000082315460DEB03020446FFF780FF41F236
:1015400003039842064626D194F8433063B108223B
:10155000E06C0DEB020100F0BFFD08230DEB030270
:101560001146A06C00F023FD039A029B6A6094F878
:1015700043202B605AB9094A934208D0084A934243
:1015800005D00822E06C0DEB020100F0A5FD6B68B0
:10159000236500236365304604B070BDF70A0AF77F
:1015A000FC0404FC2DE9F743044658680E46174630
:1015B0009846002842D011F0030342D19B6A206E66
:1015C0001B6902EB000C1D1D65451CD81C3398429D
:1015D00019D28542294638BF01469C4594BFC1EBCC
:1015E0000C02C1EB0302081AC5F1680506EB0009FD
:1015F000681820444946019201F0B4FCFF21484696
:10160000019A01F0BCFC48F20403226E9A420BD806
:1016100048F20701B818884206D99B1AF258C4F854
:1016200080204FF0FF32F2503A46D8E90035206E64
:101630003146A8470020226E3A44226603B0BDE836
:10164000F08341F20200F9E72DE9F04100254FF067
:10165000FF3704468846164603F0200380F84230E0
:101660001822FF21C0E91855A0F8405080F84350D7
:10167000A0F8445080F84650C0F88870683001F0F7
:101680007EFC88222946C4E91286C4F88070C4F81A
:10169000847004F1900001F072FC40F20113A4F890
:1016A00024310123C4E9475784F8185184F82631BE
:1016B00016B1304600F006FD0020BDE8F0810000C4
:1016C0002DE9F04FA7B0CDE9132302930023044680
:1016D0000E46309DDFF8B4931593159A029B9A42FB
:1016E00001D30020C7E094F84630142BF6D8DFE889
:1016F00013F06700AE00A800520039002E0050021F
:1017000039004802390002023900480297030504F3
:1017100015008C013E033E03D00205044FF0000883
:10172000636D0F2B00F291800127102316AA20462B
:10173000CDF80480009713A9FFF781FE41F203035F
:101740000990099A9A4200F05281099B44E00127CE
:10175000D4E91432934200F25E8184F8467041F27B
:10176000030339E04FF00108D4E91437BB426CD9C8
:10177000DB1BDDE91472BF1A94F84020032B1744D9
:1017800040F20B82032F00F20B82204613A9FFF7D1
:1017900035FE002320E00127636D072BDFD80823E7
:1017A00016AA2046CDE9007713A9FFF748FE41F2BB
:1017B00003030C900C9A9A4200F0B2810C9B0BE050
:1017C00016AA204613A9FFF7AFFE41F203020690C6
:1017D000069B934202D0069B059345E0179A169903
:1017E0002265002262659E4A914240F0A481022255
:1017F00084F84620F0E7012316AA00932046082328
:10180000019713A9FFF71BFE41F203030790079A04
:101810009A4201D0079BDFE7169B03F07F43B3F1A9
:10182000407F05D0142384F8463041F20903D3E702
:10183000179BD80706D594F8423043F0010384F88B
:1018400042300027636D072BD5D901239EE1204646
:1018500016AA13A9FFF768FE41F203030890089F38
:101860009F420BD0089F059741F20303059A9A42C5
:101870003FF433AF059827B0BDE8F08F94F84420CB
:10188000169B2AB1774A934240F087800D2336E0B9
:1018900094F84220D10741D594F84320002A3DD145
:1018A00071498B4233D022D8704A934275D014D8F4
:1018B0006F4A934200F0888004D8694A93426CD002
:1018C0004B456AD0142316A884F84630FFF792FDE2
:1018D000002865D141F20807C5E7664A934279D0EE
:1018E000F0D8654A934258D0644A9342E9E75D4A8A
:1018F0009342CBD006D8624A9342E3D10F2384F8B7
:101900004630B0E75F4A934247D05F4AEDE7102385
:1019100084F84630236DC4E91632A4E7574A93424F
:101920004AD02BD8514A934244D022D84B453FD07D
:101930004F4A934244D016A8FFF75CFD00284BD0D5
:101940001323169884F84630C4F88C00FFF754FD32
:1019500094F842309A0686D5002884D04368002B3C
:1019600081D0204698470890089B002B3FF47BAF1E
:1019700016E0414A9342DED10323C0E7414A934235
:101980001CD010D83B4A934220D0364A9342D2D141
:1019900094F84330002B3FF479AF142384F8463099
:1019A00041F201075FE7384A9342C4D10823A6E712
:1019B0000A23A4E70523A2E70623A0E70C239EE75A
:1019C00094F84330002BE8D1112398E794F8433082
:1019D000002BE2D1122392E7142384F8463094F8C6
:1019E0004330002B3FF476AF41F204073BE7D4F8D5
:1019F00048A000F0A7FB80230221CDE9000317AA2D
:101A00003B46504600F0B0FA8AE6012384F84330A2
:101A100084F8463061E616AA2046CDE9007713A97E
:101A2000FFF70DFD41F203030A900A9A9A4201D092
:101A30000A9BD1E60DF1580C06F108030DF1700E6A
:101A4000624603CA724518605960944603F1080360
:101A5000F6D110681860337843F00103337077E6ED
:101A6000EB17A603FC0404FCF90707F9F40A0AF4CF
:101A7000F30B0BF3F70A0AF7F50909F5F60808F670
:101A8000FA0606FAFD0303FDFE0101FEEB17A65E52
:101A9000337843F004033370199BB36273785B07A8
:101AA00026D5EB238DF8583017238DF85930A6230F
:101AB0008DF85A305E2300208DF85B30236D606610
:101AC000C4F8843094F8453043F0020384F845307C
:101AD000EF686FB104222B6816A9B8470822606E20
:101AE0002B68EF6818A91044B847636E103363661B
:101AF0000B2384F84630636D072B3FF630AE01238D
:101B000018AACDE900332046082313A9FFF797FC54
:101B100041F203030B900B9A9A42B9D00B9B5BE600
:101B20003378179A43F002033370169B7360236D6A
:101B3000083B73622AB1142384F8463041F2010352
:101B40004AE6042384F8463094F84530626643F050
:101B5000010384F845301FE6042316AA2046CDE988
:101B6000007713A9FFF76BFC41F203030D900D9A68
:101B70009A4201D00D9B2FE6236D042B02D9169BB0
:101B800023660127636D032BE6D9092384F84630C9
:101B9000E5E50023636607233AE79F42FFF4F5ADCE
:101BA000402B28BF40239F4228BF1F46032F88BFDA
:101BB00027F003073B4616AA2046CDE9008813A963
:101BC000FFF73DFC41F203030E900E9A9A4201D0BA
:101BD0000E9B01E694F846B0BBF1070F04D1D5F88F
:101BE00008A0BAF1000F1BD1042FC7F1040A88BF67
:101BF0004FF0000A16AB5246FF21D81901F0BFF989
:101C0000BBF1090FBA4414D12B465246204616A9FF
:101C1000FFF7C8FC0E900E9B002B3FF4A5ADD7E755
:101C20003A462B68606E16A9D047626E3A446266E7
:101C30009AE5BBF1040F20D173789F077FF594AD2F
:101C4000EB68002B3FF490AD626E042A0BD80AEBD0
:101C50000203062B07D917AB9B1A1A68C4F8842015
:101C60004FF0FF321A60EF6852462B68606E16A97B
:101C7000B847676E5744676676E5BBF10B0F7FF494
:101C800073AD737858077FF56FADEF68002FEBD118
:101C90006AE594F8427017F0200707D0D4F88C005A
:101CA000FFF7AAFB074600283FF448AF4FF0010AB0
:101CB00042E04BB347B33B6933B320469847DDE975
:101CC000143294F840809B1A43448342FFF45DAD84
:101CD000D4E91421A2EB0108B8F1400F28BF4FF05E
:101CE0004008984528BF984616AA43462046CDE9A5
:101CF00000AA13A9FFF7A3FB41F203030F900F9A69
:101D00009A4203D00F9B67E50120D8E794F8423050
:101D1000990611D5002F3FF411AFD7F808B0BBF1E9
:101D2000000F3FF40BAF2B464246204616A9D8477A
:101D30000F900F9B002BE5D1D4E9142194F8423089
:101D4000914203F02003B4D3002B3FF47EAD002F6B
:101D50003FF47BADFB68002B3FF477AD294620466E
:101D600098470F900F9B002B3FF46FADCAE70021FF
:101D70008A6A496B1269503A91423FF6DFAE112BE5
:101D80000FD194F81831002B7FF45FAD41F20603B8
:101D90001093109A9A4202D1142384F84630109B73
:101DA0001AE594F84430002B7FF44FADCDE90033B1
:101DB00016AA4023204613A9FFF741FB41F2030373
:101DC0001090109A9A42EAD1E06C00F087F994F8EA
:101DD0001831A3B104F1B403E06C00931EAA04F11E
:101DE000940316A900F0F4F81090109B9BB1002307
:101DF000F370142384F8463041F20603ECE4E76CF8
:101E000000F070F9039000F085F9039B00901EAA82
:101E1000384616A9E6E70123F37084F8443014E548
:101E2000002316AACDE900332046042313A9FFF7A7
:101E300006FB41F203031190119A9A4202D0119BC2
:101E4000059317E5D4F888202E4B9A4205D0142329
:101E500084F8463041F20503F2E70123F37094F869
:101E60004530DA0707D5EF682FB104222B681046FA
:101E700004F18401B84794F845309B0707D5EF6813
:101E80002FB104222B68104604F18401B847236E59
:101E90006BB36F685FB34FF0FF3304F1800104222E
:101EA00012A81293029101F04DF828B1042248F2D1
:101EB00004002B680299B84704F1680904224946D6
:101EC00012A801F03FF890B100239B6A1422D3F8C6
:101ED000108004F16C0108F10800D5E90037B8471B
:101EE000D5E900370422494608EB0200B847012330
:101EF000B3700E2384F846300023A1E741F20700B7
:101F0000B9E400BFE320BBDE49BA89B24840C0F360
:101F10000313584003B283EA0033580100F4FF5022
:101F20009BB25840704738B5044645181046AC423D
:101F300000D138BD014614F8010BFFF7E5FFF6E7C5
:101F400030B501240025074B01445C609D601A6197
:101F5000DC60884201D1586A30BD10F8012B1A624A
:101F6000F7E700BF00800840F7B50446203016466A
:101F70001D460F46019000F0A1FEDDE90812019810
:101F800000F0A0FE002384F8587063643368C4F83E
:101F900059307368C4F85D30B368C4F861302B0CF5
:101FA0006DBA84F86530A4F8665003B0F0BD1FB573
:101FB0000C46194600F14803CDE90142009300F1B7
:101FC000440200F15803203000F0F8FE04B010BDC8
:101FD0002DE9F04399B00E4615461C460746DDF83C
:101FE0008090002861D000295FD0002A5DD0002BAE
:101FF00058D02F4B2F4AB9F1000F14BF9846904686
:102000001C22002111A800F0BAFF2B4B414610A85A
:10201000109300F0A0FD202110A800F09CFD0122EB
:10202000264B019402920393CDF8109005920693EB
:1020300054B1B9F1000F07D001A910A800F077FD45
:1020400004A910A800F073FD079701271B4C07A9EE
:1020500010A80897099400F06AFD0AA910A80A962A
:102060000B970C940D950E970F9400F060FD0DA941
:1020700010A800F05CFD10A800F076FD104B009356
:102080004FF098435A6CD202FCD55B6D40F204606D
:1020900003F470230093009B002B08BF002019B0AD
:1020A000BDE8F083DFF80C80AAE740F20160F6E7B4
:1020B0001F2400801F24FC84000001062000002053
:1020C0007856341210B5044600F0F4F82046BDE806
:1020D0001040002100F0F2B800F0F5B8014600F021
:1020E000FFB8000000B591B00023402269464FF4CC
:1020F000807000F057FDB0F5A02F07D0B0F5302F5D
:10210000034818BF002011B05DF804FB0048FAE74F
:102110004CE30B0000B591B00023402269464FF418
:10212000807000F03FFDB0F5A02F07D0B0F5302F44
:10213000034818BF002011B05DF804FB0048FAE71F
:102140006CE30B000048704786E20B002DE9F34773
:1021500099460A9B0C46196805463F29164642D8FF
:102160005A68002A41D0224A002E14BFB046904639
:1021700001F03F07091928BF5A68196024BF0132CE
:102180005A60AFB1C7F1400AA24521D8294652464C
:1021900009EB070000F0E6FE0123414600934A46A2
:1021A0003346002000F0A4F8B046403C55443C447F
:1021B0003F2C0CD9A3092A46009341463346002000
:1021C00000F096F824F03F031D4404F03F0400277C
:1021D0002CB12246294609EB070000F0C3FE00207F
:1021E00002B0BDE8F0879046C2E7DFF80480BFE7A1
:1021F000F531000030B40546084611461A46DDE9BF
:10220000023425B931B1029430BCFFF79FBF0248B8
:1022100030BC70470846FBE780AFFFFF2DE9F04177
:102220001746146886B01E46E3008DF80F30630928
:1022300052688DF80E30630B8DF80D30630D8DF8FC
:102240000C30D30003EB54738DF80B3004F03F04D3
:102250005309372C8DF80A304FEA52334FEA525265
:1022600005468DF80820884694BFC4F13802C4F1B1
:102270007802CDE900178DF809300D49034600209A
:10228000FFF7B8FF082143462A4600970DEB0100EF
:10229000FFF75CFF284605F1200350F8042B984215
:1022A00046F8042BF9D1002006B0BDE8F08100BF4C
:1022B000153200006822002100F061BE0023C0E951
:1022C00000331846704707B500F1280301900093CA
:1022D00000F108030020FFF78DFF03B05DF804FB59
:1022E00002460B4600F128010830FFF797BF0000B7
:1022F000F0B593B00E4617460446202200210AA8E6
:102300001D4600F03CFE01204FF000520197029064
:102310000392049605900692079508900992002C66
:102320002FD1189C184BA40121460AA80A9300F04B
:1023300012FC03990AA80C430394069B04A943F0DA
:1023400020030693099B43F02003099300F0EFFB61
:1023500001A90AA800F0EBFB07A90AA800F0F1FB0D
:102360000AA800F001FC4FF098435A6CD202FCD549
:102370005B6D13F4702F0CBF00206FF06F0013B073
:10238000F0BD6FF07100FAE70004010310B50024FE
:102390004A1EA1424FEA82024FF0FF0108BF2246C7
:1023A00040F8044B00F0EBFD204610BD036840F2FE
:1023B00004500133022B38BF0020704740F2025016
:1023C000704710B5ADF50E7D4FF40D72002001A9D8
:1023D00000F086F940F20124002101A800F0B8F8CD
:1023E000A042F9D040F20323984220D19DF8043056
:1023F00059070CD49DF804309A071DD4DB0716D575
:1024000004998A9800F0DEF988B1002011E00B9859
:10241000FEF760FB0028EDD08A9800F091F90028C3
:10242000E8D04FF40040FEF7FFFA0028E2D140F276
:1024300005400DF50E7D10BD0022926A029992684A
:102440009142DBD98A9800F099F90028EFD00A99D7
:102450004FF40040FEF7A6FAE9E7FFF7B2BF00002D
:1024600031B10A4B5A68824205D80023C1E90033D2
:1024700040F201407047013053F8302003EBC000B8
:1024800043680A6000204B60704700BFBC32000008
:1024900001221A707047000070B40C4611460C4AB5
:1024A000556885420DD9013002EBC0067668E51803
:1024B000B5420AD852F830001A46204470BC00F0E9
:1024C000B7B940F2014070BC704740F20240FAE7F1
:1024D000BC32000030B5CA681B4B04469A420D4618
:1024E000A3B019D1FEF706FBD4F82432174A013302
:1024F00052F83330D4F82C221344984208D3803356
:10250000984209D241F20D03C4F8303223B030BDF5
:1025100000F540409842F5D88023D4F82C1202AA46
:10252000D4F82402FFF7B8FF80232146009502AAC1
:1025300004F12C00FFF7C4F8D4F82C32C4F83002B0
:102540008033C4F82C32E1E7CF070000BC32000032
:102550001FB50023CDE90033CDE90213D0F83032A6
:10256000044693B9D0E98A329A420ED26946FFF7FF
:10257000B1FFD4F8300298B141F2070240F20123D2
:10258000904208BF184604B010BDA3785BB140F27A
:10259000022040F20323E278002A18BF1846F2E72F
:1025A00040F20120EFE740F20220ECE770B50D4663
:1025B000002186B00DF1070302931F4B0446164617
:1025C000116028461C22CDE903338DF807100593CE
:1025D00000F0D5FC94F87230132B28D0D4F83032A8
:1025E0002BBBD4E98A21914207D2204602A9FFF7EA
:1025F00071FF9DF80730002BECD02278910744BF83
:1026000061683160D20709D504F1080204F12401A0
:1026100052F8040B8A4245F8040BF9D14BB92378E0
:1026200040F20640002B18BF002006B070BD00230A
:10263000E3E70020F9E700BF9124000070B40C46E6
:1026400011460C4A556885420DD9013002EBC0068F
:102650007668E518B5420AD852F830001A46204488
:1026600070BC00F0FBB840F2014070BC704740F213
:102670000240FAE7BC320000074B5A68824207D991
:10268000013003EBC002516853F8300000F00EB97E
:1026900040F20140704700BFBC32000070B50546F3
:1026A00088B0C0B14FF4403200236C46C0E900232B
:1026B0000A4B05F114061A785B680272C36068461B
:1026C00000F09EF80FCC0FC694E80F0086E80F00CC
:1026D00005F114032B6108B070BD00BFBC320000CF
:1026E00037B50C46054611462046FEF719FB48B99A
:1026F00069462846FFF7B4FE20B9019BC4F824526E
:10270000C4F8283203B030BD38B500F5DE72044697
:102710000D46202300F5AA712C30FEF795FFD4F862
:1027200030321BB9D4E98A329A4203D3A07800B17F
:10273000E07838BD29462046FFF7CCFEEFE70000E1
:1027400000B5ADF5137D4FF40D7205A9FFF7C8FF75
:1027500078B904238DF81530074BCDE901000390BB
:1027600001A905A80493FFF7CFFF0DF5137D5DF8D0
:1027700004FB0020F9E700BFCF070000002300B5ED
:102780009B6AADF5137D9B688B4204D300200DF549
:10279000137D5DF804FB4FF40D7205A9FFF7A0FF50
:1027A0000028F3D102238DF81530054BCDE9010047
:1027B000039001A905A80493FFF7A6FFE7E700BF70
:1027C000CF07000000B5ADF5137D4FF40D7205A9DC
:1027D000FFF786FF78B901238DF81530074B01907C
:1027E000CDE90230049001A905A8FFF78DFF0DF592
:1027F000137D5DF804FB0020F9E700BFAF07000080
:1028000070B504460646044D0FCD0FC495E80F0081
:1028100084E80F00304670BD9C32000000207047F5
:10282000024BD86900F00100704700BF0000034070
:10283000B2F5402F10B51346044608460BD8B4F540
:10284000402F08D82344B3F5402F04D8214600F088
:1028500089FB002010BD40F20240FBE7B2F5402F9B
:1028600010B506D8B0F5402F03D88318B3F5402F24
:102870000ED940F2024010BDC458013411D10433C6
:102880009A42F9D812F0030404D040F20440F2E76F
:102890000023F5E70223FEF729FB0028E9D02046B4
:1028A000E9E740F20340E6E70220704738B541EA25
:1028B0000003C3F30C030446CBB9B1F5402F0FD886
:1028C000B0F5402F0CD80D18B5F5402F08D820468C
:1028D00004F50054FEF703FBAC4204D00028F6D107
:1028E00040F2024038BD0028FAD00020FAE740F25A
:1028F0000440F7E700207047EFF3108072B670478E
:1029000000B962B6704770B5054614460E46FFF72B
:10291000F3FF296881EA040202EA06044C402C60B5
:10292000BDE87040FFF7ECBFF8B504460D461F4602
:1029300016464AB101238B403021194A01FB00227F
:10294000FFB141F21001535004EB4403072D4FF047
:102950000F014FEA031317D8A80006FA00F28140CE
:1029600010481844FFF7CFFF56B9012130230C4817
:1029700001FA05F503FB040077B141F21003C550DD
:10298000F8BD42F21001DEE7A5F10800800006FA6A
:1029900000F281400448E4E742F21003EFE700BF91
:1029A00000C0034004C003400CC00340F0B5114A0E
:1029B000114C124E00F00105E3695F0713D40DB905
:1029C000334213D103EA00078F4207D10B4A1A4062
:1029D000002A14BF6FF001000020F0BD013AEBD1D6
:1029E0006FF00200F9E74FF0FF30F6E76FF00100FB
:1029F000F3E700BF8096980000000340020001004A
:102A000038B541F6713301220C4C0021E569E363CE
:102A10000B4B05F48035DA600223606121202361CD
:102A2000FFF7C4FF10B92120FFF7C0FF0122054BBB
:102A3000DA600DB10023E36338BD00BF000003403E
:102A400000100340002003402DE9F04F06464FF4EC
:102A5000502501202A4CDFF8B4C041F67137CCF87C
:102A6000040044F8265030250024DFF8A4E0DFF805
:102A7000A49005FB06E5EC652C662C67214CDFF87D
:102A800098A0D4F81C80E763E76800FA06F60743CD
:102A9000E7604BB9E26818F4803F22F00102E2607F
:102AA00000D0E363184628E001F5005000EA090071
:102AB000401A984228BF18466161D4F81CB08708B4
:102AC0001BF0040F17D1013F3F0147F060576F66BD
:102AD000AA66C5F86CA0CCF82460DEF834703E42DB
:102AE000FBD0094F01447E630427CCF828600244E0
:102AF00027611B1ACDE74FF0FF30BDE8F08F00BF14
:102B00000040044000000340002004400010044046
:102B10000000044000E0FFFF180003404FF098431E
:102B20005A6CD202FCD5586D00F47020704743688F
:102B300013B9416070475B685A68012AFBD159603C
:102B40007047836813B9816070475B685A68012ACF
:102B5000FBD159607047C369032B9FBF00EB830211
:102B60000133D160C3617047C369042B15D84FF09E
:102B70009842116CC902FCD504339B0013650168AF
:102B8000103B116041680C30116050F8041C034484
:102B900011604FF09842984200D1704750F8041BE2
:102BA0001160F8E7F0B507460F4D10488DB0002BC7
:102BB00008BF05460E46144600211C2205A800F059
:102BC000DEF9012304A801A93D4344F00054019615
:102BD000049502930394FFF7B4FFFFF7C5FFFFF7D7
:102BE0009DFF0DB0F0BD00BF01000AFF010008FF0E
:102BF000054B5B69C3F38512827003F03F021B0B28
:102C000042700370704700BF00C00740036BDA07D3
:102C100002D503695B06F9D4704710B5FFF7F6FFDC
:102C2000012200F500531A630B79044648881B0201
:102C300043EA8043487A03434878002814BF402081
:102C400000200343887A002814BF8020002003431B
:102C5000C87A002814BF202000200343087B0028E6
:102C600014BF102000200343487B002814BF082015
:102C7000002003438879002814BF4FF480300020DF
:102C80000343636004F580531A630A780AB9022388
:102C9000E36000236362C8790B7A497943EA8003D1
:102CA000002914BF102100210B43A3600AB10123A6
:102CB000E36010BD002070470020704724220021EF
:102CC00000F05DB970B515460E4624220021044679
:102CD00000F055F925F04003802B02D0B5F5807F38
:102CE00008D12046314640F8045BEA0800F03AF982
:102CF000002070BD6FF01F00FBE700002DE9F041E0
:102D000004681E4624F04003802B0546884617467B
:102D100092B002D0B4F5807F43D11C2200210BA8D1
:102D200000F02DF9224A234B0121B8F1010F18BF01
:102D300013460A932B1D0193E4081F4B44F00054E3
:102D400002910AA8039404970591069307960891A7
:102D500001A90993FFF7EBFE04A90AA8FFF7E7FE14
:102D600007A90AA8FFF7EDFE29680AA8C908FFF716
:102D7000F2FE10210AA8FFF7EEFEFFF79BFF98B9BD
:102D80000AA8FFF7F1FE4FF098435A6CD202FCD527
:102D90005C6DFFF791FF04F47024204612B0BDE88B
:102DA000F0816FF07100F9E74FF0FF30F6E700BFF8
:102DB0000001010400010004100000202DE9F04F83
:102DC0009BB00746894698461646DDF894B072B126
:102DD00015683B6823F04002802A03D0B3F5807F5A
:102DE00040F0A6800BEB0903002400930DE015468C
:102DF000EFE795B1249A1BF80430525D013553403A
:102E0000269A05F00F05135501344C45F1D3002ED9
:102E100000F091800020356067E0A9EB040ABAF168
:102E20000F0F57D91C22294613A800F0A8F8434BCE
:102E30003A6812933B1D03930123D20842F00052DB
:102E4000049305923E4A2699CDF818802AF00F0A7D
:102E500007930892CDF824800A930B920BEB04029F
:102E60000C9221444AF000520D9312A80E920F9139
:102E700003A910931192FFF75AFE06A912A8FFF7B3
:102E800056FE0CA912A8FFF752FE0FA912A8FFF7D1
:102E900058FE09A912A8FFF754FE396812A8C908FC
:102EA000FFF759FE514612A8FFF755FEFFF702FF44
:102EB000C8B912A8FFF758FE4FF098435A6CD202D7
:102EC000FCD55B6D544403F470230193FFF7F4FECB
:102ED000019B5BBB269B0BEB040A1C44009B9A45A1
:102EE00006D14C4691E74FF0FF301BB0BDE8F08FA4
:102EF0008DB9424601213846249BFFF7FFFE00288A
:102F0000F3D108F1100212F8013D0133DBB2137066
:102F10000BB99045F7D1249A1AF8013B525D01355F
:102F2000534004F8013B05F00F05D7E71846DCE7EE
:102F30006FF01F00D9E73046D7E700BF0303000456
:102F4000100000200139024410B5904201D1002048
:102F500005E0037811F8014FA34201D0181B10BD02
:102F60000130F2E70A44431E914200D1704710B588
:102F700011F8014B914203F8014FF9D110BD024401
:102F80000346934200D1704703F8011BF9E70000A4
:102F9000F8B500BFF8BC08BC9E467047F8B500BF46
:102FA000F8BC08BC9E46704700000000AF07000058
:102FB00000000000CF070000496E737472756374DF
:102FC000696F6E73206F66204765636B6F20426F79
:102FD0006F746C6F616465722076582E59592E5A41
:102FE0005A3A0D0A2020312E20466C617368206108
:102FF000206E6577206170706C69636174696F6EB3
:1030000020286F6E6C7920737570706F7274202E2B
:1030100067626C290D0A002020322E2052756E2026
:103020007468652063757272656E74206170706C6F
:1030300069636174696F6E0D0A2020332E20536816
:103040006F772074686520626F6F746C6F61646560
:103050007220696E666F0D0A0D0A506C65617365AA
:1030600020696E7075742074686520636F72726574
:1030700073706F6E64696E67206E756D6265722025
:103080003E20000205000D0A4661696C65642074EB
:103090006F20626F6F740D0A000D0A2D2D2D2D2DDE
:1030A0002D2D2D2D2D2D2D2D2D2D2D2D2D2D2D2D50
:1030B0002D2D2D2D2D2D2D2D2D2D2D2D2D2D2D2D40
:1030C0002D2D2D2D2D2D2D2D2D2D2D2D0D0A000DC0
:1030D0000A66696C65206572726F72203078000D27
:1030E0000A000D0A53657269616C2075706C6F611E
:1030F000642061626F727465640D0A000D0A536585
:103100007269616C2075706C6F616420636F6D70A3
:103110006C6574650D0A000D0A626567696E20753D
:10312000706C6F61640D0A000D0A626C6F636B2036
:103130006572726F7220307800B814B6F1E0CFF388
:10314000ADB7DD25C9FA79B71300000007B0CD5E31
:1031500002000000000001023C33000000400000BB
:1031600000000C00F0041100FB0A0000FF0A000040
:1031700099080000210D0000510D00005832000098
:103180008B0D0000010E000000000000050B000088
:10319000F50A000013B779FAC925DDB7ADF3CFE022
:1031A000F1B614B80102000000000000383300003E
:1031B00040000000000001020000000000000000CC
:1031C00000000000000000000000000000000000FF
:1031D00000000000000000000000000000000000EF
:1031E000000000000400000700000D1013001A206A
:1031F00026303840506A09E667BB67AE853C6EF3FF
:1032000072A54FF53A510E527F9B05688C1F83D9EA
:10321000AB5BE0CD19800000000000000000000062
:10322000000000000000000000000000000000009E
:10323000000000000000000000000000000000008E
:10324000000000000000000000000000000000007E
:103250000000000000000000000100009D260000AA
:1032600061240000992400003D260000792600001A
:10327000AD2300008D230000BD230000E1260000E7
:1032800051250000AD250000212800003128000054
:103290005D280000AD280000A928000001020300FD
:1032A00028000000280000000020000000000C00A2
:1032B00000000000040000000000004001000000C9
:1032C0000100000000C0050000400500D8320000E9
:1032D0000810002018000000F00F1003000000008C
:1032E000BC100020130000000900000000010000D5
:1032F0000202000013000000F00F100300000000A5
:10330000BC110020130000000900000000020000B2
:1033100001010000D3FFFFFFF07F1030C01200203A
:10332000000000000000000000C005402200000076
:08333000590100003501000005
:1040000000100020B19500000DDE000011DE000060
:10401000AD95000015DE00001DDE0000AD9500002E
:10402000AD950000AD950000AD950000AD95000088
:1040300021DE0000543F0400AD950000AD95000066
:10404000AD950000AD950000AD950000C19A00004F
:10405000AD950000AD950000AD950000AD95000058
:10406000AD950000AD95000051F10000AD95000048
:10407000AD950000D1910000AD9500002D450000E8
:1040800039450000AD950000AD950000AD950000EC
:10409000AD950000AD950000AD950000AD95000018
:1040A000AD950000FDA30000DDA30000AD9500006C
:1040B000AD950000E5450200AD950000AD4F020052
:1040C000514F02004D4F020089470200A94F0200E4
:1040D000554F02006D4F0200594F02003136020069
:1040E000ED4F0200AD950000AD950000AD950000CC
:1040F000AD95000045CC0000AD950000AD950000E9
:10410000AD950000AD950000AD950000AD950000A7
:10411000AD950000AD950000AD950000AD95000097
:10412000AD950000AD950000AD950000AD95000087
:10413000AD95000010B5054C237833B9044B13B18D
:10414000044800E000BF0123237010BD3818002090
:104150000000000068D1040008B5034B1BB10349FF
:10416000034800E000BF08BD000000003C1800202C
:1041700068D10400A3F5803A704700BF174B002BAD
:1041800008BF134B9D46FFF7F5FF00218B460F46F6
:104190001348144A121A37F008F90E4B002B00D0BE
:1041A00098470D4B002B00D09847002000210400B9
:1041B0000D000D48002802D00C4800E000BF37F089
:1041C00089F82000290000F05DF837F06FF800BF93
:1041D00000000800000000000000000000100020A7
:1041E00038180020105D00200000000000000000D2
:1041F00013B5044600901A4B04201A4A1A490EF0CF
:1042000003FAAB2C01D0942C24D1184C0420227832
:1042100017490132D2B222700EF0F6F92378052B3D
:104220000FD80A22042013490EF0EEF9FF2112489C
:104230000DF060FB42F2107102B0BDE8104026F0B4
:1042400063BF002304200D49237002B0BDE8104075
:104250000EF0DAB90CB9054B1C7002B010BD00BFEE
:10426000AC8C0400A0C30300A5C3030054180020B5
:10427000BCC30300CCC3030098270020E9C303009C
:1042800025F0A6BA08B50AF080FF0AF08BFF0AF005
:1042900073F9FAE730B50A4C0A4B22680A4D1A60E6
:1042A0000A4B85B02B600A4B019308F0D9FC2B68B0
:1042B000029001A92068039307F078FB05B030BD98
:1042C000A4100020CC380020C8380020981000200E
:1042D000E81A0400014B186807F07CBBA41000200A
:1042E00038B508F0BDFC0446064D2B68D3F8B00283
:1042F00008F0AAFC286807F080FB2046BDE838409B
:1043000008F0A2BCA410002008B50421002006F08B
:1043100075FC0421062006F071FC0821072006F038
:104320006DFC0821084606F069FC08211C2006F0F7
:1043300065FC0821242006F061FC0821252006F0F8
:104340005DFC002008BD000007B501A807F03CF89F
:104350009DF80530012B27D1224A936DDB0313D43E
:10436000536B23F4FF0323F4FE4343F4BC1343F4E1
:10437000A0635363136B23F4704343F4404313630C
:10438000136B43F4E06313639DF8043063B94FF09B
:1043900000531B68144B1B68144B1B68144B1B68A1
:1043A000144B1B68144B1B68144AD2F8803043F03E
:1043B0000303C2F8803008F069FB08F029FB08F01D
:1043C00083FB08F02DFBFFF79FFF08F00FFB05F0C4
:1043D00045FB09F0B3F806F021F803B05DF804EBF3
:1043E00009F0F4BF00C00050004000200080002011
:1043F00000C000200000012000400120008000508B
:1044000008B505F099FE05F093FF00F0F7F800F00D
:1044100003F9BDE8084015F047BD08B507F0FCF901
:1044200007F00CFA07F01CFA0DF00EFA0DF096FAF0
:10443000BDE808400DF0CCBA70477047FFF750BF99
:1044400008B50DF00FFABDE808400DF099BA7047B5
:1044500008B508F06FFCBDE8084000F059B808B591
:104460000AF096FB08F032FB16F022FEFFF7F0FF91
:10447000BDE80840FFF70EBF70B5114E92B035464B
:104480000BAC0FCD0FC495E807000E4B84E8070076
:104490000D4A0121CDE903234FF4007307ACCDE9A8
:1044A000051306F11C030FCB84E80F00074B2146D0
:1044B00000930BAA03AB064808F026FF12B070BDAC
:1044C000281B04002303000300000650141B0020D7
:1044D0007C1B0020831E012B0BD8012909D8042244
:1044E0000A4BD3F8A03003F001030021032006F0AB
:1044F00055BE0239012908D8012806D8034B0022ED
:10450000D3F8A03003F00103EFE7704700C0035079
:1045100008B5044904480AF00DF8BDE80840FFF763
:10452000ABBF00BFA8100020541B0020014B18682F
:1045300008F0A8BF7C1B0020FFF7F8BF014B1A6AE8
:10454000186810477C1B002001207047012070472D
:1045500010B5FFF7BFFE044608F0DFFF002808BFD4
:1045600000240DF0E1FA002808BF0024FFF7ECFF5B
:10457000002814BF2046002010BD38B50AF0ECF822
:104580000446FFF7DBFF04281ED002284FF0000589
:1045900008BF012408F0C3FF042817D0022808BF71
:1045A00001240DF0E5FA042812D0022808BF0124E6
:1045B000FFF7CCFF04280DD0022808BF0124002DEE
:1045C00018BF0024204638BD0125E3E70125E8E7B0
:1045D0000125EDE70024F5E708B51AF035FF0022C4
:1045E000014B1A7008BD00BFA01B0020FF207047C0
:1045F00008B5FFF7FBFF002008BD000008B5044820
:1046000005F0F0FCBDE80840024805F0EBBC00BF37
:10461000541B04006C1B040008B5044805F00AFE96
:10462000BDE80840024805F005BE00BF841B040039
:104630009C1B040007B5002203461146012000928E
:104640000CF04CFA03B05DF804FB08B5002011F043
:10465000DDFC002013F052FE00200EF097FE00203B
:1046600010F0FAFB002010F0D1FDBDE8084000205A
:1046700010F0D4BE08B501200DF05AFEBDE8084088
:1046800001200DF09DBF08B5022011F009FD0220A8
:1046900010F0CEFE022014F0D1F8022015F068FED2
:1046A00002200EF0B1FB022010F0B2F9BDE8084084
:1046B000022011F057BA0FF0BFBA11F08DBD10B43F
:1046C0009DF8044001945DF8044B11F0A9BD7047BA
:1046D0000EF0EABD7047704770477047704710B5DD
:1046E000044611F06DF820460DF030FE20460EF025
:1046F00093FB2046BDE810400FF02CB910F08EBDA2
:1047000010F098BD10F0A2BD704770477047704719
:10471000704770470DF018BE70477047704770477C
:10472000704738B504460D460EF090FB29462046EA
:10473000BDE8384010F026BE70477047704770479C
:10474000704782B06B4683E8060093E8060002B02B
:104750000DF0B4BE704770477047704712F039BF14
:1047600012F03BBF70470020704712F038BF12F0C4
:1047700044BFA0F13003DBB2092B05D9A0F16103DE
:10478000052B03D85738C3B218467047A0F1410330
:10479000052B01D83738F6E7FF23F5E710B5F1B15F
:1047A000441814F8010CFFF7E4FF0129024614D065
:1047B00014F8020CFFF7DDFF00B200EB800002EB03
:1047C00040020229D2B208D014F8030CFFF7D1FF3F
:1047D000642300FB032000F0FF02104610BD0A46D0
:1047E000FBE710B581B1441814F8010CFFF7C1FFC5
:1047F0000129024606D014F8020CFFF7BAFF42EA7C
:104800000010C2B2104610BD0A46FBE710B549B30E
:10481000441814F8010CFFF7ACFF012982B21FD035
:1048200014F8020CFFF7A5FF00B200EB800002EBCA
:104830004002022992B213D014F8030CFFF799FF3B
:10484000642300B200FB0322032992B208D014F8BB
:10485000040CFFF78EFF4FF47A7303FB002082B243
:10486000104610BD0A46FBE710B519B3441814F8FA
:10487000010CFFF77EFF0129024601D190B210BD65
:1048800014F8020CFFF775FF022942EA001212B277
:10489000F4D014F8030CFFF76CFF032942EA00225E
:1048A00012B2EBD014F8040CFFF763FF42EA0030B9
:1048B00080B2E4E70846E2E710B5B1B3441814F853
:1048C000010CFFF756FF012902462CD014F8020C08
:1048D000FFF74FFF0A23022913FB002223D014F80D
:1048E000030CFFF746FF6423032913FB00221AD0B1
:1048F00014F8040CFFF73DFF4FF47A73042903FB0F
:10490000002210D014F8050CFFF733FF42F21073A9
:10491000052903FB002206D014F8060CFFF729FF37
:10492000034B03FB0022104610BD0A46FBE700BF05
:10493000A08601007FB50378094905934378049365
:1049400083780393C37802930379019343790093A7
:104950008379C27904200DF057FE07B05DF804FB9F
:104960006935040070B53B4994B008237F2209885B
:1049700007A809F0E8FA384904200DF045FE07A819
:10498000FFF7D8FF354904200DF03EFE09A811F0CD
:104990004BFD9DF82430042005939DF825309DF8AB
:1049A0002B2004939DF826302D4903939DF8273042
:1049B000102402939DF828302A4E01939DF8293047
:1049C0000BAD00939DF82A300DF01EFE26491023F2
:1049D0007F2209880BA809F0B6FA042023490DF0BC
:1049E00013FE3146042015F8012B013C0DF00CFE9E
:1049F00014F0FF04F5D1042018490DF005FE1C4900
:104A000014237F2209880FA809F09DFA0420BDF81D
:104A10003C2018490DF0F8FD042017490DF0F4FD75
:104A20001024104E0DF13E053146042015F8012BDF
:104A3000013C0DF0E9FD14F0FF04F5D10420074915
:104A40000DF0E2FD0420BDF84E200C490DF0DCFD18
:104A500014B070BD4A680400341D04009034040092
:104A6000401D040085350400546804006E1D0400D8
:104A70004E6804007B1D04009A1D0400AD1D040057
:104A800010B54FF4825486B0ADF80E30089B8DF807
:104A900010108DF811200146009303AABDF82430B0
:104AA0000020ADF8124010F085FF06B010BD1FB514
:104AB0004FF482548DF808108DF80920ADF80630B7
:104AC000BDF81C20069B01A9ADF80A4010F048FF74
:104AD00004B010BD13B5134C206804F095FB0423FB
:104AE00022467F21222009F02AFA042022680E495A
:104AF0000DF08AFD0D4B187888B91323012201931C
:104B00000B4B114600934FF6FF73FFF7B9FF0246B8
:104B10000420084902B0BDE810400DF075BD02B098
:104B200010BD00BF64280020CA1D0400C41B002063
:104B3000FB1D04000F1E0400224B2DE9F7431B78D8
:104B400004460F461BB101461F4804F0AFFB237813
:104B5000412B02D16378542B07D01C4B19681C4899
:104B600003B0BDE8F04304F0A1BBE31913F8022C35
:104B70000D2AF2D113F8013C0A2BEED10025154B7A
:104B8000DFF85480B3F80090EBB24B4502D30F4BE3
:104B90005968E4E71A0158F8021008EB03160846B2
:104BA000019136F037FD01990246204636F03AFD74
:104BB00001350028E8D139462046B36803B0BDE886
:104BC000F0431847E6100020CA890400E8100020CE
:104BD0002B1E0400E4100020B0220400FF2310B5B7
:104BE0001A46064906480CF045FEBDE81040012370
:104BF0007F222121034809F099B900BFD54A00005E
:104C0000A41B0020E61000202DE9F0470026DFF865
:104C1000E880334F86B0B8F80020F5B2954205D34E
:104C2000304806B0BDE8F04704F040BB0021102238
:104C300002A82D01019136F0B8FB7C592A49204683
:104C400036F004FD00283DD0204636F0E3FC821EFD
:104C5000214601A836F082FB244801A904F026FB76
:104C60007B19D3F80490B9F1000F03D049462048CE
:104C700004F01CFB20461C4936F0E8FC8246204626
:104C800036F0C8FCC4B2BAF1000F20D0C4F12A0437
:104C9000E4B2B9F1000F06D0484636F0BBFC013C47
:104CA000241A04F0FF044FF00009DFF850A05FFA67
:104CB00089F3A3420ED33D44E9680E4804F0F6FAA6
:104CC0000136A8E7204636F0A5FC0246C0E7C4F14D
:104CD0002804DDE7504604F0E9FA09F10109E6E7A6
:104CE000B02204001424040090340400CA89040093
:104CF0001024040060240400E4100020A67F0400B7
:104D0000014804F0D3BA00BF1424040000B53B49A5
:104D10008DB03B4804F0CAFA3A4A3B493B4804F09C
:104D2000C5FA3B4908237F22098808A809F00BF936
:104D30009DF820309DF8262004939DF821309DF8A1
:104D4000271003939DF82230324802939DF82330B8
:104D500001939DF8243000939DF8253004F0A6FAC5
:104D60000AA811F061FB9DF828309DF82E200493CD
:104D70009DF829309DF82F1003939DF82A3026487E
:104D800002939DF82B3001939DF82C3000939DF8F1
:104D90002D3004F08BFA11F083FA01461F4804F01D
:104DA00085FA01237F2223210DF11F0009F0BEF8AF
:104DB0009DF91F101A4804F079FA2BF00BFE0146FA
:104DC000184804F073FA2BF0FFFD0146164804F072
:104DD0006DFA11F067FA0146144804F067FA11F011
:104DE00063FA08B111F062FA0146114804F05EFA64
:104DF000104804F05BFA0DB05DF804FB1D240400BC
:104E0000242404003B24040047240400502404000C
:104E10004A6804006524040095240400C5240400A5
:104E2000D7240400EA240400FE240400142504000E
:104E3000252504001424040037B53A21054636F030
:104E4000D2FB044638B9174B1968174803B0BDE8C0
:104E5000304004F02BBA2846144936F0F7FB031B08
:104E6000013B13F0FF0302D10E4B9968EDE7012BD4
:104E700002D00C4BD968E8E71946601C0193FFF794
:104E80008DFC0128019BF4D8094A00F00100107044
:104E90007F21212009F053F8064803B0BDE83040D7
:104EA00004F004BAE81000202B1E04009034040023
:104EB000E61000201424040008B5FF2105480CF07A
:104EC00019FDC82126F020F9BDE80840024804F089
:104ED000EDB900BFF82700201424040008B501F044
:104EE000BDF911F0E1F930B129F06DFE0849024633
:104EF00004200DF089FBFF2106480CF0FBFC40F676
:104F0000B83126F001F9BDE80840034804F0CEB9F5
:104F100033250400F82700201424040008B5FF21DD
:104F200005480CF0E7FCC82126F0EEF8BDE8084083
:104F3000024804F0BBB900BF582700201424040025
:104F400008B501F069FABDE80840014804F0AEB9BF
:104F50001424040008B501200DF0D8FC04490246D1
:104F600004200DF051FBBDE80840024804F09EB952
:104F7000492504001424040038B5054611F094F9BD
:104F800030B91E4B99691E48BDE8384004F08EB90F
:104F90003A21284636F027FB044610B9174B19680A
:104FA000F1E71849284636F051FB011B013911F091
:104FB000FF0102D1114B9968E5E7032902D90F4B94
:104FC000D968E0E7601CFFF721FCC4B2FF2CF6D0E3
:104FD0000DF0BEFF0C49024604200DF015FBFF2129
:104FE0000A480CF087FC4FF47A71614326F08CF884
:104FF000BDE83840064804F059B900BFE810002069
:105000002B1E0400903404007D2504001827002086
:105010001424040008B50DF0E1FF05490246042000
:105020000DF0F2FABDE80840024804F03FB900BFB5
:10503000922504001424040038B5054611F034F913
:1050400030B91E4B99691E48BDE8384004F02EB9AE
:105050003A21284636F0C7FA044610B9174B1968AA
:10506000F1E71849284636F0F1FA011B013911F031
:10507000FF0102D1114B9968E5E7022902D00F4BDD
:10508000D968E0E7601CFFF789FBA0F10B03DBB2F6
:105090000F2B0446F3D8012100238140FE224FF656
:1050A000FF702EF00FFF22460346074904200DF043
:1050B000ABFABDE83840054804F0F8B8E810002025
:1050C0002B1E040090340400AA25040014240400BC
:1050D0002DE9FF410F463A21064636F084FA05468F
:1050E00038B93C4B19683C4804B0BDE8F04104F0C5
:1050F000DDB83A49304636F0A9FA04460421681C66
:10510000FFF7B2FB631B063B13F0FF01804602D1A1
:10511000304B9968E7E7022902D92E4BD968E2E7BC
:10512000AB792D2B0ED1EB79C3F130038DF80F3015
:105130009DF80F300833DBB21C2B09D9254BD968F9
:10514000254820E0A81DFFF729FB8DF80F00EFE7A9
:105150004FF6FE7398451BD1214804F0A7F89DF93E
:105160000F0025F07BFA01237F2123200DF10F0290
:1051700008F0E5FE04201B499DF90F200DF044FACC
:105180009DF90F10184804F091F804B0BDE8F081C3
:1051900011F08AF810B90F4B9969D1E74FF6FF73F8
:1051A0000122984511464FF6FD734046CDE9006750
:1051B0000AD1FFF77CFC02460C4904200DF024FACA
:1051C000074804F073F8E0E7FFF75AFC0849024685
:1051D000F3E700BFE81000202B1E04009034040009
:1051E00014240400C9250400F32504000626040045
:1051F0000F1E04002DE9F3410F463A21064636F012
:10520000F2F9804638B9354B1968354802B0BDE827
:10521000F04104F04BB83349304636F017FA0446F3
:10522000042108F10100FFF71FFBA4EB0803DBB228
:10523000991F11F0FF01054602D1284B9968E4E758
:105240000A3B022B02D9254BD968DEE708F106009C
:10525000FFF732FB244BA0F516529A420446F2D8CF
:105260004FF6FE739D4215D1204804F01FF8204BE5
:10527000214620481C6004F019F801221E4BFF2132
:105280001E481A700CF036FB642102B0BDE8F041F4
:1052900025F03ABF11F008F810B9104B9969B4E73E
:1052A0004FF6FF7301229D4211464FF6FC732846CC
:1052B000CDE900670CD1FFF7FAFB02461049042044
:1052C0000DF0A2F9094802B0BDE8F04103F0EEBFCD
:1052D000FFF7D6FB0B490246F1E700BFE8100020BC
:1052E0002B1E040090340400809C01001424040050
:1052F0006428002024260400C41B0020A41B0020D6
:10530000062604000F1E04002DE9F3410F463A2142
:10531000064636F068F9804638B9284B196828489F
:1053200002B0BDE8F04103F0C1BF2649304636F077
:105330008DF90446042108F10100FFF795FAA4EB6A
:105340000803063B13F0FF01054602D11B4B996889
:10535000E5E7032902D9194BD968E0E708F106000F
:10536000FFF754FA013880B2B0F5167FF3D24FF64A
:10537000FE739D42EFD010F097FF10B90F4B996963
:10538000CDE74FF6FF7301229D4211464FF6FB73A6
:105390002846CDE900670CD1FFF789FB02460A4990
:1053A00004200DF031F9094802B0BDE8F04103F0E6
:1053B0007DBFFFF765FB06490246F1E7E8100020D4
:1053C0002B1E04009034040006260400142404005C
:1053D0000F1E040030B53A2187B036F004F90546B7
:1053E00038B9284B1968284807B0BDE8304003F0A9
:1053F0005DBF04210130FFF737FA02210446A81DE2
:10540000FFF7EFF90121039005F10900FFF7E9F932
:105410004FF6FE739C420546039A02D1194BD96898
:10542000E1E7039210F040FF039A10B9154B996918
:10543000D9E7164905AB08888978ADF8140099704A
:1054400015B101218DF816104FF6FF718C424FF007
:1054500003012046CDE900314FF006034FF0010172
:105460000BD1FFF724FB0246094904200DF0CCF8CC
:10547000084803F01BFF07B030BDFFF701FB0649EA
:105480000246F2E7E81000202B1E040088260400E4
:1054900006260400142404000F1E040030B53A212F
:1054A00087B036F0A0F8054638B9234B1968234871
:1054B00007B0BDE8304003F0F9BE04210130FFF72A
:1054C000D3F902210446A81DFFF78BF94FF6FE73AE
:1054D0009C4202D1184BD968E9E7039010F0E4FE32
:1054E000039A10B9144B9969E1E7154905ABB1F876
:1054F00003004979ADF8140099704FF6FF718C42A2
:105500004FF003012046CDE900314FF006034FF084
:1055100001010BD1FFF7CBFA02460A4904200DF036
:1055200073F8094803F0C2FE07B030BDFFF7A8FAD0
:1055300006490246F2E700BFE81000202B1E0400D7
:105540008826040006260400142404000F1E04000C
:1055500073B53A21044636F046F8054638B9284B6B
:105560001968284802B0BDE8704003F09FBE20468D
:10557000254936F06BF8441B063C14F0FF0402D1B9
:105580001F4B9968EDE7042C02D81D4B1969E8E719
:10559000502C02D91A4B5969E3E70421681CFFF724
:1055A00063F94FF6FE739842064602D1144BD96850
:1055B000D7E710F079FE4FF6FE7310B9104B9969DA
:1055C000CFE74FF6FF7296424FF0010205F1060554
:1055D000A4B211463046CDE900540CD1FFF767FA6A
:1055E00002460A4904200DF00FF8094802B0BDE850
:1055F000704003F05BBEFFF743FA06490246F1E74D
:10560000E81000202B1E040090340400062604003D
:10561000142404000F1E040008B5034803F046FEDE
:10562000BDE8084003F0B0BE14240400F7B50F46EF
:105630003A21064635F0D7FF054638B9224B19689E
:10564000224803B0BDE8F04003F030BE30462049A8
:1056500035F0FCFF441B013C14F0FF0402D11A4B4F
:105660009968EDE7042C02D0174BD968E8E7681C6D
:105670002146FFF7F9F84FF6FE7398420546F3D03E
:1056800010F012FE10B9104B9969D9E74FF6FF736D
:1056900001229D4211464FF6F9732846CDE9006775
:1056A0000CD1FFF704FA02460A4920460CF0ACFF81
:1056B000094803B0BDE8F04003F0F8BDFFF7E0F99A
:1056C00006490246F1E700BFE81000202B1E040047
:1056D0009034040006260400142404000F1E040065
:1056E000F7B50F463A21064635F07DFF054638B935
:1056F000224B1968224803B0BDE8F04003F0D6BD44
:105700003046204935F0A2FF441B013C14F0FF0451
:1057100002D11A4B9968EDE7042C02D0174BD968D7
:10572000E8E7681C2146FFF79FF84FF6FE739842A2
:105730000546F3D010F0B8FD10B9104B9969D9E7C0
:105740004FF6FF739D4209D120460F490CF05CFFD4
:105750000E4803B0BDE8F04003F0A8BD01224FF6AB
:10576000F87311462846CDE90067FFF789F9084923
:10577000024620460CF048FFEAE700BFE810002090
:105780002B1E040090340400382604001424040066
:105790000F1E040008B5044803F088FDBDE808406A
:1057A000024803F083BD00BF5E26040014240400F9
:1057B00070B50024ACB021461D2212A800948DF8CB
:1057C0000440119435F0F1FD21460D220DA80C94F2
:1057D00035F0EBFD21461D221BA81A9435F0E5FD9E
:1057E000102343497F2209880DEB030008F0ABFB2F
:1057F0001024404E04AD314615F8012B684616F0D2
:1058000065FF013C694611A835F0DEFE14F0FF0487
:10581000F1D1082338497F2209880DEB030008F0F5
:1058200092FB0824334E02AD314615F8012B684631
:1058300016F04CFF013C69460CA835F0C5FE14F08B
:10584000FF04F1D11D22214624A8239435F0ADFD9B
:1058500008AA1446294B03F1100615461868596822
:10586000083303C5B3422A46F7D10DF1310323AA09
:105870000DF13906154618685968083303C5B34257
:105880002A46F7D118681AAA28609B880020AB80A6
:10589000DDF832301546CDF89A30DDF83630114655
:1058A000CDF89E30DDF83A30CDF8A230234613F81B
:1058B000014B2CAE06EB440434F8244C0130102884
:1058C00025F8024BF3D12023352012F8014B013B80
:1058D000462C08BF02F8010C13F0FF03F5D120227B
:1058E00011A835F02BFD00B1FEE72CB070BD00BF54
:1058F00052680400853504004A6804008E260400BE
:1059000010B5FFF755FF00F035FC00F083FDFFF701
:1059100065F9FF2330491A4630480BF0ABFFFF23EF
:105920002F491A462F480BF0A5FFFF232E491A4690
:105930002E480BF09FFFFF232D491A462D480BF0F0
:1059400099FFFF232C491A462C480BF093FFFF23A5
:105950002B491A462B480BF08DFFFF232A491A4684
:105960002A480BF087FFFF2329481A4629490BF0E4
:1059700081FFFF2126480BF0BDFF4FF47A7125F01F
:10598000C3FBFF2324491A4624480BF073FFFF236F
:1059900023491A4623480BF06DFFFF2322491A467C
:1059A00022480BF067FFFF2321491A4621480BF0DC
:1059B00061FFFF2320491A4620480BF05BFF00F0EF
:1059C0006FF9BDE8104000221D4B4FF6FF711A70B1
:1059D00006201C4B12F042B8F98C0000382700203A
:1059E000158D0000B82700202D8D000018270020FD
:1059F000458D0000982700205D8D0000782700204D
:105A0000758D000058270020798D0000F8270020B0
:105A1000D82700207D8D000095630000F826002027
:105A2000E9940000EC2B002039950000402B002069
:105A30004D950000202B002085950000802A002035
:105A4000E41200203163000007B590380D285ED8BD
:105A5000DFE800F007465D5D5D5D5D5D5D5D5D57A6
:105A6000595B01237F2223210DF1060008F05EFA25
:105A70009DF9060024F0F2FD24F009FE25490246B6
:105A800004200CF0C1FD01237F2220210DF107002D
:105A900008F04CFA9DF80730FBB100237F218DF808
:105AA0000730202001230DF1070208F048FAFF21FA
:105AB00019480BF01FFF002125F026FB1749042091
:105AC0000CF0A2FD164804F0B8FB03F023FB1548C8
:105AD00003B05DF804EB03F0E9BB2EF081FAE6E7D2
:105AE0000F4804F0ADFB03F015FBFF210A480BF053
:105AF00001FF25F083FB04200B490CF085FD0B48CA
:105B0000E6E70B48E4E70B48E2E70B48E0E703B0C1
:105B10005DF804FBC9250400F82600209E26040039
:105B2000841B0400C7260400D626040001270400B5
:105B300012270400262704003927040070B54368A3
:105B400004465B8886B0192B06D090F91130027C90
:105B50004A4904200CF058FD0125494BFF214948D2
:105B60001D700BF0C7FE002125F0CEFA4FF6FA7239
:105B700063685B8893423CD005D8062B68D0132B12
:105B80003DD0002514E04FF6FE72934213D04FF63D
:105B9000FF729342F5D1237CA289E1893A4803F050
:105BA00085FBA068A18903F071FB384803F07EFBF8
:105BB000284606B070BD237CA289E189324803F0F3
:105BC00075FBA189A06803F061FB304803F06EFB10
:105BD0000C2301932E4B2A4629460093E0894FF669
:105BE000FF73FEF74DFF2B49024604200CF00CFD1D
:105BF000DEE7A289A168E08900F06CFCD8E7E189C2
:105C00000029BED0237C1C221F4803F04FFBA06854
:105C100086784578037A05EB0625427A817A0595E0
:105C2000C57804950579039545790295857901959F
:105C3000C0790090184803F039FBA16808228B78DE
:105C40004878033100EB032080B200F043FC98E772
:105C5000A3689B780A2B94D1237CE18916220A48F9
:105C600003F024FBA1686268897913790B48528894
:105C70000091E18903F01AFB83E700BF4C27040081
:105C80001C11002044280020752704008E340400D5
:105C9000862704000F1E040093270400C427040075
:105CA000024B0349186806F099B900BFA410002000
:105CB00004110020042001490CF0A6BC2C2804008B
:105CC000FEF750BE10B5294C86B022880420284922
:105CD0000CF09AFCE278042026490CF095FC94F92B
:105CE0000220042024490CF08FFC2379E27A0593EA
:105CF000637904200493A37920490393E379029301
:105D0000237A0193637A0093A37A0CF07DFC1C49FB
:105D100004200CF079FC04F10C0011F085FD042046
:105D200018490CF071FC184904200CF06DFC04F1CA
:105D3000140011F0D1FD626A042014490CF064FCD7
:105D4000134904200CF060FC04F1280011F0C4FD9C
:105D5000A26B04200F490CF057FC042094F83C205F
:105D60000D4906B0BDE810400CF04EBCC81B002029
:105D700018290400292904003D2904004F290400A2
:105D8000C96B0400903404008329040095290400A1
:105D9000BD290400CB290400EF29040000B59BB005
:105DA0000AA90DF11F0010F045FB0246002864D13E
:105DB0000420BDF8302033490CF026FC04209DF867
:105DC000332031490CF020FC04209DF932202F496A
:105DD0000CF01AFC9DF82830042005939DF829301A
:105DE0009DF82F2004939DF82A30294903939DF8AC
:105DF0002B3002939DF82C3001939DF82D300093A9
:105E00009DF82E300CF000FC08A810F00DFB214985
:105E100004200CF0F9FB08A811F006FD04201E492F
:105E20000CF0F2FB10A9012032F0C8FA1B49042043
:105E30000CF0EAFB0DF1430011F04EFD159A042021
:105E400017490CF0E1FB10A9032032F0B7FA15490D
:105E500004200CF0D9FB0DF1430011F03DFD159A23
:105E6000042011490CF0D0FB04209DF85C200F4960
:105E70000CF0CAFB1BB05DF804FB04200C490CF0CD
:105E8000C3FBC1E718290400292904003D290400A7
:105E90004F290400C96B04009034040083290400D6
:105EA00095290400BD290400CB290400EF29040032
:105EB000152A040070B592B010F0F6F930B1042044
:105EC0003A4912B0BDE870400CF09EBB384C04203B
:105ED00038490CF099FB04F110050DF12E02234610
:105EE00003CBAB42106051601C4602F10802F6D1B0
:105EF000314C0DF11E0294F83C3004F114058DF87C
:105F00003E3004F124062B4603CBB34210605160AF
:105F10001D4602F10802F6D141F6843304202749D8
:105F2000ADF81C300CF070FB254B01AD93E803007D
:105F3000236885E8030003930023042021498DF89A
:105F400010300CF061FB07A81FF0D2FD024610BB19
:105F500004201D490CF058FB1C4B082218881C49D2
:105F600007F0FAFF04237F2118461A4A07F0E7FFDB
:105F7000194A04237F21012007F0E1FF28460FF092
:105F800079FD024660B9042014490CF03DFB07F08E
:105F900001FB12B070BD042011490CF035FBDBE7AA
:105FA000042010490CF030FBF1E700BF532A040035
:105FB000F01B0020802A0400C81B0020A02A040037
:105FC000CC1B0020D32A0400F62A040048680400F1
:105FD000D41B0020001C0020EC1B00205C2B0400C4
:105FE000292B04008D2B0400D0E9023253F8223013
:105FF00004201A68034B044983F83C20D2B20CF009
:1060000003BB00BFC81B0020CC2C0400D0E9023227
:1060100053F8223004201A68024B03499A630CF0AB
:10602000F3BA00BFC81B00201B2D0400D0E90232C8
:1060300053F8223004201A68024B03495A620CF0CC
:10604000E3BA00BFC81B0020642D0400D0E902326F
:1060500053F8223004201A68024B0349DA70D2B296
:106060000CF0D2BAC81B0020AC2D0400D0E90232DB
:1060700053F82230042093F90020024B02499A7011
:106080000CF0C2BAC81B0020E82D0400D0E902328F
:1060900053F8223004201A68024B03491A8092B246
:1060A0000CF0B2BAC81B0020222E0400012313B545
:1060B000084C009322461023002113F053F80420CB
:1060C00005490CF0A1FA204602B0BDE8104011F0DD
:1060D00003BC00BFF01B00205B2E0400012313B59E
:1060E000084C009322461023002113F03BF80420B3
:1060F00005490CF089FA204602B0BDE8104011F0C5
:10610000EBBB00BFDC1B0020912E040010B5094C36
:1061100001232246002113F044F8074904200CF023
:1061200073FA204611F080FBBDE8104004200349BB
:106130000CF06ABAD41B0020C62E04009034040070
:1061400010B5094C01232246002113F02AF8074913
:1061500004200CF059FA204611F066FBBDE810400F
:10616000042003490CF050BACC1B0020F62E04008A
:1061700090340400FF2310B51A46244924480BF03C
:1061800079FBFF23234C1A46234924480BF072FB6A
:1061900004237F222221204607F0C8FE206803F056
:1061A00033F8226804201E490CF02EFA04201D4901
:1061B0000CF02AFAFF231C491A461C480BF05AFB24
:1061C0001B4803F073F81B4803F070F81A4803F0FB
:1061D0006DF81A491A4803F069F81A4A1A491B4817
:1061E00003F064F81A4803F061F81A4803F05EF807
:1061F00002F05EFF02F076FF002110230846164AE7
:1062000002F082FFBDE8104002F084BF798E0000EA
:106210004428002064280020A98E000020280020A7
:106220004433040090340400AD910000682800203D
:106230006A330400A0330400D13304001D24040099
:10624000F93304003B240400103404001934040022
:10625000373404005D3404009334040013B5012482
:106260007F210DEB0402234620208DF8014007F02A
:1062700066FE23460DF102027F2121208DF80240A7
:1062800007F05DFE4FF4E133019304237F210DEB12
:106290000302222007F053FE14238DF80330234617
:1062A000224C0DF103027F21232007F048FE2246F5
:1062B0000C237F21252007F042FE22460C237F215C
:1062C000262007F03CFE22460C237F21272007F0E2
:1062D00036FE22460C237F21282007F030FE22467E
:1062E0000C237F21292007F02AFE22460C237F2140
:1062F0002A2007F024FE22460C237F212B2007F0C2
:106300001EFE22460C237F212C2007F018FE224679
:106310000C237F212D2007F012FE0C2322467F2123
:106320002E2007F00CFE02B010BD00BF101100209F
:1063300038B50C4618B15B21124807F065FC25689A
:10634000EC880FF0ADFF844213D02B685B88062BDE
:1063500015D1EC7C012C04D0022C0ED05CB1812034
:1063600038BD094904200CF04FF90021284612F0ED
:1063700016FC0020F4E70549F4E70549F2E7C320DD
:10638000EEE700BFA4340400C0340400DD34040090
:10639000FB3404002DE9F8430025194C194E1A4F1F
:1063A000DFF86C8023785FFA85F9FF2B1ED0A37A83
:1063B000BBB1A389013B9BB2A38193B931460420B1
:1063C000A3720CF021F92046FEF7B4FA39460420F6
:1063D0000CF01AF9484601F07FFD414604200CF00C
:1063E00013F90135C82D04F10E04DBD1FF21074854
:1063F0000BF080FABDE8F8434FF47A7124F084BEC4
:10640000081C0020043604001C350400F826002077
:106410002B35040000F0E0B82DE9F04700252448B2
:1064200086B002F043FFAA462E46224C224FDFF8E8
:106430009C80DFF89C902378FF2B27D02946384694
:1064400002F034FF2378A27904936378E17903930F
:10645000A37840460293E37801932379009363790C
:1064600002F024FF4846218902F020FFA37AB3B14D
:10647000A189124802F01AFF0136F6B21048013520
:1064800002F014FFC82D04F10E04D4D15346324655
:106490000C48F11806B0BDE8F04702F007BF0A4803
:1064A00002F004FF0AF101035FFA83FAE6E700BF96
:1064B00050350400081C00205F35040092350400AC
:1064C00090340400AB350400A135040067350400A6
:1064D0008A3504002DE9F843374C064689460025E5
:1064E000A0462378EFB2FF2B22D1D9F800303349F0
:1064F0002360D9F80430042063600E2303FB058574
:106500000123AB724FF496732E81AB810CF07CF8B3
:106510002046FEF70FFA042029490CF075F838469A
:1065200001F0DAFC27490420BDE8F8430CF06CB810
:1065300008224946204634F001FFA8BB4FF00E095F
:1065400009FB0589B9F80830B34210D01E49042070
:106550000CF05AF82046FEF7EDF904203346B9F85E
:1065600008201A490CF050F80120A9F808600E2301
:1065700003FB0585AB7A83B901231049AB72042074
:106580000CF042F82046FEF7D5F9042010490CF033
:106590003BF84FF49673AB81C1E74FF49673AB8130
:1065A0000028BCD1BDE8F8830135C82D04F10E04E4
:1065B00097D10849B7E700BF081C00200436040043
:1065C000D035040054360400F63504000E360400BD
:1065D000323604007936040010B5DE4C0C237F22DD
:1065E0002521204607F0A2FCA37A7F22002B14BFAE
:1065F0004FF4967300232621A38104F10E000C238F
:1066000007F094FC237E7F22002B14BF4FF4967377
:1066100000232721638304F11C000C2307F086FC70
:1066200094F826307F22002B14BF4FF4967300237A
:106630002821238504F12A000C2307F077FC94F825
:1066400034307F22002B14BF4FF49673002329218E
:10665000E38604F138000C2307F068FC94F842301C
:106660007F22002B14BF4FF4967300232A21A4F835
:10667000443004F146000C2307F058FC94F85030E5
:106680007F22002B14BF4FF4967300232B21A4F814
:10669000523004F154000C2307F048FC94F85E30AB
:1066A0007F22002B14BF4FF4967300232C21A4F8F3
:1066B000603004F162000C2307F038FC94F86C3071
:1066C0007F22002B14BF4FF4967300232D21A4F8D2
:1066D0006E3004F170000C2307F028FC94F87A3037
:1066E0007F22002B14BF4FF4967300232E21A4F8B1
:1066F0007C3004F17E000C2307F018FC94F88830FD
:106700007F22002B14BF4FF4967300232F21A4F88F
:106710008A3004F18C000C2307F008FC94F89630C2
:106720007F22002B14BF4FF4967300233021A4F86E
:10673000983004F19A000C2307F0F8FB94F8A43089
:106740007F22002B14BF4FF4967300233121A4F84D
:10675000A63004F1A8000C2307F0E8FB94F8B2304F
:106760007F22002B14BF4FF4967300233221A4F82C
:10677000B43004F1B6000C2307F0D8FB94F8C03015
:106780007F22002B14BF4FF4967300233321A4F80B
:10679000C23004F1C4000C2307F0C8FB94F8CE30DB
