S02B000045465233324D4732314130323046373638494D33322D426F6F744C6F616465722D554152542D584D8F
S113000008100020C10100007D240000EF2500003D
S11300107D2400007D2400007D2400007D24000058
S11300207D2400007D240000702F00007D2400004A
S11300307D240000B82F00007D2400007D240000F2
S11300407D2400007D2400007D2400007D24000028
S11300507D2400007D2400007D2400007D24000018
S11300607D2400007D2400007D2400007D24000008
S11300707D2400007D2400007D2400007D240000F8
S11300807D2400007D2400007D2400007D240000E8
S11300907D2400007D2400007D2400007D240000D8
S11300A07D2400007D2400007D2400007D240000C8
S11300B07D2400007D2400007D2400007D240000B8
S11300C07D2400007D2400007D2400007D240000A8
S11300D07D2400007D2400007D2400007D24000098
S11300E07D2400007D2400007D2400007D24000088
S11300F07D2400007D2400007D2400007D24000078
S11301007D2400007D2400007D2400007D24000067
S11301107D2400007D2400007D2400007D24000057
S11301207D2400007D2400007D2400007D24000047
S11301307D24000010B5054C237833B9044B13B16A
S1130140044800E000BF0123237010BD701000209C
S1130150000000008031000008B5034B1BB10349C7
S1130160034800E000BF08BD000000007410002038
S113017080310000064B0748DA1C121AC11E22F017
S11301800302994288BF0022034902F05BBE00BF0C
S113019070100020101000208C310000064B07481E
S11301A0DA1C121AC11E22F00302994288BF0022EF
S11301B0002102F054BE00BF48130020701000203C
S11301C008B5084B83F30A88074B084AC3E90022A1
S11301D000F00EF800F076FCFFF7CCFFFFF7DEFF2F
S11301E000F0D6FB0800002008100020A5EDF5FE65
S11301F0044B054A9A60D3F8882042F47002C3F88D
S11302008820704700ED00E0000000000023024A4F
S11302101370024A13707047C2100020C3100020EC
S113022038B503780546042B0C4650D008D8012B6A
S11302300AD0032B50D0182340F6031023700DE08E
S1130240182B49D0432BF5E7264B42781978D9B9B6
S1130250012A04D0152340F60410237038BD1A7007
S1130260AB781A44FF2AF5D100228021E81C02F061
S113027064FB95F88320C0F30F239A4216D015230C
S113028040F602102370E9E7174B1B78934204D120
S1130290062340F606102370E0E70133DBB29342F5
S11302A0DED0152340F605102370D7E795F8843087
S11302B0C0B2834204D0152340F601102370CDE769
S11302C06A78094B00201A7006232370C6E70623B8
S11302D040F607100B70C1E7182340F6081023708E
S11302E0BCE700BFC3100020C2100020014902482F
S11302F000F03AB8882E00008C10002010B592B09F
S113030047221849684602F09DFD02F04AF90A2284
S1130310C0F30363092B8CBF373330338DF81430AB
S1130320C0F30343B3FBF2F102FB113300F00F00FF
S113033030338DF81730B0FBF2F302FB130001F1F8
S11303403004303003F130018DF819108DF81A00A3
S11303500122472168468DF8164000F087FD0020F1
S113036012B010BD982E00002DE9F04F0024ADF519
S1130370277D4FF49472064688465CA821468DF882
S1130380134002F06CFD2146682206A802F067FDC6
S11303902146682220A802F062FD3C2700F05CFCA4
S11303A001244FF0FF35DFF82C93DFF82CA3DFF89E
S11303B02CB3062CFDD8DFE814F00B000F0020004E
S11303C043005D005301BF000424F2E70446F0E754
S11303D0FFF794FF0124ECE74FF47A7105A802F0CB
S11303E0ABF940B99DF81430313BDBB2022B8EBF20
S11303F00446B44AD45C3C27DBE701221121B2480D
S113040000F034FD2C220021304602F028FD202388
S113041020AA06A95CA800F0CBFE0024FF2301213A
S113042005207370748000F037FC00F06BFD18B188
S11304300121204600F0DCFDFFF7E8FE0324B8E7C5
S1130440432002F021F800214FF47A7000F024FCDC
S113045000F058FD18B900F045FC0028F8D000F071
S113046051FD0028B0D1013FA3D1182002F00CF8AF
S113047000249EE7002185220DF1E90002F0EFFC43
S1130480002140F6B83000F007FC00F03BFD78B3E3
S11304904FF47A730093012305AA19460DF1E9007C
S11304A000F054FD9DF8E930012B0DD140F6B8322F
S11304B0842100920DF1EA0005AA00F047FD059B96
S11304C00546842B18D1C8B90DF113010DF1E900CB
S11304D0FFF7A6FE40F607139842054614D1B378F9
S11304E00BB1F37813B918238DF8133006241DE0EB
S11304F000F0F8FB0028C8D040F2047515208DF8F0
S1130500130001F0C1FF54E780B99DF8E930012BD5
S11305100CD180233146CDF800803BAA5CA800F0C2
S113052081FE054610B118238DF813309DF8130091
S1130530182808BF0624E4E70121002000F058FD34
S113054001210A2000F0A8FB9DF813300122062B9C
S113055008D140F607139D4204D11B215B4800F0EB
S113056085FC85E71A21504600F080FCA5F5106350
S1130570B3F5E06F4FF0010222D21121544800F08C
S113058075FC40F606139D4222DD9DF813309F2B27
S11305904FEA13108CBF3730303000F09FFC9DF8C9
S11305A0130000F00F0009288CBF3730303000F002
S11305B095FC0D2000F092FC0A2000F08FFC57E718
S11305C01021584600F052FC40F606139D420BDC05
S11305D0B5F5106FD9DDA5F60213042B2CD8DFE88E
S11305E003F02D25292F3100A5F58053013B092B5C
S11305F0CBD8A5F58053013B092BC6D801A252F8EC
S113060023F000BF590600008B0500008B05000095
S11306105D0600004D060000550600005906000066
S113062051060000490600005906000021238DF8F8
S11306301330AAE72223FAE72323F8E72423F6E773
S11306402523F4E72723F2E74123F0E74323EEE7EA
S11306504423ECE74523EAE74F23E8E75023E6E7A2
S1130660B3784BB3F3783BB3337813F004040AD074
S1130670B06A01F09AFF00283FF4A8AE4FF400409E
S113068000F01CF9F4E69B0711D57368039301F09D
S113069088FF039B834204D94FF40040716A00F041
S11306A0C9F801221321484600F0E0FB81E640F23C
S11306B0012000F0A7FAF4E740F2032000F0A2FAC8
S11306C0D6E600BFDF2E00003A2F00001F2F0000E7
S11306D04B2F0000E22E0000052F0000F52E000035
S11306E0F0B5421ED11C034685B019D86E460D4C98
S11306F004F11007354620686168083403C5BC421C
S11307002E46F7D10DF10F010F3311F8010912F83C
S1130710014F844204D19A42F7D1012005B0F0BDC3
S11307200020FBE75C2F00002DE9F041036804463C
S113073003F16043B3F5803F4FF00000A0B029D827
S1130740826A636816699E4224D8B3F5402F21D883
S1130750656B06F14003AB4268D8B5F5402F65D808
S11307602846FFF7BDFF002860D0284601F0FDFEB3
S113077080B16B6973B1022B0FD1AB69C4F1040171
S113078019444FF0FF32204601F080F8284BC31A79
S11307905842584120B0BDE8F08140F20463284635
S11307A00493FFF79DFF08B90020F3E7284601F002
S11307B0DCFE0028F8D00027D7F834804046FFF745
S11307C08FFF0028F0D0503EB045EDD8284605A94B
S11307D001F0D2FE0028E7D0BA6A059B12699A425A
S11307E0E2D89C42E0D8B3F5402FDDD806A802F049
S11307F0E5F8059A2146121B06A802F0E9F806A8B6
S113080002F0E8F8059C01F0CFF8039001F0E4F859
S113081021460090039B04F1200206A801F04AF847
S113082004900498B0FA80F04009B3E70120B1E7DE
S1130830E320BBDE70B54FF0FF3290B005460C46A6
S113084001F024F81A4B98422ED11C22002101A851
S113085002F005FB174B29466846043C009302F05E
S11308603CFA2146684602F038FA684602F03EFA3D
S113087001F01BFE0646B8B940F2022000F098F9D8
S11308801C22314609A802F0EAFA0B4B294608A8B3
S1130890089302F022FA08A8214602F01EFA08A8DA
S11308A002F024FA01F001FE002010B070BD00BF78
S11308B0E320BBDE010005430100064330B50446D6
S11308C091B01C22002101A802F0C9FA114B214663
S11308D06846009302F001FA684602F007FA01F054
S11308E0E4FD054698B940F2022000F061F91C22AB
S11308F0294609A802F0B3FA074B08A82146089331
S113090002F0EBF908A802F0F1F901F0CEFD0020A5
S113091011B030BD000002430000034310B58CB099
S11309201C220446002105A802F099FA0A4B0194FE
S1130930049301230293094B01A904A8039302F031
S1130940C2F904A802F0D2F901F0AFFDB0FA80F0C8
S113095040090CB010BD00BF000008430400002093
S113096038B50C46054680B179B100230B60074BBE
S1130970036002F055F901301EBF2B6843F4404375
S11309802B60236843F40053236038BD14240040D3
S113099013B501A801F040FC9DF80530012B27D1C7
S11309A0404A936DDB0313D4536B23F4FF0323F406
S11309B0FE4343F4BC1343F4A0635363136B23F467
S11309C0704343F440431363136B43F4E0631363D2
S11309D09DF8043063B94FF000531B68324B1B6819
S11309E0324B1B68324B1B68324B1B68324B1B6803
S11309F0324AD2F8803043F00303C2F8803001F069
S1130A00E7FD00F0C7F808B900F0ACF802F069F8A7
S1130A1070BB00F0BFF808B100F0B4F840F2012058
S1130A2000F0F0F801F02BFD01F02BFD18B14FF4AC
S1130A30017000F0E7F8FFF759FC044601F023FDCC
S1130A401CB140F203739C4203D140F2012000F038
S1130A50D9F8A4F20573012B03D940F205439C4253
S1130A601CD140F2032000F0CDF8002002B010BDEC
S1130A7000F090F808B900F07DF800F0A5F801281E
S1130A8002D900F06FF8FEE700F0AAF80C4B0193CE
S1130A90019B002BC6DD019B013BF8E74FF401707D
S1130AA0E1E700BF00C000400040002000800020BB
S1130AB000C0002000000120004001200080004010
S1130AC000350C0013B501244FF040238DF8064087
S1130AD08DF80740D3F894305B060BD500F0A6F8E8
S1130AE0A0F2022080B2072804D804FA00F010F023
S1130AF0C90F02D100F0DEFA20B100238DF80630D0
S1130B008DF807304FF480435B68013308D14FF40C
S1130B10027000F04DF800238DF806308DF8073090
S1130B209DF8073063B14FF48040FFF7FDFD8DF869
S1130B3006009DF806301BB94FF4027000F038F837
S1130B409DF8063053B100F025F808B100F01AF80A
S1130B504FF48040024B986001F03EFD02B010BD9E
S1130B6000ED00E04CF23C32014B5A80704700BF6C
S1130B70000000204AF6C032014B5A80704700BF83
S1130B80000000204FF20F02014B5A80704700BF53
S1130B90000000204AF6C030044B5B8823F00F03AA
S1130BA09BB21B1A58425841704700BF00000020F6
S1130BB0044A08B51080FFF7EDFF10B94FF20F0398
S1130BC0538008BD0000002008B5FFF7E3FF18B10B
S1130BD0024B588800F00F0008BD00BF0000002041
S1130BE008B5FFF7D7FF48B1054A538803F00F0152
S1130BF00F2914BF013323F00F03538008BD00BF36
S1130C000000002008B5FFF7D3FFBFF34F8F05495D
S1130C10054BCA6802F4E0621343CB60BFF34F8F05
S1130C2000BFFDE700ED00E00400FA054FF20F01FC
S1130C30084B5A888A4201D1188870473AB91B88F0
S1130C4040F20220012B18BF4FF4007070474FF49C
S1130C5000707047000000201FB500F0E7F94FF462
S1130C607A23B0FBF3F00A4B102218600021684687
S1130C7002F0F5F801238DF8003040F2FF336946A5
S1130C800448ADF8023002F056F805B05DF804FBF4
S1130C90B81000200080044030B50D4D0D4A2D6879
S1130CA0536A15FB00F010FA83F09CB280B2A042A4
S1130CB02CBF00240124084B1880084B1C7011B170
S1130CC0536A8342FCD1012305494B61936130BDD2
S1130CD0B810002000800440C0100020C410002080
S1130CE000A00440094B0A4A5869127800F0010038
S1130CF00AB108B9704738B9586A064B1B8898423C
S1130D0034BF002001207047012070470080044058
S1130D10C4100020C01000202DE9F0410125DFF8A7
S1130D201C813E4BD8F800203D4F02F13C019960F4
S1130D3002F124037B627B6002F580535D6040F620
S1130D40AA630024536141F20503364E364802F586
S1130D5000519460D465D3601461D461D464886410
S1130D60C6F8CC45C6F8E445C6F8DC45C6F8D44513
S1130D70C6F8D845D3609368936000F057F92B4BBD
S1130D8021461A6F4FF46103C2F380222A44B0FB58
S1130D90F2F202F561325201B2FBF3F2244B203A33
S1130DA003EAC202D8F800302846DA612B4604224E
S1130DB001F0B0F82B462A462946284601F0AAF845
S1130DC01423C6F8CC354FF001130522C6F8E455B8
S1130DD0C6F8DC35D8F800304FF4A0215A614FF042
S1130DE0F053144A55609360134B54629463146433
S1130DF05465196002311466D4651767596003217C
S1130E00A3F50053C2F89040C2F88C405963022302
S1130E10956402F580521361BDE8F0815010002002
S1130E201010002000C00340FFFF010000800040BC
S1130E30F8FF7F00000004400040044060100020E0
S1130E40084B586B10F0020006D002229A6203F598
S1130E50005301205A637047DB6A9B07FBD40222CC
S1130E60014BF6E700000440002004407F2938B518
S1130E700446154624D8FFF7E3FF20B32046134B5E
S1130E80621890420DD1124B01391A8861F30E1287
S1130E901A80104AC2F8A0300223936435B90020A6
S1130EA038BD10F8014B03F8014BEAE7FFF7C8FF20
S1130EB00028FBD0084B1A6893699B06FCD5EEE723
S1130EC041F20310ECE741F20620E9E7C5120020E5
S1130ED0501000200000044060100020014608B5B6
S1130EE0FFF7AEFF0028FBD0054B1B689A6950063C
S1130EF0FCD5D9639A699206FCD5002008BD00BFD1
S1130F00601000200E4BD86E40F2011398420FD0AF
S1130F1040F2022398420DD00A4BC01A0A4B1B68B8
S1130F2083420AD02ABFC3F50073C01AC0187047A1
S1130F300020F3E74FF48070F0E70020704700BF13
S1130F4000000440C5100020BC1000202DE9F84327
S1130F50089F04460D461646F3B9FFF7D3FFA8428F
S1130F6028BF284600214FF001084FF002091D4A0E
S1130F70DFF878E013681C4F04EB000C64451DD1C6
S1130F8001B1136006B1306041F20423A84234BFBA
S1130F9018460020BDE8F8832FB1FFF75DFE00215D
S1130FA03846FFF779FEFFF7ADFFA842D5D2002FF0
S1130FB0F9D0FFF797FE0028F5D0CEE71EF803100E
S1130FC00133B3F5007F04F8011B04D10023C7F8F3
S1130FD010900121D2E7B3F5807F08BFC7F81080D5
S1130FE0F7E700BFBC10002000100440C51000202B
S1130FF010B10222094B9A6271B101220020074B01
S113100007499A624A6307491967074908609A645D
S1131010022203F580531A61002070470000044047
S11310200020044010100020BC10002030B51A4BE2
S113103087B001AA03F110051446186859680833EB
S113104003C4AB422246F7D11B782370134B1B6FAA
S113105003F00703032B1BD0114A9368C3F3044323
S1131060102B17D818336B4413F8143C0D480E4951
S113107043438B4203D19268C2F30162D340074ACF
S1131080106FC0F301300130B3FBF0F007B030BD96
S1131090064BF4E7064BF2E70830000000800040FE
S11310A00000014040420F0000093D0000F04902E9
S11310B0C0EA210113B5022101230422084600F0ED
S11310C029FF00230093009B632B19DD02220123D7
S11310D01146104600F01EFF00230193019BB3F557
S11310E0FA7F10DB0221094B08465C6F00220123C2
S11310F000F010FF6FEA940000F0010002B010BD90
S1131100009B0133DEE7019B0133E6E700C00340A7
S113111030B500220C24064B04FB02F1CD58854265
S113112001D1581830BD01320C2AF5D10020F9E75D
S11311301C3000007FB50023CDE900330823154699
S11311400DEB0302044601F022FB41F20303984233
S1131150064626D194F8433063B10822E06C0DEBC7
S1131160020101F035FC08230DEB03021146A06CCB
S113117001F013FC039A029B6A6094F843202B60ED
S11311805AB9094A934208D0084A934205D0082222
S1131190E06C0DEB020101F01BFC6B68236500237E
S11311A06365304604B070BDF70A0AF7FC0404FC1A
S11311B02DE9F04100254FF0FF37044688461646D6
S11311C003F0200380F842301822FF21C0E91855AB
S11311D0A0F8405080F84350A0F8445080F846509E
S11311E0C0F88870683001F03AFE88222946C4E9C4
S11311F01286C4F88070C4F8847004F1900001F081
S11312002EFE074BC4F82071C4E9463584F82451F6
S113121016B1304601F0D2FB0020BDE8F08100BFDA
S1131220000101012DE9F04FA5B09846CDE9112345
S1131230002304460E462E9D1393139A424501D370
S11312400020D1E094F84630132BF7D8DFE813F0F0
S11312506700B400AE00520039002D00C10139000E
S1131260B901390073013900B901A8021803140047
S113127012014F024F0216034FF00009636D0F2B4A
S113128000F298800127102314AA2046CDF8049078
S1131290009711A901F07BFA41F203030890089A20
S11312A09A4200F0D980089B45E04FF00109D4E947
S11312B01432934200F2E88084F8469041F203032A
S11312C039E04FF00109D4E91417B94272D9C91BA6
S11312D0DDE91272BF1A94F840200329174440F242
S11312E08181032F00F28181204611A901F02EFA99
S11312F0002320E00127636D072BDFD8082314AAFD
S11313002046CDE9007711A901F041FA41F2030327
S11313100B900B9A9A4200F023810B9B0BE014AACA
S1131320204611A9FFF706FF41F203020590059B31
S1131330934208D0059B049341F20303049A9A4212
S11313403FF47BAF4FE0159A149922650022626541
S1131350A24A914240F00F81022284F84620EAE733
S1131360012314AA009320460823019711A901F030
S11313700EFA41F203030690069A9A4201D0069BA4
S1131380D9E7149B03F07F43B3F1407F05D01323C7
S113139084F8463041F20903CDE7159BD90706D5F9
S11313A094F8423043F0010384F842300027636D1F
S11313B0072BD5D9012309E1204614AA11A9FFF767
S11313C0B9FE41F203030790079F9F420FD0079F86
S11313D041F203030497049A9A423FF42EAF049B0C
S11313E00BB10023F370049825B0BDE8F08F149876
S11313F0FFF78EFE28B9132341F2080784F846301C
S1131400E6E7437994F824219A4205D9132341F25B
S11314100E0784F84630DBE7026871498A4205D03A
S11314200289D20748BF013384F8243194F842304A
S1131430D9070DD5028994F84330920706D53BB1FC
S1131440132341F2010784F84630C1E7002BF7D09B
S1131450037984F84630BBE7D4F848A000F0D4FA06
S113146080230221CDE9000315AA3B46504601F032
S113147071FA03E7226D0123A265002284F8433048
S1131480E26584F84630D8E614AA2046CDE90099EE
S113149011A901F07CF941F203030990099A9A42D7
S11314A001D0099B47E714AF06F108030DF1680C5E
S11314B03A4603CA624518605960174603F10803A7
S11314C0F6D110681860337843F001033370EEE608
S11314D0337843F004033370179BB36273785F0768
S11314E026D5EB238DF8503017238DF85130A623E1
S11314F08DF852305E2300208DF85330236D6066E2
S1131500C4F8843094F8453043F0020384F845303D
S1131510EF686FB104222B6814A9B8470822606EE3
S11315202B68EF6816A91044B847636E10336366DE
S11315300B2384F84630636D072B3FF6BFAE0123BF
S113154016AACDE900332046082311A901F01FF99A
S113155041F203030A900A9A9A42B9D00A9BEAE636
S11315603378159A43F002033370149B7360236D30
S1131570083B73622AB1132384F8463041F2010315
S1131580D9E6042384F8463094F84530626643F083
S1131590010384F84530AEE6042314AA2046CDE9BD
S11315A0007711A901F0F3F841F203030C900C9AAF
S11315B09A4201D00C9BBEE6236D042B02D9149BE6
S11315C023660127636D032BE6D9092384F846308B
S11315D074E600236366072353E700BFEB17A603F3
S11315E0F90707F98F42FFF47FAE402928BF402155
S11315F08F4228BF0F46032F88BF27F003073B46BF
S113160014AA2046CDE9009911A901F0C0F841F2CD
S113161003030D900D9A9A4201D00D9B8BE694F82A
S113162046A0BAF1070F04D1D5F808B0BBF1000FFA
S11316301BD1042FC7F1040B88BF4FF0000B14AB70
S11316405A46FF21D81901F00AFCBAF1090FBB442C
S113165014D12B465A46204614A901F00DF90D90D9
S11316600D9B002B3FF42FAED7E73A462B68606EF4
S113167014A9D847626E3A44626624E6BAF1040FAC
S113168021D1737898077FF51EAEEB68002B3FF4E9
S11316901AAE626E042A0BD80BEB0203062B07D991
S11316A015AB9B1A1A68C4F884204FF0FF321A60F5
S11316B05A462B68606EEF6814A9B847626E0BEB4C
S11316C002076766FFE5BAF10B0F7FF4FCAD737890
S11316D059077FF5F8ADD5F80CA0BAF1000F3FF427
S11316E0F2AD5A462B68606E14A9D047E6E7002194
S11316F08A6A496B1269503A91423FF63FAF112B07
S11317000FD194F81831002B7FF454AE41F2060344
S11317100E930E9A9A4202D1132384F846300E9BFC
S113172009E694F84430002B7FF444AECDE900334D
S113173014AA4023204611A901F029F841F2030319
S11317400E900E9A9A42EAD1E06C01F043F994F8B3
S11317501831A3B104F1B403E06C00931CAA04F1A2
S1131760940314A900F0A6F80E900E9B9BB10023DD
S1131770F370132384F8463041F20603DBE5E76C8B
S113178000F012F9039000F027F9039B00901CAAC3
S1131790384614A9E6E70123F37084F8443009E6D7
S11317A0002314AACDE900332046042311A900F034
S11317B0EEFF41F203030F900F9A9A4202D00F9B5F
S11317C0049310E6D4F888202F4B9A4205D01323B3
S11317D084F8463041F20503F2E70123F37094F8EC
S11317E04530DA0707D5EF682FB104222B6810467D
S11317F004F18401B84794F845309B0707D5EF6896
S11318002FB104222B68104604F18401B847236EDB
S11318106BB36F685FB34FF0FF3304F180010422B0
S113182010A81093039101F0FDFA28B1042248F2A4
S113183004002B680399B84704F168090422494657
S113184010A801F0EFFA90B100239B6A1422D3F898
S1131850108004F16C0108F10800D5E90037B8479D
S1131860D5E900370422494608EB0200B8470123B2
S1131870B3700E2384F846300023A1E70023F370ED
S113188041F20700B0E500BFE320BBDE30B5012420
S11318900025074B01445C609D601A61DC6088424E
S11318A001D1586A30BD10F8012B1A62F7E700BF66
S11318B0008008402DE9F04399B00E4615461C46B9
S11318C00746DDF88090002861D000295FD0002A07
S11318D05DD0002B58D02F4B2F4AB9F1000F14BF05
S11318E0984690461C22002111A801F0B8FA2B4B0F
S11318F0414610A8109301F0F0F9202110A801F03E
S1131900ECF90122264B019402920393CDF8109036
S11319100592069354B1B9F1000F07D001A910A89C
S113192001F0C7F904A910A801F0C3F9079701272A
S11319301B4C07A910A80897099401F0BAF90AA941
S113194010A80A960B970C940D950E970F9401F01E
S1131950B0F90DA910A801F0ACF910A801F0C6F96E
S1131960104B00934FF098435A6CD202FCD55B6D38
S113197040F2046003F470230093009B002B08BF23
S1131980002019B0BDE8F083DFF80C80AAE740F22C
S11319900160F6E71F2400801F24FC840000010678
S11319A0200000207856341200B591B00023402264
S11319B069464FF4807000F009FCB0F5A02F07D001
S11319C0B0F5302F034818BF002011B05DF804FBB8
S11319D00048FAE74CE30B0000B591B00023402225
S11319E069464FF4807000F0F1FBB0F5A02F07D0EA
S11319F0B0F5302F034818BF002011B05DF804FB88
S1131A000048FAE76CE30B000048704786E20B00DD
S1131A102DE9F34799460A9B0C46196805463F2968
S1131A20164642D85A68002A41D0224A002E14BFD2
S1131A30B046904601F03F07091928BF5A6819605B
S1131A4024BF01325A60AFB1C7F1400AA24521D880
S1131A502946524609EB070001F0F4F901234146F7
S1131A6000934A463346002000F086F8B046403CD6
S1131A7055443C443F2C0CD9A3092A4600934146C3
S1131A803346002000F078F824F03F031D4404F0AE
S1131A903F0400272CB12246294609EB070001F038
S1131AA0D1F9002002B0BDE8F0879046C2E7DFF824
S1131AB00480BFE7AC30000030B405460846114648
S1131AC01A46DDE9023425B931B1029430BCFFF77E
S1131AD09FBF024830BC70470846FBE780AFFFFF5A
S1131AE02DE9F0411746146886B01E46E3008DF8D0
S1131AF00F30630952688DF80E30630B8DF80D308A
S1131B00630D8DF80C30D30003EB54738DF80B3058
S1131B1004F03F045309372C8DF80A304FEA52334E
S1131B204FEA525205468DF80820884694BFC4F106
S1131B303802C4F17802CDE900178DF809300D4957
S1131B4003460020FFF7B8FF082143462A460097C2
S1131B500DEB0100FFF75CFF284605F1200350F868
S1131B60042B984246F8042BF9D1002006B0BDE8B6
S1131B70F08100BFCC300000F0B593B00E4617469C
S1131B800446202200210AA81D4601F068F901201C
S1131B904FF000520197029003920496059006922A
S1131BA0079508900992002C2FD1189C184BA4017A
S1131BB021460AA80A9301F090F803990AA80C4355
S1131BC00394069B04A943F020030693099B43F066
S1131BD02003099301F06DF801A90AA801F069F83E
S1131BE007A90AA801F06FF80AA801F07FF84FF0DE
S1131BF098435A6CD202FCD55B6D13F4702F0CBF62
S1131C0000206FF06F0013B0F0BD6FF07100FAE7C1
S1131C100004010331B10A4B5A68824205D80023FB
S1131C20C1E9003340F201407047013053F83020DD
S1131C3003EBC00043680A6000204B60704700BF9C
S1131C407031000070B40C4611460C4A5568854248
S1131C500DD9013002EBC0067668E518B5420AD802
S1131C6052F830001A46204470BC00F09EBF40F287
S1131C70014070BC704740F20240FAE77031000046
S1131C8030B5CA681B4B04469A420D46A3B019D11D
S1131C9000F09BFCD4F82432174A013352F8333055
S1131CA0D4F82C221344984208D38033984209D2A2
S1131CB041F20D03C4F8303223B030BD00F540408A
S1131CC09842F5D88023D4F82C1202AAD4F824021E
S1131CD0FFF7B8FF80232146009502AA04F12C00E7
S1131CE0FFF7A0FAD4F82C32C4F830028033C4F8D9
S1131CF02C32E1E7212500007031000070B50D465B
S1131D00002186B00DF1070302931D4B04461646CD
S1131D10116028461C22CDE903338DF80710059382
S1131D2001F09DF8D4F830322BBBD4E98A219142DA
S1131D3007D2204602A9FFF7A3FF9DF80730002B26
S1131D40F0D02278910744BF61683160D20709D589
S1131D5004F1080204F1240152F8040B8A4245F804
S1131D60040BF9D14BB9237840F20640002B18BF7D
S1131D70002006B070BD0023E3E70020F9E700BFB0
S1131D80E72A000070B40C4611460C4A5568854297
S1131D900DD9013002EBC0067668E518B5420AD8C1
S1131DA052F830001A46204470BC00F014BF40F2D0
S1131DB0014070BC704740F20240FAE77031000005
S1131DC0074B5A68824207D9013003EBC0025168BD
S1131DD053F8300000F026BF40F20140704700BFC6
S1131DE07031000070B5054688B0C0B14FF4403280
S1131DF000236C46C0E900230A4B05F114061A7847
S1131E005B680272C360684600F06EF80FCC0FC6C0
S1131E1094E80F0086E80F0005F114032B6108B065
S1131E2070BD00BF7031000000B5ADF5137D4FF4F7
S1131E300D7205A900F088FE78B904238DF81530D9
S1131E40074BCDE90100039001A905A8049300F014
S1131E508FFE0DF5137D5DF804FB0020F9E700BF4C
S1131E6021250000002300B59B6AADF5137D9B6816
S1131E708B4204D300200DF5137D5DF804FB4FF471
S1131E800D7205A900F060FE0028F3D102238DF83D
S1131E901530054BCDE90100039001A905A8049371
S1131EA000F066FEE7E700BF2125000000B5ADF5B0
S1131EB0137D4FF40D7205A900F046FE78B9012395
S1131EC08DF81530074B0190CDE90230049001A93B
S1131ED005A800F04DFE0DF5137D5DF804FB002010
S1131EE0F9E700BF0125000070B504460646044D1D
S1131EF00FCD0FC495E80F0084E80F00304670BD85
S1131F0050310000024BD86900F00100704700BF57
S1131F1000000340F8B504460D461F4616464AB174
S1131F2001238B403021194A01FB0022FFB141F209
S1131F301001535004EB4403072D4FF00F014FEAF7
S1131F40031317D8A80006FA00F281401048184479
S1131F5000F095FE56B9012130230C4801FA05F52D
S1131F6003FB040077B141F21003C550F8BD42F2FF
S1131F701001DEE7A5F10800800006FA00F28140B6
S1131F800448E4E742F21003EFE700BF00C0034057
S1131F9004C003400CC00340F0B5114A114C124E6A
S1131FA000F00105E3695F0713D40DB9334213D17F
S1131FB003EA00078F4207D10B4A1A40002A14BFD4
S1131FC06FF001000020F0BD013AEBD16FF0020088
S1131FD0F9E74FF0FF30F6E76FF00100F3E700BFD9
S1131FE080969800000003400200010070B5134C75
S1131FF06061E3695B071ED40E4656F8043B8D18F6
S1132000A361AE420BD10423002121202361FFF7F9
S1132010C3FF58B9BDE870402120FFF7BDBF0821B8
S11320200846FFF7B9FF10B10423236170BD56F8C9
S1132030043BA361E5E74FF0FF30F7E700000340FE
S113204038B541F6713301220C4C0021E569E36394
S11320500B4B05F48035DA60022360612120236193
S1132060FFF79AFF10B92120FFF796FF0122054BD5
S1132070DA600DB10023E36338BD00BF0000034004
S113208000100340002003402DE9F843154641F6B3
S11320907132164B8946DF69DA630122064603F57D
S11320A08053DFF8508007F48037DA6055B928464A
S11320B001220F4BDA601FB10022A3F50053DA634B
S11320C0BDE8F88306F5005404EA0804A41BAC42F6
S11320D028BF2C46494622463046FFF787FF002892
S11320E0E6D12644A1442D1BE0E700BF00000340D5
S11320F00020034000E0FFFF2DE9F04F06464FF4B7
S1132100502501202A4CDFF8B4C041F67137CCF8D1
S1132110040044F8265030250024DFF8A4E0DFF85A
S1132120A49005FB06E5EC652C662C67214CDFF8D2
S113213098A0D4F81C80E763E76800FA06F6074322
S1132140E7604BB9E26818F4803F22F00102E260D4
S113215000D0E363184628E001F5005000EA0900C6
S1132160401A984228BF18466161D4F81CB0870809
S11321701BF0040F17D1013F3F0147F060576F6612
S1132180AA66C5F86CA0CCF82460DEF834703E4230
S1132190FBD0094F01447E630427CCF82860024435
S11321A027611B1ACDE74FF0FF30BDE8F08F00BF69
S11321B0004004400000034000200440001004409C
S11321C00000044000E0FFFF18000340F0B507469C
S11321D00F4D10488DB0002B08BF05460E4614461F
S11321E000211C2205A800F03AFE012304A801A93D
S11321F03D4344F00054019604950293039400F087
S113220062FD00F073FD00F04BFD0DB0F0BD00BFAA
S113221001000AFF010008FF054B5B69C3F3851247
S1132220827003F03F021B0B42700370704700BFC3
S113223000C007402DE9F04104681E4624F0400325
S1132240802B05468846174692B002D0B4F5807FAD
S113225043D11C2200210BA800F001FE224A234B8B
S11322600121B8F1010F18BF13460A932B1D0193E6
S1132270E4081F4B44F0005402910AA80394049705
S1132280059106930796089101A9099300F011FDA1
S113229004A90AA800F00DFD07A90AA800F013FD7F
S11322A029680AA8C90800F018FD10210AA800F03E
S11322B014FD00F094FD98B90AA800F017FD4FF042
S11322C098435A6CD202FCD55C6D00F08AFD04F48C
S11322D07024204612B0BDE8F0816FF07100F9E778
S11322E04FF0FF30F6E700BF0001010400010004D5
S11322F0100000202DE9F04F9BB007468946984610
S11323001646DDF894B072B115683B6823F04002BC
S1132310802A03D0B3F5807F40F0A6800BEB09033D
S1132320002400930DE01546EFE795B1249A1BF8BD
S11323300430525D01355340269A05F00F051355BC
S113234001344C45F1D3002E00F09180002035601B
S113235067E0A9EB040ABAF10F0F57D91C222946EA
S113236013A800F07CFD434B3A6812933B1D039382
S11323700123D20842F00052049305923E4A269962
S1132380CDF818802AF00F0A07930892CDF824801C
S11323900A930B920BEB04020C9221444AF0005274
S11323A00D9312A80E920F9103A91093119200F0AD
S11323B080FC06A912A800F07CFC0CA912A800F06D
S11323C078FC0FA912A800F07EFC09A912A800F05D
S11323D07AFC396812A8C90800F07FFC514612A89B
S11323E000F07BFC00F0FBFCC8B912A800F07EFCF6
S11323F04FF098435A6CD202FCD55B6D544403F4FD
S11324007023019300F0EDFC019B5BBB269B0BEB5F
S1132410040A1C44009B9A4506D14C4691E74FF0B0
S1132420FF301BB0BDE8F08F8DB94246012138461C
S1132430249BFFF7FFFE0028F3D108F1100212F8E5
S1132440013D0133DBB213700BB99045F7D1249AE7
S11324501AF8013B525D0135534004F8013B05F085
S11324600F05D7E71846DCE76FF01F00D9E73046C1
S1132470D7E700BF0303000410000020FEE700F0CC
S113248012B8FDF73BBF704710B50446FEF726FDB2
S1132490182C07D12046FEF721FD2046BDE8104048
S11324A0FEF71CBD10BDFEF737BC4FF098435A6CC5
S11324B0D202FCD5586D00F470207047C0F30C03B1
S11324C02DE9F04105460F4616460BB900F006F912
S11324D005F5005424F4FF5424F01F0405EB06080A
S11324E0A04507D8324639462846BDE8F0410223C4
S11324F000F0FBB8204600F0F1F804F50054EFE7D3
S113250070B40025AD6A03462E69864206D86C690C
S113251013449C4202D370BCFFF7D0BF70BC704719
S11325201FB510F5004F00F50043144603931AD26B
S1132530039BB3F53E2F16D2039BC3F53E23934270
S113254011D348B9836A5A69B2F5004F04D918699E
S1132550019100F0C3F801992246039804B0BDE844
S11325601040FFF7ABBF04B010BD036913F0FE0FBA
S11325700CBF01200020704738B504460D46FEF715
S1132580AFF848B16369012B09D12046FFF7EDFF8D
S113259008B1A3692B6038BD01202C60FBE7002043
S11325A0F9E700239B6A986870474FF0FF3313B52F
S11325B0044601A80193FEF7B1F920B1019BA3429F
S11325C02CBF0020012002B010BD4FF40040704722
S11325D000F0E9BA00F04ABB4FF4804318460168A2
S11325E081F3088881F3098840688746FEE74FF441
S11325F00170FEF707BBB1F50D7F10B504460FD38C
S11326004FF40D72002100F02AFC04F5DE7204F58B
S1132610AA7104F12C000023BDE81040FEF7C8BDE8
S113262040F2052010BD13B50446009101462C303C
S1132630FEF7F8FDC4F8300218B141F207039842DE
S113264009D1A3784BB140F2032040F20223E2788F
S1132650002A08BF184602B010BD40F20120FAE774
S11326602DE9F04387B00DF1080904460E461746DC
S11326700021102248461D46DDF8388000F0EFFBAB
S113268000211C22C8F80010284600F0E8FB32465E
S11326903B462146CDF8009004F12C00FEF7C2FD24
S11326A023789A0744BF6268C8F80020DB0709D57D
S11326B004F1080304F1240253F8041B934245F87F
S11326C0041BF9D1237840F20640002B18BF0020E8
S11326D007B0BDE8F0834FF40D70704708B5FFF7FD
S11326E0AFFCB0FA80F0400908BD072B10B50446D2
S11326F018460FD862B142EA04039B070AD1134675
S11327000A462146FFF7F8FCB0FA80F0400910BDF4
S11327100120FCE70020FAE7134610B542B1034359
S11327209B0707D1FFF7B0FCB0FA80F0400910BD59
S11327300120FCE70020FAE7012307B500220091FD
S11327401946FEF703FC03B05DF804FB70B5D1E94C
S11327500152AA4205D290F840302B449B1A402BD8
S113276010D9002012E00A6890F84040D65C90F836
S113277041200133224402F03F02013486548B602D
S113278080F840408B689D42EDD8012070BD2DE952
S1132790F8431D461746D1E901329B1A90F84020B0
S11327A0044613449D420E469DF820909DF82480D3
S11327B056D9FFF7CBFF00285CD1132341F2020066
S11327C084F84630BDE8F88394F84120A25CFA54BA
S11327D094F841200133013202F03F0284F8412091
S11327E094F84020013A84F8402094F840200AB13B
S11327F09D42E9D1D6E90121914201D29D4231D8CD
S11328009D42DAD129463846D4F88820FFF73EF8AD
S1132810C4F88800B9F1000F04D02A463946E06CA8
S113282000F0D6F8B8F1000F08D094F843308BB11B
S11328302B463A463946A06C00F0AFF894F8433082
S113284043B1E36DA26D2B449342E36524BF00239F
S113285084F84330636D41F203002B446365B1E7B0
S11328600023C2E73268525CFA54B2680133013281
S1132870B260BFE70020A5E72DE9F7430446586896
S11328800E4617469846002842D011F0030342D161
S11328909B6A206E1B6902EB000C1D1D65451CD84C
S11328A01C33984219D28542294638BF01469C45BB
S11328B094BFC1EB0C02C1EB0302081AC5F1680511
S11328C006EB0009681820444946019200F0BAFA60
S11328D0FF214846019A00F0C2FA48F20403226E2E
S11328E09A420BD848F20701B818884206D99B1AB5
S11328F0F258C4F880204FF0FF32F2503A46D8E93B
S11329000035206E3146A8470020226E3A442266E4
S113291003B0BDE8F08341F20200F9E749BA89B295
S11329204840C0F30313584003B283EA003358010C
S113293000F4FF509BB25840704738B50446451820
S11329401046AC4200D138BD014614F8010BFFF724
S1132950E5FFF6E7F7B50446203016461D460F4658
S1132960019000F040FADDE90812019800F03FFA06
S1132970002384F8587063643368C4F8593073686A
S1132980C4F85D30B368C4F861302B0C6DBA84F8B8
S11329906530A4F8665003B0F0BD1FB50C46194667
S11329A000F14803CDE90142009300F1440200F133
S11329B058032030FFF79EFC04B010BD10B5044648
S11329C000F00BF82046BDE81040002100F009B8E3
S11329D000F00CB8014600F016B86822002100F09F
S11329E03EBA0023C0E900331846704707B500F12A
S11329F028030190009300F108030020FFF75CF81E
S1132A0003B05DF804FB02460B4600F128010830D0
S1132A10FFF766B810B500244A1EA1424FEA8202AD
S1132A204FF0FF0108BF224640F8044B00F017FAAC
S1132A30204610BD036840F204500133022B38BF16
S1132A400020704740F20250704710B5ADF50E7D7E
S1132A504FF40D72002001A900F076F840F2012431
S1132A60002101A800F042F8A042F9D040F203236B
S1132A70984220D19DF8043059070CD49DF80430B5
S1132A809A071DD4DB0716D504998A98FFF70EFA26
S1132A9088B1002011E00B98FFF787FD0028EDD0E6
S1132AA08A98FFF7C1F90028E8D04FF40040FDF7F9
S1132AB005FF0028E2D140F205400DF50E7D10BD62
S1132AC00022926A029992689142DBD98A98FFF7B0
S1132AD0C9F90028EFD00A994FF40040FDF7AAFE87
S1132AE0E9E7FFF7B2BF01221A7070471FB5002350
S1132AF0CDE90033CDE90213D0F83032044693B95E
S1132B00D0E98A329A420ED26946FFF7B9F8D4F86E
S1132B10300298B141F2070240F20123904208BF0B
S1132B20184604B010BDA3785BB140F2022040F215
S1132B300323E278002A18BF1846F2E740F2012086
S1132B40EFE740F20220ECE737B50C4605461146A4
S1132B502046FFF750FD48B969462846FFF75AF862
S1132B6020B9019BC4F82452C4F8283203B030BD04
S1132B7038B500F5DE7204460D46202300F5AA712F
S1132B802C30FEF715FBD4F830321BB9D4E98A3265
S1132B909A4203D3A07800B1E07838BD2946204694
S1132BA0FFF76EF8EFE700207047B2F5402F10B53D
S1132BB01346044608460BD8B4F5402F08D82344DE
S1132BC0B3F5402F04D8214600F03CF9002010BD95
S1132BD040F20240FBE7B2F5402F10B506D8B0F53D
S1132BE0402F03D88318B3F5402F0ED940F202408A
S1132BF012E0C458013410D104339A42F9D88B0737
S1132C0005D10223FFF771FD03E00023F5E7FFF789
S1132C1083FD0028EAD0002010BD40F20340FBE70A
S1132C200220704738B541EA0003C3F30C0304469D
S1132C30CBB9B1F5402F0FD8B0F5402F0CD80D18F3
S1132C40B5F5402F08D8204604F50054FFF746FD9B
S1132C50AC4204D00028F6D140F2024038BD00282E
S1132C60FAD00020FAE740F20440F7E7002070476A
S1132C70EFF3108072B6704700B962B6704770B552
S1132C80054614460E46FFF7F3FF296881EA04025D
S1132C9002EA06044C402C60BDE87040FFF7ECBF2C
S1132CA04FF098435A6CD202FCD5586D00F4702052
S1132CB07047436813B9416070475B685A68012ADA
S1132CC0FBD159607047836813B9816070475B68B2
S1132CD05A68012AFBD159607047C369032B9FBF0F
S1132CE000EB83020133D160C3617047C369042BD5
S1132CF015D84FF09842116CC902FCD504339B00DF
S1132D0013650168103B116041680C30116050F884
S1132D10041C034411604FF09842984200D170475C
S1132D2050F8041B1160F8E7036BDA0702D5036956
S1132D305B06F9D4704710B5FFF7F6FF012200F5E2
S1132D4000531A630B79044648881B0243EA804304
S1132D50487A03434878002814BF402000200343E6
S1132D60887A002814BF802000200343C87A0028F2
S1132D7014BF202000200343087B002814BF102028
S1132D8000200343487B002814BF0820002003438D
S1132D90887B002814BF4FF4006000200343887927
S1132DA0002814BF4FF4803000200343636004F50F
S1132DB080531A630A780AB90223E360002363622A
S1132DC0C8790B7A497943EA8003002914BF10219A
S1132DD000210B43A3600AB10123E36010BD00206E
S1132DE07047002070472422002100F038B870B5E5
S1132DF015460E4624220021044600F030F825F042
S1132E004003802B02D0B5F5807F08D1204631469F
S1132E1040F8045BEA0800F015F8002070BD6FF07C
S1132E201F00FBE70139024410B5904201D1002094
S1132E3005E0037811F8014FA34201D0181B10BD1F
S1132E400130F2E70A44431E914200D1704710B5A5
S1132E5011F8014B914203F8014FF9D110BD02441E
S1132E600346934200D1704703F8011BF9E70000C1
S1132E70F8B500BFF8BC08BC9E467047F8B500BF63
S1132E80F8BC08BC9E467047000000000125000005
S1132E9000000000212500000D0A4765636B6F20C8
S1132EA0426F6F746C6F616465722076582E595945
S1132EB02E5A5A0D0A312E2075706C6F616420678A
S1132EC0626C0D0A322E2072756E0D0A332E206547
S1132ED0626C20696E666F0D0A424C203E2000022F
S1132EE005000D0A4661696C656420746F20626F89
S1132EF06F740D0A000D0A66696C65206572726F45
S1132F0072203078000D0A53657269616C20757007
S1132F106C6F61642061626F727465640D0A000DE8
S1132F200A53657269616C2075706C6F616420630B
S1132F306F6D706C6574650D0A000D0A62656769D2
S1132F406E2075706C6F61640D0A000D0A626C6FFF
S1132F50636B206572726F7220307800B814B6F11A
S1132F60E0CFF3ADB7DD25C9FA79B713000000004F
S1132F7007B0CD5E0200000002000202F031000042
S1132F800040000000000C00F0041100D1250000F6
S1132F90D525000029070000F7250000272600009A
S1132FA00C31000061260000D7260000000000005C
S1132FB061090000CB25000013B779FAC925DDB7F4
S1132FC0ADF3CFE0F1B614B8010200000000000038
S1132FD0EC3100004000000002000202000000008A
S1132FE000000000000000000000000000000000DD
S1132FF000000000000000000000000000000000CD
S113300000000000000000000400000700000D1094
S113301013001A202630384050000000EB17A60396
S11330200201000003000000FA0606FA0F04000083
S113303003000000F40A0AF4050500000100000082
S1133040EB17A65E0A06000001000000F50909F569
S11330500307000001000000F60808F60608000057
S113306000000000FE0101FE08080000000000004E
S1133070FD0303FD0C08000000000000F90707F938
S11330801009000002000000F30B0BF3110A00000A
S113309003000000F70A0AF7120B00000300000007
S11330A0FC0404FC0D0C0000030000006A09E66740
S11330B0BB67AE853C6EF372A54FF53A510E527F55
S11330C09B05688C1F83D9AB5BE0CD1980000000A1
S11330D000000000000000000000000000000000EC
S11330E000000000000000000000000000000000DC
S11330F000000000000000000000000000000000CC
S113310000000000000000000000000000010000BA
S1133110E51D0000151C0000451C0000851D000075
S1133120C11D0000352A0000152A0000452A0000B0
S1133130492B0000ED2A0000FD1C0000051F0000C3
S1133140AB2B0000D72B0000252C0000212C000005
S113315010020300280000002800000000200000E6
S113316000000C000000000004000000000000400B
S1133170010000000100000000C00500004005003F
S10F31808C31000010100020180000002A
S113318CF00F100300000000C51000201300000015
S113319C09000000000100000202000013000000FE
S11331ACF00F100300000000C511002013000000F4
S11331BC090000000002000001010000D3FFFFFF22
S11331CCF07F1030C5120020000000000000000049
S11331DC00C0054022000000590100003501000028
S90301C13A
